:100000000C946C020C940E070C9489020C948902D7
:100010000C941D070C9489020C94D3050C9489024E
:100020000C9489020C9489020C94DA040C948902D1
:100030000C9489020C947F0F0C94410F0C9489024C
:100040000C9489020C9489020C9489020C94890204
:100050000C9489024B08500855085A085F08640838
:10006000690878087D08820887088C089108960836
:10007000C0F9A4B0999282D88090FF7F000000441C
:1000800041544120646F6E27742073656E64004490
:100090004154412073656E642020202020200044BC
:1000A00041544120646F6E27742073656E64004470
:1000B0004154412073656E6420202020202000449C
:1000C00041544120646F6E27742073656E64004450
:1000D0004154412073656E6420202020202000447C
:1000E00041544120646F6E27742073656E64004430
:1000F0004154412073656E64202020202020004957
:1001000052636F6E00202020202000444154412083
:10011000646F6E27742073656E64004441544120FF
:1001200073656E642020202020200044415441202B
:10013000646F6E27742073656E64004441544120DF
:1001400073656E64202020202020005375005361C9
:10015000004672005468005765005475004D6F00EA
:10016000B043002E0020002020002D00202D004450
:100170005331384232302073656E2E543A20004499
:1001800041544120646F6E27742073656E640020B3
:10019000250030002E0048756D69646974793A2035
:1001A00000206850610030002E0050726573737536
:1001B00072653A20202000B0430030002E005465C4
:1001C0006D70657261747572653A2020202000544C
:1001D000656D70657261747572653A2020005465B2
:1001E0006D70657261747572653A20202D002D2D39
:1001F0002D2D424D453238302073656E736F722D50
:100200002D2D2D002020003230002F002F002F0038
:10021000446174653A200030003A0030003A003002
:100220000054696D653A2000BC5F9C60A4618462E3
:10023000B6639664B0659F66B5678968A969FFFF74
:100240000000000000000000002F00000000070078
:10025000070000147F147F1400242A7F2A120062F2
:10026000640813230036495522500000050300009E
:1002700000001C224100000041221C000014083E26
:1002800008140008083E0808000000A060000008EC
:100290000808080800006060000000201008040240
:1002A000003E5149453E0000427F400000426151FE
:1002B0004946002141454B31001814127F10002798
:1002C00045454539003C4A4949300001710905035B
:1002D00000364949493600064949291E000036368C
:1002E00000000000563600000008142241000014EF
:1002F00014141414000041221408000201510906CC
:1003000000324959513E007C1211127C007F49494C
:100310004936003E41414122007F4141221C007F7D
:1003200049494941007F09090901003E4149497A8B
:10033000007F0808087F0000417F41000020404105
:100340003F01007F08142241007F40404040007F71
:10035000020C027F007F0408107F003E4141413EB5
:10036000007F09090906003E4151215E007F0919FD
:1003700029460046494949310001017F0101003FFA
:100380004040403F001F2040201F003F4038403F7A
:1003900000631408146300070870080700615149DE
:1003A000454300007F41410000552A552A55000071
:1003B00041417F00000402010204004040404040EF
:1003C000000001020400002054545478007F484487
:1003D000443800384444442000384444487F0038BE
:1003E0005454541800087E0901020018A4A4A47CE7
:1003F000007F080404780000447D400000408084B1
:100400007D00007F102844000000417F4000007CF8
:1004100004180478007C0804047800384444443804
:1004200000FC242424180018242418FC007C080450
:10043000040800485454542000043F444020003C29
:100440004040207C001C2040201C003C4030403CB0
:10045000004428102844001CA0A0A07C0044645440
:100460004C440000087741000000006300000000D9
:1004700041770800000804080804003A4040207A48
:10048000003D4040403D002154545479007D1211FC
:10049000127D003944444439003D4242423D00024D
:1004A00005020000007E01495573007C1010081CF5
:1004B000003048204830005C6202625CAE2000B030
:1004C000C8001040813FA1A6A83FA4D300D5F0D911
:1004D00022DA12DB208D140011241FBECFE5D8E0F4
:1004E000DEBFCDBF13E0A0E6B0E0E0EBFDE302C06D
:1004F00005900D92AE34B107D9F727E0AEE4B3E032
:1005000001C01D92AC3FB207E1F70E94FF0B0C94B3
:10051000D61E0C940000CF93DF93EC01E0E0F0E0F6
:1005200080E015C0DE01AE0FBF1F2C9198E0382F80
:100530003227432F417030FF02C038E18327869570
:10054000413009F480682695915089F73196E61775
:10055000F70741F7DF91CF9108950F931F93CF9342
:10056000DF93CDB7DEB760970FB6F894DEBF0FBE4E
:10057000CDBF90E1E6E6F0E0DE01119601900D922C
:100580009A95E1F7DB019C911196EC911197F0E0BF
:10059000FE2FEE27E92B803161F4EE7FEE0FFF1F77
:1005A000EE0FFF1FEE0FFF1F16969C91E91BF1093E
:1005B0003C96FF233CF491E0DA019C93F195E195A0
:1005C000F10902C0DA011C92883281F4DB01149631
:1005D0008C91982F9076903649F086FF02C0EE7F7E
:1005E00005C085FF02C0EC7F01C0E87FCF01929576
:1005F00082958F7089279F708927D9018C93EF701E
:10060000FF2781E090E08C0F9D1FE80FF91F80818C
:10061000D8018C9380E060960FB6F894DEBF0FBED1
:10062000CDBFDF91CF911F910F9108950F931F932D
:10063000CF93DF93EC018B01B80188810E945304B2
:10064000888381508D3F30F4F8018081883211F029
:10065000803191F7DF91CF911F910F9108951F93F2
:10066000CF93DF93CDB7DEB729970FB6F894DEBFEF
:100670000FBECDBF8FEF898710E029C0BE016F5F2D
:100680007F4FCE0109960E94160389858F3F21F185
:100690008E3F11F140E018C0812F90E0242F30E010
:1006A000E1E0F0E0EC0FFD1FE20FF31F5081880F37
:1006B000991F880F991F880F991F8357984FFC0126
:1006C000E20FF31F50834F5F483030F31F5F89857F
:1006D000882311F0143090F2812F29960FB6F894E8
:1006E000DEBF0FBECDBFDF91CF911F9108950F9355
:1006F0001F93CF93DF93D82F8B010E940504C82F3F
:1007000081110DC00E94FB03882359F0B80184E4D5
:100710000E94A304D13031F00E94FE0303C0C1E067
:1007200001C0C2E08C2FDF91CF911F910F910895EE
:100730006F927F928F929F92AF92BF92CF92DF92F1
:10074000EF92FF920F931F93CF93DF93CDB7DEB756
:1007500029970FB6F894DEBF0FBECDBF6C015B01C9
:100760004A0139010E940504811128C0B6018EEBAF
:100770000E94A30410E00CC0E12EF12C0E944F0453
:10078000E1E0F0E0EC0FFD1FEE0DFF1D80831F5F29
:10079000193090F369E070E0CE0101960E948B025F
:1007A000F82E81110EC083019401A501BE016F5F77
:1007B0007F4FF60180810E94AD0207C0FF24F394B1
:1007C00004C00F2EF3E0FF2EF02D8F2D29960FB6CB
:1007D000F894DEBF0FBECDBFDF91CF911F910F9177
:1007E000FF90EF90DF90CF90BF90AF909F908F9051
:1007F0007F906F90089580B38078089582B3806869
:1008000082BB81B3806881BB089582B38F7782BB3E
:1008100081B3806881BB8FE295E00197F1F79FB7C4
:10082000F89481B38F7781BBE3EFEA95F1F700008D
:1008300080B380789FBFE8E7F4E03197F1F700C01C
:10084000879B81E008952FB7F89491B3906891BB8E
:1008500094E09A95F1F7882319F091B39F7791BBB3
:1008600097E39A95F1F70000879B80E096EA9A95C6
:10087000F1F791B39F7791BB2FBF0895CF93DF938B
:10088000C82FD8E08C2F81700E942304C695811157
:10089000C068D150B9F78C2FDF91CF9108958FEFB9
:1008A0000E943E040895DF92EF92FF920F931F93F0
:1008B000CF93DF93D82E8B010E940504811138C09D
:1008C00080EF0E943E04E12C6894FF24F6F8D8E003
:1008D00081E00E942304C82F81E00E942304882322
:1008E00019F0CC2389F026C0C1110EC0FD1438F0D8
:1008F000F801808180FF08C0FD1004C005C0EF2C06
:10090000C1E002C0EF2CC1E08C2F0E942304F8014B
:10091000908196959083CC2311F090689083FA94FF
:10092000D150B1F60F5F1F4FF110D1CF8E2D03C004
:100930008FEF01C08EEFDF91CF911F910F91FF904C
:10094000EF90DF9008950F931F93CF93DF93D82FED
:100950008B010E9405040115110561F085E50E94D7
:100960003E04C8E0F80181918F010E943E04C1500D
:10097000C9F703C08CEC0E943E048D2F0E943E04F8
:10098000DF91CF911F910F9108958FEF87BB88BBA7
:100990008AB38F608ABB8BB38F608BBB83B7886051
:1009A00083BF83B7856083BF87E28CBF89B78260CE
:1009B00089BF08951F920F920FB60F9211248F9343
:1009C0009F93EF93FF938BB38F608BBB80914E030C
:1009D000811108C0E091AE07F0E0E059FF4FE491CB
:1009E000E8BB1EC0813049F4E091AF07F0E0E05968
:1009F000FF4FE491E068E8BB13C0823041F4E0911E
:100A0000B007F0E0E059FF4FE491E8BB09C0833044
:100A100039F4E091AD07F0E0E059FF4FE491E8BB15
:100A20009BB3E0914E03F0E0EA58FF4F8081809540
:100A300089238BBB80914E038F5F80934E0384305C
:100A400010F010924E03FF91EF919F918F910F90B4
:100A50000FBE0F901F9018959C0140E050E063E39B
:100A60007BE280E090E00E94171A822F203148F04C
:100A700030E020513109C90199230CF40196959574
:100A8000879580B9089584EA86BF06B607FEFDCF34
:100A9000089584E986BF06B604FCFDCF089583B9A6
:100AA00084E886BF06B607FEFDCF089520E4829F46
:100AB000C0011124846886BF06B607FEFDCF83B14E
:100AC0000895EF92FF920F931F93CF93DF93F82E29
:100AD000D62FC42F89010E9443058F2D0E944F05F8
:100AE0008D2F0E944F050AC078018FEFE81AF80A8F
:100AF000F80180810E944F05CD2F8701DFEFDC0FC9
:100B0000C111F2CF0E944905DF91CF911F910F9142
:100B1000FF90EF900895EF92FF920F931F93CF9362
:100B2000DF93D82FF62EC42F89010E9443058D2F05
:100B30000E944F058F2D0E944F050E94430581E0C2
:100B40008D0F0E944F050EC078018FEFE81AF80A4A
:100B500081E0D11101C080E00E945605F801808338
:100B6000CD2F8701DFEFDC0FC111EECF0E944905C9
:100B7000DF91CF911F910F91FF90EF90089581B376
:100B80008F7B81BB82B3806482BB8EB582608EBD59
:100B90008EB58F7B8EBD1092B40789B7806289BFF6
:100BA0001092B50708951F920F920FB60F9211245D
:100BB0002F933F938F939F9386B597B520915303BF
:100BC00030915403821B930B26B537B530935403F1
:100BD000209353033EB520E423272EBD803A2AE01C
:100BE000920710F01092B4072091B407222319F055
:100BF00021E0209352032091B407211111C01092DB
:100C000051031092500310924F032EB520642EBD55
:100C10002091B4072F5F2093B40722E02093520362
:100C200020915203213009F067C0833B23E09207F3
:100C300010F410925203803A2AE0920710F01092BA
:100C4000520320915203213009F056C08A3D95404D
:100C500028F08091B4078F5F8093B4078091B40728
:100C6000823008F444C08091B40780FD40C0809178
:100C7000500390915103880F991F909351038093D3
:100C800050030EB406FE05C081609093510380931B
:100C9000500380914F038F5F80934F038D3038F165
:100CA0008091B50781111EC080915003909151032E
:100CB000282F2F732093B3079C01207C37700024CA
:100CC000220F331F001C220F331F001C232F302D37
:100CD0002093B20788279870892F869586958695E8
:100CE0008093B1071092520381E08093B507809101
:100CF000B4078F5F8093B40780915203811105C0C0
:100D00001092B4078EB58F7B8EBD9F918F913F91CE
:100D10002F910F900FBE0F901F90189581E0809338
:100D200062008CE491E00E94150F08951092620019
:100D300083E691E00E94150F089581E0809363039C
:100D40008BE791E00E94150F08951092630385B31D
:100D5000806485BB8EE891E00E94150F089581E0C4
:100D60008093600367E080E00E9455178FEA90E06F
:100D70000E9468198FEF91E00E94150F089510925C
:100D8000600367E080E00E9455178FE990E00E94C1
:100D9000681987E492E00E94150F089580E00E9490
:100DA000B6178BE191E00E94150F089581E00E9433
:100DB000B61783E391E00E94150F089580E00E942A
:100DC000B61781E080936200809363038093600391
:100DD00067E080E00E9455178FE890E00E94681954
:100DE00082ED91E00E94150F089581E00E94B617F0
:100DF000109262001092630385B3806485BB1092E9
:100E0000600367E080E00E9455178FE790E00E9442
:100E1000681981E192E00E94150F08951F920F92C8
:100E20000FB60F9211248F9381E0809360008F9111
:100E30000F900FBE0F901F9018951F920F920FB634
:100E40000F9211248F939F9380915E0390915F0383
:100E5000009729F0019790935F0380935E03809140
:100E60005C0390915D03009729F0019790935D03D7
:100E700080935C0380915A0390915B03009729F063
:100E8000019790935B0380935A038091580390914C
:100E90005903009729F001979093590380935803C1
:100EA0009F918F910F900FBE0F901F901895AF924A
:100EB000BF92CF92DF92EF92FF920F931F93CF9347
:100EC0005C012115310511F424E130E00115110513
:100ED00011F406E910E0FB01C081C42369F4F501B7
:100EE0008081811109C081E080838FE090E0909340
:100EF0005F0380935E0359C0F5018081882309F464
:100F000054C0C11111C0813079F440915E035091F9
:100F10005F03452B49F482E0808385E090E0909365
:100F20005F0380935E0341C0CC2361F0823050F0B8
:100F3000843040F4E114F10411F0F7010995F50152
:100F4000108233C0C11110C0823071F440915E0331
:100F500050915F03452B41F483E0F50180831093AA
:100F60005F0300935E0321C0C1110CC0833051F4B4
:100F700040915E0350915F03452B21F484E0F5011D
:100F8000808313C0C11111C0843079F480915E0355
:100F900090915F03892B49F430935F0320935E03A4
:100FA000C114D10411F0F6010995F5018081833057
:100FB00010F0C1111082CF911F910F91FF90EF900F
:100FC000DF90CF90BF90AF900895CF93C82F682F38
:100FD00080E00E9455178FE691E00E946819809189
:100FE000CC07882369F09091D0079A3048F46C2F91
:100FF0008EE00E9455178CE691E00E9468190EC0A1
:10100000882361F08091D0078A3040F06C2F8EE009
:101010000E9455178AE691E00E9468198091CC07DA
:1010200081110DC09091D0079A3048F46C2F8EE05A
:101030000E94551787E691E00E9468190EC0811141
:101040000CC08091D0078A3040F06C2F8EE00E9457
:10105000551785E691E00E9468198091D00790E0CD
:101060000E94771983E691E00E9468198091CA076F
:1010700090E00E94771980E691E00E946819CF9174
:10108000089590E0FC013197E730F10530F5E65D19
:10109000FF4F0C94361A8DE591E00E94681908956F
:1010A0008AE591E00E946819089587E591E00E9421
:1010B0006819089584E591E00E946819089581E512
:1010C00091E00E94681908958EE491E00E946819E9
:1010D00008958BE491E00E946819089590E0FC0166
:1010E0003197E730F10530F5EF5CFF4F0C94361A7D
:1010F0008AE790E00E94150F08958DE790E00E9426
:10110000150F089580E890E00E94150F089583E878
:1011100090E00E94150F089586E890E00E94150F58
:10112000089589E890E00E94150F08958CE890E0FA
:101130000E94150F089580916100882321F08FE8A7
:1011400090E00E94150F109261000E946A0F809338
:10115000610380916103883621F0809161038834B6
:1011600061F58DEB90E00E94150F85E191E00E9402
:10117000150F8DE291E00E94150F86E491E00E9428
:10118000150F8DE591E00E94150F85E791E00E9413
:10119000150F88E891E00E94150F82EA91E00E9405
:1011A000150F84EB91E00E94150F8CEC91E00E94EA
:1011B000150F8BE092E00E94150F80916103803340
:1011C00061F480E00E94B61789E592E00E94150F55
:1011D0008BE191E00E94150F0895809161038133A6
:1011E00061F481E00E94B6178AE692E00E94150F32
:1011F00083E391E00E94150F08958091610382338B
:1012000061F481E0809362008BE792E00E94150F09
:101210008CE491E00E94150F08958091610383335F
:1012200059F4109262008CE892E00E94150F83E658
:1012300091E00E94150F089580916103843361F459
:1012400081E0809363038DE992E00E94150F8BE7A4
:1012500091E00E94150F089580916103853371F428
:10126000109263038EEA92E00E94150F85B38064AA
:1012700085BB8EE891E00E94150F0895809161036F
:101280008633A1F481E08093600367E080E00E94F0
:1012900055178FEB92E00E94150F8BE391E00E94AF
:1012A00068198FEF91E00E94150F089580916103F6
:1012B000873399F41092600367E080E00E9455172D
:1012C00080ED92E00E94150F8BE291E00E94681978
:1012D00087E492E00E94150F08958091610388339E
:1012E000D9F480E00E94B61781E080936200809379
:1012F00063038093600367E080E00E94551781EEEE
:1013000092E00E94150F8BE191E00E94681982ED36
:1013100091E00E94150F0895809161038933E1F4F3
:1013200081E00E94B617109262001092630385B3A9
:10133000806485BB1092600367E080E00E945517CF
:1013400082EF92E00E94150F8BE091E00E946819F5
:1013500081E192E00E94150F08958091B5078111F7
:1013600008C067E080E10E94551785E091E00E9487
:1013700068198091B507882309F42AC18091B207C2
:10138000811121C08091B3078091B3078A30D8F4CE
:1013900067E080E10E9455178FEF90E00E94681986
:1013A0008091620381110FC083E093E00E94150FCA
:1013B0008091B3076AE070E090E00E94240F85E618
:1013C00092E00E94150F8091B20781110FC08091A9
:1013D000B30781110BC00E94B6178091620381117F
:1013E000E7C08BE191E00E94150FE2C08091B20747
:1013F00081110FC08091B307813059F40E94B61754
:10140000809162038111D4C083E391E00E94150FA3
:10141000CFC08091B207811110C08091B307823094
:1014200061F481E080936200809162038111C0C009
:101430008CE491E00E94150FBBC08091B20781112E
:101440000FC08091B307833059F4109262008091ED
:1014500062038111ADC083E691E00E94150FA8C020
:101460008091B207811110C08091B307843061F47C
:1014700081E08093630380916203811199C08BE7BF
:1014800091E00E94150F94C08091B207811112C0A3
:101490008091B307853071F41092630385B3806443
:1014A00085BB80916203811183C08EE891E00E9428
:1014B000150F7EC08091B207811118C08091B307CB
:1014C0008630A1F481E08093600367E080E00E94B1
:1014D00055178FEE90E00E94681980916203811188
:1014E00067C08FEF91E00E94150F62C08091B20734
:1014F000811117C08091B307873099F4109260036F
:1015000067E080E00E9455178FED90E00E94681917
:101510008091620381114CC087E492E00E94150F14
:1015200047C08091B20781111FC08091B3078830F6
:10153000D9F480E00E94B61781E080936200809326
:1015400063038093600367E080E00E9455178FEC8F
:1015500090E00E94681980916203811129C082ED98
:1015600091E00E94150F24C08091B207811120C024
:101570008091B3078930E1F481E00E94B6171092A0
:1015800062001092630385B3806485BB1092600390
:1015900067E080E00E9455178FEB90E00E94681989
:1015A00080916203811104C081E192E00E94150FD5
:1015B0001092B507809162038F5F8093620382303F
:1015C00011F4109262038FEF8093B3078093B207F8
:1015D00008958091D2078A3020F483E193E00E943D
:1015E000150F8091D2076AE070E090E00E94240F0E
:1015F0008EE093E00E94150F8091CD078A3020F491
:1016000083E193E00E94150F8091CD076AE070E0BE
:1016100090E00E94240F8EE093E00E94150F8091CD
:10162000BD078A3020F483E193E00E94150F80917A
:10163000BD076AE070E090E00E94240F87E393E02A
:101640000E94150F8091D1070E946E0880E193E0FF
:101650000E94150F8091C2076AE070E090E00E943E
:10166000240F80E193E00E94150F8091B7076AE094
:1016700070E090E00E94240F80E193E00E94150F3B
:101680008091CF07882321F082E193E00E94150F1B
:101690008091CF076AE070E090E00E94240F85E11E
:1016A00093E00E94150F8091CC07882321F082E2FD
:1016B00093E00E94150F8091D0076AE070E090E0FF
:1016C0000E94240F84E293E00E94150F8091CA07C4
:1016D0006AE070E090E00E94240F86E293E00E94AE
:1016E000150F89E293E00E94150F8091550388231E
:1016F00021F082E293E00E94150F8091BB076AE01F
:1017000070E0082E000C990B0E94240F84E293E0F5
:101710000E94150F8091BE078A3024F483E193E084
:101720000E94150F8091BE076AE070E0082E000C41
:10173000990B0E94240F85E393E00E94150F6AE045
:1017400070E08091BF079091C0070E94240F84E24F
:1017500093E00E94150F8091B6078A3020F483E150
:1017600093E00E94150F8091B6076AE070E090E068
:101770000E94240F8BE393E00E94150F8091B9071C
:101780006AE070E090E00E94240F84E293E00E94FF
:10179000150F8091B907843640F48091BA078A30DA
:1017A00020F483E193E00E94150F8091BA076AE06C
:1017B00070E090E00E94240F82E493E00E94150FF5
:1017C00008959DEC899F912D112496959695969557
:1017D00020E1929FA0011124990F292F220F220F9F
:1017E000920F891B842B0895982F92959F70990FC3
:1017F000292F220F220F920F8F70890F08958AB31D
:101800008F708ABB84B38F7784BB8BB3806F8BBBA5
:1018100085B3806885BB84B3806484BB85B38064F2
:1018200085BB85B7826085BF8BB780648BBF82B371
:10183000846082BB85B5886085BD85B5876085BDC0
:101840008CE683BD80E889BF0E942F038093CB077D
:1018500060E070E081E00E94770384E690E00E94FF
:101860002C050E9477168FEA0E94841784E60E9456
:10187000CB1781E00E9458190E94C5040E94BF0541
:1018800083E290E00E94F80E7894809157038130B3
:1018900021F586E10E94E10BC3ECD7E08A838CE25C
:1018A0000E94E10B898380E00E94E10B888381E044
:1018B0000E94E10B8B8383E10E94E10B8C8382E029
:1018C0000E94E10B8D8388E10E94E10B8E839E01D3
:1018D00047E060E080ED0E9461050F2EF6EDCF2E0F
:1018E000F6E0DF2EF02D0F2EFEECEF2EF6E0FF2EB1
:1018F000F02D0FE010E022E030E040E169E370E01D
:1019000081EC97E00E9457070F2EF6E9CF2EF6E004
:10191000DF2EF02D0F2EFEE8EF2EF6E0FF2EF02D3D
:1019200022E030E040E269E370E083ED97E00E945E
:1019300057070F2EF5EACF2EF6E0DF2EF02D0F2EF3
:10194000FDE9EF2EF6E0FF2EF02D22E030E040E43E
:1019500069E370E08EEC97E00E9457070F2EFFEBD3
:10196000CF2EF6E0DF2EF02D0F2EFFEAEF2EF6E061
:10197000FF2EF02D22E030E040E869E370E088EBD4
:1019800097E00E9457070F2EF5EFCF2EF6E0DF2EDF
:10199000F02D0F2EFEEDEF2EF6E0FF2EF02D22E0C3
:1019A00030E040E863E370E08CEB97E00E9457077B
:1019B0000E949B080E94AD0980915C0390915D0399
:1019C000892B71F489E190E090935D0380935C032F
:1019D00080916303882321F095B380E4892785BB38
:1019E00080916000882309F478CF23EC37E047E04A
:1019F00060E080ED0E948B05C3ECD7E01A81812F57
:101A00000E94F40B8093D207F9808F2D0E94F40B73
:101A10008093CD0788810E94F40B082F8093BD0727
:101A20008B810E94F40B8093D1078C810E94F40B70
:101A30008093C2078D810E94F40B8093B7078E813B
:101A40000E94F40B8093CF0780916200813029F5CA
:101A5000802F817000FF0EC0812F82958F70809340
:101A6000AE071F701093AF078AE08093AD07809395
:101A7000B00713C0811111C0812F82958F708093A0
:101A8000AE071F701093AF078F2D82958F708093D4
:101A9000B0078F2D8F708093AD0780916200811108
:101AA00009C08AE08093AD078093B0078093AF07A9
:101AB0008093AE0760E080E00E94551781E292E0DB
:101AC0000E9468198091D2078A3020F48FE192E059
:101AD0000E9468198091D20790E00E9477198DE1E9
:101AE00092E00E9468198091CD078A3020F48BE142
:101AF00092E00E9468198091CD0790E00E947719CA
:101B000089E192E00E9468198091BD078A3020F433
:101B100087E192E00E9468198091BD0790E00E94E1
:101B2000771961E080E00E94551780E192E00E9401
:101B300068198091D1070E9441088EE092E00E94CE
:101B400068198091C20790E00E9477198CE092E0BA
:101B50000E9468198091B70790E00E9477198AE087
:101B600092E00E9468198091CF07882321F087E0D6
:101B700092E00E9468198091CF0790E00E94771947
:101B80008091C2078A3020F08091B7078A3020F414
:101B900084E092E00E9468192AEC37E040ED57E0BB
:101BA0006CEC77E08DE897E00E949803811103C008
:101BB00082E00E94E50760E070E081E00E94770328
:101BC00063E080E00E9455178EEE91E00E94681954
:101BD0004EEB57E06BEB77E084E00E947A168111C0
:101BE0006FC08091BB07811112C09091BE079923ED
:101BF00074F491959093BE0764E00E9455178EEDA2
:101C000091E00E94681981E0809355031CC08823ED
:101C100084F48091BE07882364F481958093BE0785
:101C200064E080E00E9455178FEC91E00E946819F3
:101C30000AC064E080E00E9455178EEB91E00E949C
:101C40006819109255038091BB07873F2CF464E01C
:101C50008DE00E94551716C099E0980F993028F42E
:101C600064E08EE00E9455170DC08A3028F464E0CD
:101C70008FE00E94551706C08A3024F064E08EE0A1
:101C80000E9455178091BB07082E000C990B0E94EB
:101C900077198CEB91E00E9468198091BE078A3019
:101CA00024F48AEB91E00E9468198091BE07082E07
:101CB000000C990B0E94771987EB91E00E9468193C
:101CC00046EB57E06FEB77E082E00E9485168111CA
:101CD00034C065E00E9455178AEA91E00E946819B5
:101CE0008091BF079091C007883E934028F465E03B
:101CF0008BE00E94551704C065E08AE00E945517EA
:101D00006091BF077091C00780E090E00E94A11928
:101D100088EA91E00E9468198091B6078A3020F421
:101D200086EA91E00E9468198091B60790E00E94CF
:101D3000771981EA91E00E9468194AEB57E069EB54
:101D400077E084E00E949116811132C066E00E9423
:101D5000551786E991E00E9468198091B9078A3089
:101D600028F466E08FE00E94551704C066E08EE01C
:101D70000E9455178091B90790E00E94771984E975
:101D800091E00E9468198091B907843640F48091EF
:101D9000BA078A3020F482E991E00E9468198091A4
:101DA000BA0790E00E9477198FE891E00E946819C5
:101DB00080916003811107C067E00E9455178FE78B
:101DC00091E00E9468190E94CF199091560380916A
:101DD000BD07981731F080916003813011F40E94A3
:101DE000E90A109260008091BD078093560375CD7B
:101DF00090BD89B988E18AB986E880BD8AB18869D1
:101E00008AB908952091D4072F5F21709091D5074A
:101E10002917E1F3E22FF0E0EA52F84F8083209394
:101E2000D4078AB180628AB90895CF93DF93FC0109
:101E300003C00E94020FFE01EF01219680818111F3
:101E4000F8CFDF91CF910895CF93DF93CDB7DEB771
:101E500061970FB6F894DEBF0FBECDBFAB01BE01D8
:101E60006F5F7F4F0E94E31BCE0101960E94150F0A
:101E700061960FB6F894DEBF0FBECDBFDF91CF9154
:101E800008951F920F920FB60F9211248F939F9374
:101E9000EF93FF939091D4078091D507981771F035
:101EA0008091D5078F5F81708093D507E091D5072A
:101EB000F0E0EA52F84F80818CB903C08AB18F7D7F
:101EC0008AB9FF91EF919F918F910F900FBE0F9064
:101ED0001F9018959091D8078091D907981769F0AD
:101EE0008091D9078F5F8F718093D907E091D907CF
:101EF000F0E0E652F84F8081089580E008951F9247
:101F00000F920FB60F9211248F939F93EF93FF932D
:101F10009CB1E091D807EF5FEF718091D907E81786
:101F200031F0E093D807F0E0E652F84F9083FF914C
:101F3000EF919F918F910F900FBE0F901F9018956A
:101F4000CF93C82F0E94C9158CEE0E9417168C2FB4
:101F50000E9417160E94C9158DEE0E94171680E088
:101F60000E944816C82F0E94F0158C2FCF9108951B
:101F7000CF93DF93C82F0E94C9158CEE0E941716CD
:101F80008C2F0E9417160E94C9158DEE0E941716FD
:101F900081E00E944816C82FD0E0DC2FCC2780E0DB
:101FA0000E944816C82B0E94F015CE01DF91CF91F8
:101FB00008950E94B80F98278927982708950E94AE
:101FC000D90F08950F931F93CF93DF9388E80E9452
:101FD000D90FC4E6D3E0998388838AE80E94DF0F93
:101FE0009B838A838CE80E94DF0F9D838C838EE81D
:101FF0000E94D90F9F838E8380E90E94DF0F99870B
:10200000888782E90E94DF0F9B878A8784E90E9484
:10201000DF0F9D878C8786E90E94DF0F9F878E8761
:1020200088E90E94DF0F998B888B8AE90E94DF0F75
:102030009B8B8A8B8CE90E94DF0F9D8B8C8B8EE9AA
:102040000E94DF0F9F8B8E8B80ED0E94A00F803649
:1020500071F581EA0E94A00F888F81EE0E94DF0F48
:102060009A8F898F83EE0E94A00F8B8F84EE0E943F
:10207000A00F90E1899F8001112485EE0E94A00F9E
:102080008F70082B1D8F0C8F86EE0E94A00F90E1A1
:10209000899F8001112485EE0E94A00F82958F7088
:1020A000082B1F8F0E8F87EE0E94A00F88A3DF9151
:1020B000CF911F910F910895CF92DF92EF92FF92EF
:1020C000F82E0E94C9158CEE0E9417168F2D0E94C3
:1020D00017160E94C9158DEE0E94171681E00E9406
:1020E0004816C82ED12CE12CF12CFE2CED2CDC2C2A
:1020F000CC2481E00E944816C82AFE2CED2CDC2C52
:10210000CC2480E00E944816C82A0E94F015C7011E
:10211000B601FF90EF90DF90CF900895CF930E948B
:10212000C9158CEE0E941716C82F0E94F015CC23FB
:1021300009F456C080ED0E94A00F883501F1803669
:1021400009F050C00E94C9158CEE0E94171680EE4F
:102150000E9417160E94F0158FEF9BE60197F1F78A
:1021600000C000000E94C9158CEE0E94171682EF75
:102170000E94171685E00E941716C4E019C00E943D
:10218000C9158CEE0E94171680EE0E94171686EB7A
:102190000E9417160E94F0158FEF9BE60197F1F74A
:1021A00000C000000E94C9158CEE0E941716C2E004
:1021B00085EF0E9417168CE60E94171684EF0E9486
:1021C000171687EB0E9417160E94F0158FEF9BE6FB
:1021D0000197F1F700C000000E94E20F8C2F03C0AE
:1021E0008FEF01C080E0CF9108954F925F926F9280
:1021F0007F928F929F92AF92BF92CF92DF92EF9297
:10220000FF920F931F93CF93DF93EC018B018AEF23
:102210000E945C106B017C01C114D10480E8E806C7
:10222000F10409F490C0B701A601689416F87595F9
:102230006795579547951694D1F7E4E6F3E08080CB
:102240009180A12CB12CD501C401880F991FAA1F20
:10225000BB1F9A01AB01281B390B4A0B5B0BA281F8
:10226000B3810E94471A2B013C01032E3BE0759479
:102270006794579447943A95D1F7302DBB27F7FCD4
:10228000BA95AF2D9E2D8D2DBC01CD016819790910
:102290008A099B099B01AC010E94E5199B01AC01D5
:1022A000012E1CE055954795379527951A95D1F73E
:1022B000102DA481B5810E94471ADC01CB01072EA5
:1022C0007EE0B595A795979587957A95D1F7702D6E
:1022D000480E591E6A1E7B1E40928503509286034B
:1022E0006092870370928803D301C201880F991FFF
:1022F000AA1FBB1F880F991FAA1FBB1F480E591E7C
:102300006A1E7B1EE0E84E0E511C611C711C452CA0
:10231000562C672C772467FC7A942097B1F001152E
:102320001105A9F0C301B20124E630E040E050E01D
:102330000E94171A2883F4E62F9F40181124F801F1
:10234000408280E005C08FEF03C080E001C080E0E4
:10235000DF91CF911F910F91FF90EF90DF90CF9081
:10236000BF90AF909F908F907F906F905F904F90B5
:1023700008952F923F924F925F926F927F928F9229
:102380009F92AF92BF92CF92DF92EF92FF920F9304
:102390001F93CF93DF93CDB7DEB76C970FB6F8944A
:1023A000DEBF0FBECDBF9A8B898B7C8B6B8B60E0C1
:1023B00070E080E090E00E94F51087EF0E945C10D2
:1023C0006115710520E88207910509F47DC29B0122
:1023D000AC01689413F85595479537952795169451
:1023E000D1F72D8B3E8B4F8B588F80918503909129
:1023F0008603A0918703B09188036C017D01FF0CD7
:10240000CC08DC2C7601282F392F4A2F5B2F6C2D1E
:102410007C2D8C2D9C2D345F41405109610971093F
:102420008109910929833A834B835C83262E372EB9
:10243000482E592EA22EB32EC42ED52EE62EF72EC0
:10244000082F192F0E944F1A2D833E834F835887E0
:1024500069877A878B879C87B0907503A0907403F7
:102460001B2D110F110BC12ED12EE12EF12E012F9C
:102470000E944F1A2D873E874F87588B662E772EE6
:10248000882E992EB0907303A09072031B2D110F0C
:10249000110BC12ED12EE12EF12E012F29813A816F
:1024A0004B815C81622D732D842D952D0E944F1AD6
:1024B00001E10E947F1BA22EB32EC42ED52EE62E44
:1024C000F72E082F192F2D853E854F855889662DAB
:1024D000772D882D992D0E94B61B622E732E842E87
:1024E000952EB62FA72FF82FE92F30917103209149
:1024F0007003932F990F990B492F592F692F792F1B
:10250000892F03E20E947F1BA22EB32EC42ED52E4C
:10251000E62EF72E082F192F262D372D482D592D51
:102520006B2F7A2F8F2F9E2F0E94B61B2D873E87F1
:102530004F87588B698F7A8F8B8F9C8FB0906F03EA
:10254000A0906E031B2D110F110BC12ED12EE12E69
:10255000F12E012F2D813E814F81588569857A8525
:102560008B859C850E944F1A08E00E94981B2D8342
:102570003E834F835887662E772E882E992EB090F3
:102580006D03A0906C031B2D110F110BC12ED12ECA
:10259000E12EF12E012F29813A814B815C81622D40
:1025A000732D842D952D0E944F1A0CE00E947F1BE5
:1025B000A22EB32EC42ED52EE62EF72E082F192FBD
:1025C0002D813E814F815885662D772D882D992D3F
:1025D0000E94B61B70588F4F9F4F20906A03309017
:1025E0006B03A22CB32CC12CD12CE12CF12C00E0DC
:1025F00010E00E944F1A01E20E94981B422E532EB7
:10260000642E752E862E972E8A839983A0E00E94D1
:10261000C81B09F45EC180E090E0A0E1B0E02D8924
:102620003E894F89588D821B930BA40BB50B5C011F
:102630006D01282F3B2D4C2D5D2D60E070E080E07A
:1026400090E00FE10E947F1BAD84BE84CF84D888C8
:10265000E98CFA8C0B8D1C8D0E94BF1B0F2EF5E3AD
:10266000AF2EF02D0F2EFCE0BF2EF02DC12CD12C63
:10267000E12CF12C00E010E00E944F1AA42CB52CA4
:10268000C62CD72CE82CF92C0A8119810E94AA1A91
:1026900029833A834B835C836D837E838F83988702
:1026A000F0917B03A0917A03EF2FEE0FEE0B0DE07C
:1026B0000E94981B222E332E442E552E662E772EE6
:1026C000882E992EA22EB32EC42ED52EE62EF72EAE
:1026D000082F192F2A2F3F2F4E2F5E2F6E2F7E2F60
:1026E0008E2F9E2F0E944F1AA22EB32EC42ED52EAF
:1026F000E62EF72E082F192F222D332D442D552D80
:10270000662D772D882D992D0E944F1A09E10E9480
:10271000981B522E432E342E252E69877A878B875D
:102720009C87B0907903A09078031B2D110F110B9B
:10273000C12ED12EE12EF12E012F29813A814B811C
:102740005C816D817E818F8198850E944F1A03E1A3
:102750000E94981B622E732E842E952EB62FA72FC3
:10276000F82FE92F29813A814B815C816D817E812F
:102770008F819885A52CB42CC32CD22CE984FA84A3
:102780000B851C850E94B61BA22EB32EC42ED52EFF
:10279000E62EF72E082F192F262D372D482D592DCF
:1027A0006B2F7A2F8F2F9E2F0E94B61B08E00E945E
:1027B000981B822E932E642E752EB62FA72FF82FDE
:1027C000E92F3091770320917603932F990F990B7E
:1027D000492F592F692F792F892F04E00E947F1BE1
:1027E000A22EB32EC42ED52EE62EF72E082F192F8B
:1027F000282D392D462D572D6B2F7A2F8F2F9E2F59
:102800000E94B61B2D833C83B42FF52FE62F7983CE
:102810008A839B83C22ED32EE42EF52E062F172FEC
:10282000A82EB92EA0E00E94C81B84F421503F4F6F
:102830004F4F5F4F6F4F7F4F8F4F9F4FC22ED32E03
:10284000E42EF52E062F172FA82EB92E2C2D3D2D58
:102850004E2D5F2D602F712F8A2D9B2D08E00E9439
:10286000981B222E332E442E552E49895A89452BEA
:1028700031F18B899C89892B11F1A12C0F2EF4E663
:10288000BF2EF02DC12CD12CE12CF12C00E010E05A
:102890002D813C814B2F5F2F6E2F79818A819B8107
:1028A0000E94AA1A822FE989FA8920833183222D76
:1028B000F4E68F9F20191124EB89FC892083942D45
:1028C000832D722D662709C06FEF70E080E090E0E5
:1028D00004C06FEF70E080E090E06C960FB6F89463
:1028E000DEBF0FBECDBFDF91CF911F910F91FF9043
:1028F000EF90DF90CF90BF90AF909F908F907F90A0
:102900006F905F904F903F902F9008954F925F92FD
:102910006F927F928F929F92AF92BF92CF92DF92EF
:10292000EF92FF920F931F93CF93DF93EC018B01F4
:1029300080ED0E94A00F803609F013C160E070E0C6
:1029400080E090E00E94F5108DEF0E94B80FA0E0AB
:10295000B0E0811520E89207A105B10509F403C193
:102960008090850390908603A0908703B0908803A1
:102970003CE2931A31E0A30AB108072E7EE0880FEB
:10298000991FAA1FBB1F7A95D1F7702DE4E6F3E0DB
:10299000448D558D052E000C660B770B032E34E10C
:1029A000440F551F661F771F3A95D1F7302D6C01E4
:1029B0007D01C41AD50AE60AF70AA68DB78DA501CE
:1029C00094010E94471AC61AD70AE80AF90A40E495
:1029D000D40EE11CF11C0B2EBFE0F594E794D794C4
:1029E000C794BA95D1F7B02DA0A10A2E000CBB0B4D
:1029F000A50194010E94471A2B013C01032E3AE0E5
:102A000075946794579447943A95D1F7302DA38DD8
:102A1000B0E00E943C1ADC01CB01072E7BE0B595AB
:102A2000A795979587957A95D1F7702DBC01CD0123
:102A300070588F4F9F4FA30192010E94E519DC014E
:102A4000CB01072E7AE0B595A795979587957A954E
:102A5000D1F7702D9C01AD01405E5F4FA18DB28D0D
:102A60000E94471ADC01CB01905EAF4FBF4FBC0103
:102A7000CD01052E5EE095958795779567955A95DA
:102A8000D1F7502DA70196010E94E5196B017C0139
:102A9000052E5FE095958795779567955A95D1F7BF
:102AA000502D9B01AC010E94E5199B01AC0168947B
:102AB00016F855954795379527951694D1F7A08D1B
:102AC000B0E00E943C1ADC01CB01689413F8B59584
:102AD000A795979587951694D1F7A7019601281B7E
:102AE000390B4A0B5B0BDA01C9011AF480E090E064
:102AF000DC0181309105A10539E1B30724F080E0C4
:102B000090E0A0E0B9E19C01AD01012E1CE05595DB
:102B10004795379527951A95D1F7102DA4E6B0E083
:102B20000E943C1A6B017C010B2EBAE0F694E794EC
:102B3000D794C794BA95D1F7B02D2097B1F001156D
:102B40001105A9F020E030E941E050E00E94F519BC
:102B5000288344E6249FC0181124F801C08280E035
:102B600007C08FEF05C08FEF03C080E001C080E099
:102B7000DF91CF911F910F91FF90EF90DF90CF9059
:102B8000BF90AF909F908F907F906F905F904F908D
:102B900008958091FA07882339F0E0918903F09134
:102BA0008A03309709F0099584EA86BF8FEF9FEF7B
:102BB00090936400809363000FC0809163009091B4
:102BC000640001979093640080936300892B21F443
:102BD00081E08093FA07089506B607FEEECF0895C8
:102BE0008091FA07882339F0E0918903F0918A03F4
:102BF000309709F0099584E986BF8FEF9FEF909396
:102C00006400809363000FC0809163009091640022
:102C100001979093640080936300892B21F481E0F5
:102C20008093FA07089506B604FCEECF0895CF937B
:102C3000C82F8091FA07882339F0E0918903F09139
:102C40008A03309709F00995C3B984E886BF8FEFEE
:102C50009FEF90936400809363000FC080916300A6
:102C60009091640001979093640080936300892B96
:102C700021F481E08093FA0703C006B607FEEECF89
:102C800091B1987F81E0983109F080E0CF9108956B
:102C9000CF93C82F8091FA07882339F0E0918903F8
:102CA000F0918A03309709F0099520E4C29FC00192
:102CB0001124846886BF8FEF9FEF90936400809308
:102CC00063000FC08091630090916400019790931E
:102CD000640080936300892B21F481E08093FA07DC
:102CE00003C006B607FEEECF83B1CF9108950E94D0
:102CF0008E10089581FD02C082FF05C0CB01BA018C
:102D00000E94F51008958FEF089581FD02C082FFA3
:102D100006C0CB01BA010E94B911862F08958FEF2A
:102D2000089582FF05C0CB01BA010E948614089560
:102D30008FEF089511B88FE280B984E086BF0895BF
:102D400094EA96BF2CED30E009C02150310931F4EE
:102D50008091FB0781608093FB07089506B607FC0E
:102D600003C02115310589F783B984E886BF8CED4E
:102D700090E008C0019731F48091FB078260809356
:102D8000FB07089506B607FC02C0009799F708955F
:102D900084E986BF089583B984E886BF8CED90E00E
:102DA00008C0019731F48091FB0784608093FB0792
:102DB000089506B607FC02C0009799F708950F938F
:102DC0001F93CF93DF938C01D62F88E70E94A01624
:102DD00080E00E94CB16C0E007C0F801EC0FF11DA7
:102DE00080810E94CB16CF5FCD17B8F30E94C81622
:102DF000DF91CF911F910F910895EF92FF920F9362
:102E00001F93CF93DF937C018B0188E70E94A0166C
:102E100080E40E94CB16C0E0D0E007C0F701EC0FC1
:102E2000FD1F80810E94CB162196C017D107B0F3F9
:102E30000E94C816DF91CF911F910F91FF90EF90E4
:102E40000895CF93DF9300D000D01F92CDB7DEB7A7
:102E5000813818F5683008F5EBE8F7E08083618386
:102E60006055698391E29A8392E0980F9F709B83EB
:102E700090E00296807F99279595879595958795FF
:102E80009595879595958795805F8C838FE78D8342
:102E900065E0CE0101960E94DF160F900F900F9013
:102EA0000F900F90DF91CF910895982F990F980F61
:102EB000892F880F0E942117089560E080E00E940A
:102EC000551708950F931F93CF93C0E015C080E866
:102ED000C89F8001112405571C4F80E8F80111920A
:102EE0008A95E9F76C2F80E00E94551760E870E042
:102EF000C8010E94FD16CF5FC83048F30E945D17DD
:102F0000CF911F910F9108951F93CF93DF93CDB76A
:102F1000DEB76C970FB6F894DEBF0FBECDBF182F8B
:102F20000E949A1620E00EC0822F90E0FC01E4542B
:102F3000FB4FE491A1E0B0E0AC0FBD1FA80FB91F9B
:102F4000EC932F5F2B3180F31C8F6CE1CE01019647
:102F50000E94DF160E9462176C960FB6F894DEBFCF
:102F60000FBECDBFDF91CF911F910895CF93DF9317
:102F70001F92CDB7DEB7813019F08FEA898302C086
:102F80008EEA898361E0CE0101960E94DF160F90E0
:102F9000DF91CF910895CF93DF9300D0CDB7DEB707
:102FA00091E899838A8362E0CE0101960E94DF1640
:102FB0000F900F90DF91CF910895DF92EF92FF92E3
:102FC0000F931F93CF93DF93CDB7DEB72C970FB638
:102FD000F894DEBF0FBECDBF893009F118F48830F8
:102FE00039F053C08A30F1F18D3009F448C04DC03A
:102FF0000BE817E0D8018C919091650011966C91C7
:10300000891B0E94551780E20E94DD17F80180811C
:10301000909165006181891B0E9455173BC1809189
:103020008B0790916500292F30E0220F331F220F6C
:10303000331FB901680F711D45E150E07A01E21AB2
:10304000F30A6E157F0540F4990F990F60918C0774
:10305000890F0E9455171EC160918C0785E10E945F
:10306000551718C180918C07873008F013C1609103
:103070006500680F80918B070E9455170BC1609106
:103080008C0780E00E94551705C140918B074A3795
:1030900008F000C1803208F4FDC08052E9E2F2E09D
:1030A000E4918E1798F422C0F901EE0FFF1FE85D3E
:1030B000FD4FE491F0E0B097282F30E0E217F307DE
:1030C00019F4FB0184910FC09F5F01C090E0292F8C
:1030D00030E0B901660F771F675D7D4FFB015491AA
:1030E0005F3F11F78FEF8F3F09F4D4C090916500D7
:1030F000923009F0A0C0242F30E0245F3F4F2138E8
:10310000310508F0C7C050E054C0052F10E0F801A9
:10311000EE0FFF1FEE24E394F12CEC0EFD1EEE0DDE
:10312000FF1D11821082282F30E0F901EE0FFF1FE2
:10313000E20FF31FEE0FFF1FE00FF11FE05CFD4FEA
:10314000D49090E033C0692F70E02D2D30E0092E2F
:1031500002C0359527950A94E2F720FF26C0660F36
:10316000771FE1E0F0E09F01062E02C0220F331F1F
:103170000A94E2F7D801AA0FBB1FEE24E394F12CC6
:10318000EC0EFD1EAE0DBF1DED90FC901197E22AD6
:10319000F32A6F5F7F4F9F0102C0220F331F6A9592
:1031A000E2F72E293F292D933C939F5F983058F2E8
:1031B0005F5F563008F4A9CF50E037C020918C07EC
:1031C00030E0C9010196E52FF0E0EE0FFF1FBF01CF
:1031D000640F711DA1E0B0E0AC0FBD1FEA0FFB1F33
:1031E000A081B1819695982F8827979587958557C7
:1031F0009C4FFC01E60FF71FB0838B010F5F1F4F41
:10320000800F911FFC01B0833695322F222737950E
:103210002795C90185579C4F680F791FFB01A08333
:10322000F801E80FF91FA0835F5F563038F2445F62
:1032300040938B072FC0242F30E02A5F3F4F213867
:10324000310540F590E021C060918C0770E0292F96
:1032500030E0D901A40FB11DE82FF0E08F01000F7D
:10326000111FE00FF11FEE0FFF1FE20FF31FE05CD5
:10327000FD4FE4917695762F66277795679565578C
:103280007C4FA60FB71FEC939F5F9630E8F24A5F22
:1032900040938B072C960FB6F894DEBF0FBECDBFC0
:1032A000DF91CF911F910F91FF90EF90DF900895E4
:1032B000809365000895CF93DF93EC0103C02196BE
:1032C0000E94DD1788818111FACFDF91CF91089597
:1032D000CF93DF93FC0103C00E94DD17FE01EF01D5
:1032E000219684918111F8CFDF91CF9108950F93AA
:1032F0001F93CF93DF9300D000D000D0CDB7DEB7BF
:103300009F938F9386E493E09F938F938E010F5F3B
:103310001F4F1F930F930E94131CC8010E945B193B
:103320000F900F900F900F900F900F9026960FB662
:10333000F894DEBF0FBECDBFDF91CF911F910F91EB
:1033400008950F931F93CF93DF93CDB7DEB72B97DD
:103350000FB6F894DEBF0FBECDBF9F938F937F93C0
:103360006F9389E493E09F938F938E010F5F1F4FBC
:103370001F930F930E94131CC8010E945B190FB684
:10338000F894DEBF0FBECDBF2B960FB6F894DEBF0C
:103390000FBECDBFDF91CF911F910F910895CF93B5
:1033A000C0E00FC06C2F80E00E94551720E8C29F3C
:1033B000C001112460E870E085579C4F0E94FD1603
:1033C000CF5FC83078F3CF910895DB018F939F933F
:1033D0000E943C1ABF91AF91A29F800D911DA39FA7
:1033E000900DB29F900D11240895A1E21A2EAA1BF0
:1033F000BB1BFD010DC0AA1FBB1FEE1FFF1FA217A5
:10340000B307E407F50720F0A21BB30BE40BF50BA1
:10341000661F771F881F991F1A9469F7609570952A
:10342000809590959B01AC01BD01CF010895052EBB
:1034300097FB1EF400940E942E1A57FD07D00E949D
:10344000F51907FC03D04EF40C942E1A50954095B4
:10345000309521953F4F4F4F5F4F08959095809540
:10346000709561957F4F8F4F9F4F0895EE0FFF1F0F
:103470000590F491E02D09940E94D41BA59F900D16
:10348000B49F900DA49F800D911D11240895B7FF46
:103490000C943C1A0E943C1A821B930B0895DF93F4
:1034A000CF931F930F939A9DF02D219FF00D8B9D2D
:1034B000F00D8A9DE02DF10D039FF00D029FE00DB0
:1034C000F11D4E9DE00DF11D5E9DF00D4F9DF00D27
:1034D0007F936F93BF92AF925F934F93D5010E94FA
:1034E000D41B8B01AC01D7010E94D41BEB01E80F68
:1034F000F91FD6010E949F1A2F913F91D6010E9479
:10350000D41BC60FD71FE81FF91FAF91BF910E94B0
:103510009F1A2F913F910E94D41BC60FD71FE81FFF
:10352000F91FD6010E94D41BE60FF71F9801BE01B8
:10353000CF0111240F911F91CF91DF9108950E9427
:10354000D41B460F571FC81FD91F08F43196089582
:10355000689401C0E894F92FF12B12F00C94DC1A56
:10356000A0E0B0E0E6EBFAE10C944E1B092E0594C6
:1035700022F40E94381B112392F4F0E80F26FFEF8B
:10358000E094F09400951095B094C094D094A194D8
:10359000BF0ACF0ADF0AEF0AFF0A0F0B1F0B0E94B8
:1035A000E71A07FC0E94381BCDB7DEB7ECE00C949D
:1035B0006A1B689401C0E8948F929F92CF93DF9327
:1035C0000E94E71ADF91CF919F908F9008958824F1
:1035D0009924F401E401B0E49F93AA279A158B047F
:1035E0009C04ED05FE05CF05D007A10798F4AD2F8B
:1035F000DC2FCF2FFE2FE92D982C892E982F872F87
:10360000762F652F542F432F322F2227B85031F7B2
:10361000BF9127C01B2EBF91BB27220F331F441F12
:10362000551F661F771F881F991F881C991CEE1F46
:10363000FF1FCC1FDD1FAA1FBB1F8A149B04EC05B4
:10364000FD05CE05DF05A007B10748F08A189B08E5
:10365000EC09FD09CE09DF09A00BB10B21601A941A
:10366000E1F62EF49401AF01BE01CD01000C0895E6
:1036700060957095809590953095409550952195E1
:103680003F4F4F4F5F4F6F4F7F4F8F4F9F4F08956B
:103690002F923F924F925F926F927F928F929F9262
:1036A000AF92BF92CF92DF92EF92FF920F931F9350
:1036B000CF93DF93CDB7DEB7CA1BDB0B0FB6F89401
:1036C000DEBF0FBECDBF09942A88398848885F8441
:1036D0006E847D848C849B84AA84B984C884DF80B2
:1036E000EE80FD800C811B81AA81B981CE0FD11D96
:1036F0000FB6F894DEBF0FBECDBFED0108950F9356
:10370000083090F0982F872F762F652F542F432F56
:10371000322F22270850F4CF220F331F441F551F8A
:10372000661F771F881F991F0A95B2F70F9108959A
:1037300097FB10F8169400080F93083098F0085083
:10374000232F342F452F562F672F782F892F902D19
:10375000F4CF0594979587957795679557954795F5
:10376000379527950A95AAF70F9108952A0D3B1DC5
:103770004C1D5D1D6E1D7F1D801F911F08952A1910
:103780003B094C095D096E097F09800B910B089577
:103790000024A7FD00942A17300540055005600558
:1037A0007005800590050895A29FB001B39FC001E8
:1037B000A39F700D811D1124911DB29F700D811D5D
:1037C0001124911D08954532510520F4423010F026
:1037D0000C94EE1BFB011082CB010895BB274A30ED
:1037E00031F4992322F4BDE2909581959F4F0C947A
:1037F000FA1BBB27FB015527AA27880F991FAA1F71
:10380000A41710F0A41B83955051B9F7A05DAA33FB
:1038100008F0A95DA193009779F7B111B1931192C6
:10382000CB010C942C1EAEE0B0E0E9E1FCE10C947D
:10383000561B0D891E8986E08C831A8309838FEFBE
:103840009FE79E838D83AE01475E5F4F6F89788DC2
:10385000CE0101960E94351CEF81F885E00FF11F23
:1038600010822E96E4E00C94721BABE0B0E0EBE328
:10387000FCE10C94481B6C017B018A01FC0117825E
:103880001682838181FFCCC1CE0101963C01F601F5
:103890009381F70193FD859193FF81917F018823A7
:1038A00009F4BAC1853239F493FD859193FF819172
:1038B0007F01853229F4B60190E00E943C1EE7CFDB
:1038C000912C212C312CFFE1F315D8F08B3279F0BB
:1038D00038F4803279F08332A1F4232D20611DC0A9
:1038E0008D3261F0803369F4232D216016C0832D61
:1038F0008260382EE32DE4603E2E2AC0F32DF8605E
:103900001DC037FC2DC020ED280F2A3040F08E322C
:10391000B9F436FC81C1232D2064322E19C036FE45
:1039200006C08AE0989E200D1124922E11C0EAE074
:103930002E9E200D1124222EF32DF0623F2E08C062
:103940008C3621F4832D8068382E02C0883641F4ED
:10395000F70193FD859193FF81917F018111B3CF91
:10396000982F9F7D9554933028F40C5F1F4F9FE351
:1039700099830DC0833631F0833771F0833509F0B8
:1039800059C021C0F801808189830E5F1F4F8824B0
:103990008394912C530113C02801F2E04F0E511C67
:1039A000F801A080B18036FE03C0692D70E002C02E
:1039B0006FEF7FEFC5010E94211E4C018201F32DA4
:1039C000FF773F2E16C0280122E0420E511CF8015D
:1039D000A080B18036FE03C0692D70E002C06FEF99
:1039E0007FEFC5010E94161E4C01F32DF0683F2E9B
:1039F000820133FC1BC0822D90E088169906B0F43A
:103A0000B60180E290E00E943C1E2A94F4CFF501BA
:103A100037FC859137FE81915F01B60190E00E94ED
:103A20003C1E21102A9421E0821A910881149104ED
:103A300071F7E8C0843611F0893641F5F80137FE98
:103A400007C060817181828193810C5F1F4F08C024
:103A500060817181072E000C880B990B0E5F1F4F40
:103A6000F32DFF763F2E97FF09C0909580957095B6
:103A700061957F4F8F4F9F4FF0683F2E2AE030E0D7
:103A8000A3010E94781E882E861845C0853731F420
:103A9000232D2F7EB22E2AE030E025C0932D997F72
:103AA000B92E8F36C1F018F4883579F0B5C080375B
:103AB00019F0883721F0B0C0E92FE061BE2EB4FEC6
:103AC0000DC0FB2DF460BF2E09C034FE0AC0292FA3
:103AD0002660B22E06C028E030E005C020E130E0CC
:103AE00002C020E132E0F801B7FE07C060817181B9
:103AF000828193810C5F1F4F06C06081718180E0DD
:103B000090E00E5F1F4FA3010E94781E882E86183A
:103B1000FB2DFF773F2E36FE0DC0232D2E7FA22ECC
:103B2000891458F434FE0BC032FC09C0832D8E7EFC
:103B3000A82E05C0B82CA32C03C0B82C01C0B92CEA
:103B4000A4FE0FC0FE01E80DF11D8081803321F439
:103B50009A2D997EA92E09C0A2FE06C0B394B394F3
:103B600004C08A2D867809F0B394A3FC11C0A0FE8E
:103B700006C0B21488F4280C922C9B180EC0B21404
:103B800060F4B60180E290E00E943C1EB394F7CF4F
:103B9000B21418F42B1802C0982C212CA4FE10C0CB
:103BA000B60180E390E00E943C1EA2FE17C0A1FC7B
:103BB00003C088E790E002C088E590E0B6010CC041
:103BC0008A2D867859F0A1FE02C08BE201C080E206
:103BD000A7FC8DE2B60190E00E943C1E891438F4E7
:103BE000B60180E390E00E943C1E9A94F7CF8A943D
:103BF000F301E80DF11D8081B60190E00E943C1EAA
:103C00008110F5CF222009F442CEB60180E290E087
:103C10000E943C1E2A94F6CFF6018681978102C04D
:103C20008FEF9FEF2B96E2E10C94641BFC01059053
:103C3000615070400110D8F7809590958E0F9F1FAE
:103C40000895FC016150704001900110D8F78095F3
:103C500090958E0F9F1F0895DC01FC01672F7191D5
:103C60007723E1F7329704C07C916D937083629162
:103C7000AE17BF07C8F308950F931F93CF93DF9339
:103C8000FB01238121FD03C08FEF9FEF2CC022FF9A
:103C900016C046815781248135814217530744F469
:103CA000A081B1819D012F5F3F4F318320838C9391
:103CB000268137812F5F3F4F3783268314C08B01C6
:103CC000EC01FB010084F185E02D0995892BE1F6DB
:103CD000D80116968D919C911797019617969C93F3
:103CE0008E931697CE01DF91CF911F910F9108957A
:103CF000FA01AA27283051F1203181F1E8946F931D
:103D00006E7F6E5F7F4F8F4F9F4FAF4FB1E03ED0C2
:103D1000B4E03CD0670F781F891F9A1FA11D680F60
:103D2000791F8A1F911DA11D6A0F711D811D911D93
:103D3000A11D20D009F468943F912AE0269F112408
:103D40003019305D3193DEF6CF010895462F47706C
:103D5000405D4193B3E00FD0C9F7F6CF462F4F70C7
:103D6000405D4A3318F0495D31FD4052419302D025
:103D7000A9F7EACFB4E0A6959795879577956795CB
:103D8000BA95C9F700976105710508959B01AC01CB
:103D90000A2E06945795479537952795BA95C9F7F2
:103DA000620F731F841F951FA01D0895F894FFCF05
:103DB000010101FFFF0100010102020304040506E5
:103DC000060707080909010204084D6F0054750031
:103DD00057650054680046720053610053750054E3
:103DE00079706520276827206F7220274827206177
:103DF0006E6420707265737320454E544552206680
:103E00006F722068656C70203A290D0A000D0A5700
:103E1000656C636F6D6520746F2055736572204803
:103E2000656C702E20456E74657220746865206E16
:103E3000756D626572732062656C6F7720746F2098
:103E400061637469766174652066756E6374696F09
:103E50006E7320616E6420707265737320456E749A
:103E600065720D0A00273027202D204F4C45442035
:103E7000646973706C6179204F4E0D0A00273127F9
:103E8000202D204F4C454420646973706C6179206B
:103E90004F46460D0A00273227202D204C4544204E
:103EA000646973706C6179204F4E0D0A00273327C7
:103EB000202D204C454420646973706C6179204F3B
:103EC00046460D0A00273427202D204C4544206209
:103ED0006C696E6B730D0A00273527202D204C4529
:103EE0004420646F65736E277420626C696E6B0D7D
:103EF0000A00273627202D20444154412073656E47
:103F0000640D0A00273727202D20444154412064A6
:103F10006F6E27742073656E640D0A0027382720A2
:103F20002D204F4C454420646973706C6179204F9B
:103F30004E2C204C454420646973706C6179204F8D
:103F40004E2C204C454420626C696E6B732C2044CF
:103F50004154412073656E640D0A00273927202DD6
:103F6000204F4C454420646973706C6179204F4642
:103F7000462C204C454420646973706C6179204F55
:103F800046462C204C454420646F65736E27742090
:103F9000626C696E6B2C204441544120646F6E2723
:103FA000742073656E640D0A005541525420636D90
:103FB00064203D2030202D3E200055415254206386
:103FC0006D64203D2031202D3E200055415254206B
:103FD000636D64203D2032202D3E20005541525417
:103FE00020636D64203D2033202D3E20005541523A
:103FF0005420636D64203D2034202D3E2000554127
:10400000525420636D64203D2035202D3E20005504
:1040100041525420636D64203D2036202D3E200007
:104020005541525420636D64203D2037202D3E20A1
:10403000005541525420636D64203D2038202D3EB0
:1040400020005541525420636D64203D2039202DBD
:104050003E200052433520636D64203D20003A002D
:104060002F00323000202F20445331384232303A72
:1040700020002D002E00B04300202F20424D45325D
:1040800038303A2000B043202F2000685061202FA4
:0E4090002000250D0A00256900256C6900003E
:00000001FF
