S017000050726163615F6479706C6F6D6F77612E73726563EB
S11300000C946C020C940E070C9489020C948902D3
S11300100C941D070C9489020C94D3050C9489024A
S11300200C9489020C9489020C94DA040C948902CD
S11300300C9489020C948B0F0C944D0F0C94890230
S11300400C9489020C9489020C9489020C94890200
S11300500C9489024B08500855085A085F08640834
S1130060690878087D08820887088C089108960832
S1130070C0F9A4B0999282D88090FF7F0000004418
S113008041544120646F6E27742073656E6400448C
S11300904154412073656E642020202020200044B8
S11300A041544120646F6E27742073656E6400446C
S11300B04154412073656E64202020202020004498
S11300C041544120646F6E27742073656E6400444C
S11300D04154412073656E64202020202020004478
S11300E041544120646F6E27742073656E6400442C
S11300F04154412073656E64202020202020004953
S113010052636F6E0020202020200044415441207F
S1130110646F6E27742073656E64004441544120FB
S113012073656E6420202020202000444154412027
S1130130646F6E27742073656E64004441544120DB
S113014073656E64202020202020005375005361C5
S1130150004672005468005765005475004D6F00E6
S1130160B043002E0020002020002D00202D00444C
S11301705331384232302073656E2E543A20004495
S113018041544120646F6E27742073656E640020AF
S1130190250030002E0048756D69646974793A2031
S11301A000206850610030002E0050726573737532
S11301B072653A20202000B0430030002E005465C0
S11301C06D70657261747572653A20202020005448
S11301D0656D70657261747572653A2020005465AE
S11301E06D70657261747572653A20202D002D2D35
S11301F02D2D424D453238302073656E736F722D4C
S11302002D2D2D002020003230002F002F002F0034
S1130210446174653A200030003A0030003A0030FE
S11302200054696D653A2000BC5F9C60A4618462DF
S1130230B6639664B0659F66B5678968A969FFFF70
S11302400000000000000000002F00000000070074
S1130250070000147F147F1400242A7F2A120062EE
S1130260640813230036495522500000050300009A
S113027000001C224100000041221C000014083E22
S113028008140008083E0808000000A060000008E8
S1130290080808080000606000000020100804023C
S11302A0003E5149453E0000427F400000426151FA
S11302B04946002141454B31001814127F10002794
S11302C045454539003C4A49493000017109050357
S11302D000364949493600064949291E0000363688
S11302E000000000563600000008142241000014EB
S11302F014141414000041221408000201510906C8
S113030000324959513E007C1211127C007F494948
S11303104936003E41414122007F4141221C007F79
S113032049494941007F09090901003E4149497A87
S1130330007F0808087F0000417F41000020404101
S11303403F01007F08142241007F40404040007F6D
S1130350020C027F007F0408107F003E4141413EB1
S1130360007F09090906003E4151215E007F0919F9
S113037029460046494949310001017F0101003FF6
S11303804040403F001F2040201F003F4038403F76
S113039000631408146300070870080700615149DA
S11303A0454300007F41410000552A552A5500006D
S11303B041417F00000402010204004040404040EB
S11303C0000001020400002054545478007F484483
S11303D0443800384444442000384444487F0038BA
S11303E05454541800087E0901020018A4A4A47CE3
S11303F0007F080404780000447D400000408084AD
S11304007D00007F102844000000417F4000007CF4
S113041004180478007C0804047800384444443800
S113042000FC242424180018242418FC007C08044C
S1130430040800485454542000043F444020003C25
S11304404040207C001C2040201C003C4030403CAC
S1130450004428102844001CA0A0A07C004464543C
S11304604C440000087741000000006300000000D5
S113047041770800000804080804003A4040207A44
S1130480003D4040403D002154545479007D1211F8
S1130490127D003944444439003D4242423D000249
S11304A005020000007E01495573007C1010081CF1
S11304B0003048204830005C6202625CAE2000B02C
S11304C0C8001040813FA1A6A83FA4D300D5F0D90D
S11304D022DA12DB208D140011241FBECFE5D8E0F0
S11304E0DEBFCDBF13E0A0E6B0E0E8ECFDE302C060
S11304F005900D92A835B107D9F728E0A8E5B3E037
S113050001C01D92A730B207E1F70E94FF0B0C94C3
S1130510E21E0C940000CF93DF93EC01E0E0F0E0E6
S113052080E015C0DE01AE0FBF1F2C9198E0382F7C
S11305303227432F417030FF02C038E1832786956C
S1130540413009F480682695915089F73196E61771
S1130550F70741F7DF91CF9108950F931F93CF933E
S1130560DF93CDB7DEB760970FB6F894DEBF0FBE4A
S1130570CDBF90E1E6E6F0E0DE01119601900D9228
S11305809A95E1F7DB019C911196EC911197F0E0BB
S1130590FE2FEE27E92B803161F4EE7FEE0FFF1F73
S11305A0EE0FFF1FEE0FFF1F16969C91E91BF1093A
S11305B03C96FF233CF491E0DA019C93F195E1959C
S11305C0F10902C0DA011C92883281F4DB0114962D
S11305D08C91982F9076903649F086FF02C0EE7F7A
S11305E005C085FF02C0EC7F01C0E87FCF01929572
S11305F082958F7089279F708927D9018C93EF701A
S1130600FF2781E090E08C0F9D1FE80FF91F808188
S1130610D8018C9380E060960FB6F894DEBF0FBECD
S1130620CDBFDF91CF911F910F9108950F931F9329
S1130630CF93DF93EC018B01B80188810E945304AE
S1130640888381508D3F30F4F8018081883211F025
S1130650803191F7DF91CF911F910F9108951F93EE
S1130660CF93DF93CDB7DEB729970FB6F894DEBFEB
S11306700FBECDBF8FEF898710E029C0BE016F5F29
S11306807F4FCE0109960E94160389858F3F21F181
S11306908E3F11F140E018C0812F90E0242F30E00C
S11306A0E1E0F0E0EC0FFD1FE20FF31F5081880F33
S11306B0991F880F991F880F991F8856984FFC011E
S11306C0E20FF31F50834F5F483030F31F5F89857B
S11306D0882311F0143090F2812F29960FB6F894E4
S11306E0DEBF0FBECDBFDF91CF911F9108950F9351
S11306F01F93CF93DF93D82F8B010E940504C82F3B
S113070081110DC00E94FB03882359F0B80184E4D1
S11307100E94A304D13031F00E94FE0303C0C1E063
S113072001C0C2E08C2FDF91CF911F910F910895EA
S11307306F927F928F929F92AF92BF92CF92DF92ED
S1130740EF92FF920F931F93CF93DF93CDB7DEB752
S113075029970FB6F894DEBF0FBECDBF6C015B01C5
S11307604A0139010E940504811128C0B6018EEBAB
S11307700E94A30410E00CC0E12EF12C0E944F044F
S1130780E1E0F0E0EC0FFD1FEE0DFF1D80831F5F25
S1130790193090F369E070E0CE0101960E948B025B
S11307A0F82E81110EC083019401A501BE016F5F73
S11307B07F4FF60180810E94AD0207C0FF24F394AD
S11307C004C00F2EF3E0FF2EF02D8F2D29960FB6C7
S11307D0F894DEBF0FBECDBFDF91CF911F910F9173
S11307E0FF90EF90DF90CF90BF90AF909F908F904D
S11307F07F906F90089580B38078089582B3806865
S113080082BB81B3806881BB089582B38F7782BB3A
S113081081B3806881BB8FE295E00197F1F79FB7C0
S1130820F89481B38F7781BBE3EFEA95F1F7000089
S113083080B380789FBFE8E7F4E03197F1F700C018
S1130840879B81E008952FB7F89491B3906891BB8A
S113085094E09A95F1F7882319F091B39F7791BBAF
S113086097E39A95F1F70000879B80E096EA9A95C2
S1130870F1F791B39F7791BB2FBF0895CF93DF9387
S1130880C82FD8E08C2F81700E942304C695811153
S1130890C068D150B9F78C2FDF91CF9108958FEFB5
S11308A00E943E040895DF92EF92FF920F931F93EC
S11308B0CF93DF93D82E8B010E940504811138C099
S11308C080EF0E943E04E12C6894FF24F6F8D8E0FF
S11308D081E00E942304C82F81E00E94230488231E
S11308E019F0CC2389F026C0C1110EC0FD1438F0D4
S11308F0F801808180FF08C0FD1004C005C0EF2C02
S1130900C1E002C0EF2CC1E08C2F0E942304F80147
S1130910908196959083CC2311F090689083FA94FB
S1130920D150B1F60F5F1F4FF110D1CF8E2D03C000
S11309308FEF01C08EEFDF91CF911F910F91FF9048
S1130940EF90DF9008950F931F93CF93DF93D82FE9
S11309508B010E9405040115110561F085E50E94D3
S11309603E04C8E0F80181918F010E943E04C15009
S1130970C9F703C08CEC0E943E048D2F0E943E04F4
S1130980DF91CF911F910F9108958FEF87BB88BBA3
S11309908AB38F608ABB8BB38F608BBB83B788604D
S11309A083BF83B7856083BF87E28CBF89B78260CA
S11309B089BF08951F920F920FB60F9211248F933F
S11309C09F93EF93FF938BB38F608BBB80915803FE
S11309D0811108C0E091B907F0E0E059FF4FE491BC
S11309E0E8BB1EC0813049F4E091BA07F0E0E05959
S11309F0FF4FE491E068E8BB13C0823041F4E0911A
S1130A00BB07F0E0E059FF4FE491E8BB09C0833035
S1130A1039F4E091B807F0E0E059FF4FE491E8BB06
S1130A209BB3E0915803F0E0EA58FF4F8081809532
S1130A3089238BBB809158038F5F80935803843044
S1130A4010F010925803FF91EF919F918F910F90A6
S1130A500FBE0F901F9018959C0140E050E063E397
S1130A607BE280E090E00E94231A822F203148F03C
S1130A7030E020513109C90199230CF40196959570
S1130A80879580B9089584EA86BF06B607FEFDCF30
S1130A90089584E986BF06B604FCFDCF089583B9A2
S1130AA084E886BF06B607FEFDCF089520E4829F42
S1130AB0C0011124846886BF06B607FEFDCF83B14A
S1130AC00895EF92FF920F931F93CF93DF93F82E25
S1130AD0D62FC42F89010E9443058F2D0E944F05F4
S1130AE08D2F0E944F050AC078018FEFE81AF80A8B
S1130AF0F80180810E944F05CD2F8701DFEFDC0FC5
S1130B00C111F2CF0E944905DF91CF911F910F913E
S1130B10FF90EF900895EF92FF920F931F93CF935E
S1130B20DF93D82FF62EC42F89010E9443058D2F01
S1130B300E944F058F2D0E944F050E94430581E0BE
S1130B408D0F0E944F050EC078018FEFE81AF80A46
S1130B5081E0D11101C080E00E945605F801808334
S1130B60CD2F8701DFEFDC0FC111EECF0E944905C5
S1130B70DF91CF911F910F91FF90EF90089581B372
S1130B808F7B81BB82B3806482BB8EB582608EBD55
S1130B908EB58F7B8EBD1092BF0789B7806289BFE7
S1130BA01092C00708951F920F920FB60F9211244E
S1130BB02F933F938F939F9386B597B520915D03B1
S1130BC030915E03821B930B26B537B530935E03D9
S1130BD020935D033EB520E423272EBD803A2AE00E
S1130BE0920710F01092BF072091BF07222319F03B
S1130BF021E020935C032091BF07211111C01092C2
S1130C005B0310925A03109259032EB520642EBD33
S1130C102091BF072F5F2093BF0722E020935C033E
S1130C2020915C03213009F067C0833B23E09207E5
S1130C3010F410925C03803A2AE0920710F01092AC
S1130C405C0320915C03213009F056C08A3D954035
S1130C5028F08091BF078F5F8093BF078091BF0703
S1130C60823008F444C08091BF0780FD40C0809169
S1130C705A0390915B03880F991F90935B038093B1
S1130C805A030EB406FE05C0816090935B03809303
S1130C905A03809159038F5F809359038D3038F143
S1130CA08091C00781111EC080915A0390915B030B
S1130CB0282F2F732093BE079C01207C37700024BB
S1130CC0220F331F001C220F331F001C232F302D33
S1130CD02093BD0788279870892F869586958695D9
S1130CE08093BC0710925C0381E08093C0078091DD
S1130CF0BF078F5F8093BF0780915C03811105C09C
S1130D001092BF078EB58F7B8EBD9F918F913F91BF
S1130D102F910F900FBE0F901F90189581E0809334
S1130D2062008CE491E00E94210F08951092620009
S1130D3083E691E00E94210F089581E080936E0381
S1130D408BE791E00E94210F089510926E0385B302
S1130D50806485BB8EE891E00E94210F089581E0B4
S1130D6080936B0367E080E00E9461178FEA90E054
S1130D700E9474198FEF91E00E94210F0895109240
S1130D806B0367E080E00E9461178FE990E00E94A6
S1130D90741987E492E00E94210F089580E00E9474
S1130DA0C2178BE191E00E94210F089581E00E9417
S1130DB0C21783E391E00E94210F089580E00E940E
S1130DC0C21781E08093620080936E0380936B036B
S1130DD067E080E00E9461178FE890E00E94741938
S1130DE082ED91E00E94210F089581E00E94C217D4
S1130DF01092620010926E0385B3806485BB1092DA
S1130E006B0367E080E00E9461178FE790E00E9427
S1130E10741981E192E00E94210F08951F920F92AC
S1130E200FB60F9211248F9381E0809360008F910D
S1130E300F900FBE0F901F9018951F920F920FB630
S1130E400F9211248F939F938091690390916A0369
S1130E50009729F0019790936A0380936903809126
S1130E60670390916803009729F0019790936803B2
S1130E70809367038091650390916603009729F03E
S1130E800197909366038093650380916303909127
S1130E906403009729F0019790936403809363039C
S1130EA09F918F910F900FBE0F901F901895AF9246
S1130EB0BF92CF92DF92EF92FF920F931F93CF9343
S1130EC05C012115310511F424E130E0011511050F
S1130ED011F406E910E0FB01C081C42369F4F501B3
S1130EE08081811109C081E080838FE090E090933C
S1130EF06A038093690359C0F5018081882309F44A
S1130F0054C0C11111C0813079F4409169035091EA
S1130F106A03452B49F482E0808385E090E0909356
S1130F206A038093690341C0CC2361F0823050F09E
S1130F30843040F4E114F10411F0F7010995F5014E
S1130F40108233C0C11110C0823071F44091690322
S1130F5050916A03452B41F483E0F501808310939B
S1130F606A030093690321C0C1110CC0833051F49A
S1130F704091690350916A03452B21F484E0F50103
S1130F80808313C0C11111C0843079F48091690346
S1130F9090916A03892B49F430936A03209369037F
S1130FA0C114D10411F0F6010995F5018081833053
S1130FB010F0C1111082CF911F910F91FF90EF900B
S1130FC0DF90CF90BF90AF900895CF93C82F682F34
S1130FD080E00E9461178FE691E00E94741980916D
S1130FE0D707882369F09091DB079A3048F46C2F77
S1130FF08EE00E9461178CE691E00E9474190EC085
S1131000882361F08091DB078A3040F06C2F8EE0FA
S11310100E9461178AE691E00E9474198091D707B3
S113102081110DC09091DB079A3048F46C2F8EE04B
S11310300E94611787E691E00E9474190EC0811125
S11310400CC08091DB078A3040F06C2F8EE00E9448
S1131050611785E691E00E9474198091DB0790E0A6
S11310600E94831983E691E00E9474198091D50748
S113107090E00E94831980E691E00E947419CF9158
S1131080089590E0FC013197E730F10530F5E65D15
S1131090FF4F0C94421A8DE591E00E947419089553
S11310A08AE591E00E947419089587E591E00E9411
S11310B07419089584E591E00E947419089581E5F6
S11310C091E00E94741908958EE491E00E947419CD
S11310D008958BE491E00E947419089590E0FC0156
S11310E03197E730F10530F5EF5CFF4F0C94421A6D
S11310F08AE790E00E94210F08958DE790E00E9416
S1131100210F089580E890E00E94210F089583E85C
S113111090E00E94210F089586E890E00E94210F3C
S1131120089589E890E00E94210F08958CE890E0EA
S11311300E94210F089580916100882321F08FE897
S113114090E00E94210F109261000E94760F80931C
S11311506C0380916C03883621F080916C03883491
S113116061F58DEB90E00E94210F85E191E00E94F2
S1131170210F8DE291E00E94210F86E491E00E940C
S1131180210F8DE591E00E94210F85E791E00E94F7
S1131190210F88E891E00E94210F82EA91E00E94E9
S11311A0210F84EB91E00E94210F8CEC91E00E94CE
S11311B0210F8BE092E00E94210F80916C03803319
S11311C061F480E00E94C21789E592E00E94210F39
S11311D08BE191E00E94210F089580916C0381338B
S11311E061F481E00E94C2178BE692E00E94210F15
S11311F083E391E00E94210F089580916C03823370
S113120061F481E0809362008DE792E00E94210FF7
S11312108CE491E00E94210F089580916C03833344
S113122059F4109262008FE892E00E94210F83E645
S113123091E00E94210F089580916C03843361F43E
S113124081E080936E0381EA92E00E94210F8BE794
S113125091E00E94210F089580916C03853371F40D
S113126010926E0383EB92E00E94210F85B3806499
S113127085BB8EE891E00E94210F089580916C0354
S11312808633A1F481E080936B0367E080E00E94E1
S1131290611785EC92E00E94210F8BE391E00E949C
S11312A074198FEF91E00E94210F089580916C03CF
S11312B0873399F410926B0367E080E00E94611712
S11312C087ED92E00E94210F8BE291E00E94741955
S11312D087E492E00E94210F089580916C03883383
S11312E0D9F480E00E94C21781E080936200809369
S11312F06E0380936B0367E080E00E94611789EEC0
S113130092E00E94210F8BE191E00E94741982ED1A
S113131091E00E94210F089580916C038933E1F4D8
S113132081E00E94C2171092620010926E0385B38E
S1131330806485BB10926B0367E080E00E946117B4
S11313408BEF92E00E94210F8BE091E00E947419D0
S113135081E192E00E94210F08958091C0078111DC
S113136008C067E080E10E94611785E091E00E9477
S113137074198091C007882309F42AC18091BD079C
S1131380811121C08091BE078091BE078A30D8F4B4
S113139067E080E10E9461178FEF90E00E9474196A
S11313A080916D0381110FC08DE093E00E94210FA5
S11313B08091BE076AE070E090E00E94300F86E6FC
S11313C092E00E94210F8091BD0781110FC080918E
S11313D0BE0781110BC00E94C21780916D03811159
S11313E0E7C08BE191E00E94210FE2C08091BD072C
S11313F081110FC08091BE07813059F40E94C21739
S113140080916D038111D4C083E391E00E94210F88
S1131410CFC08091BD07811110C08091BE0782307A
S113142061F481E08093620080916D038111C0C0FA
S11314308CE491E00E94210FBBC08091BD07811113
S11314400FC08091BE07833059F4109262008091DE
S11314506D038111ADC083E691E00E94210FA8C005
S11314608091BD07811110C08091BE07843061F462
S113147081E080936E0380916D03811199C08BE7A5
S113148091E00E94210F94C08091BD07811112C088
S11314908091BE07853071F410926E0385B3806429
S11314A085BB80916D03811183C08EE891E00E9419
S11314B0210F7EC08091BD07811118C08091BE07A5
S11314C08630A1F481E080936B0367E080E00E94A2
S11314D061178FEE90E00E94741980916D03811161
S11314E067C08FEF91E00E94210F62C08091BD0719
S11314F0811117C08091BE07873099F410926B0355
S113150067E080E00E9461178FED90E00E947419FB
S113151080916D0381114CC087E492E00E94210FF9
S113152047C08091BD0781111FC08091BE078830DC
S1131530D9F480E00E94C21781E080936200809316
S11315406E0380936B0367E080E00E9461178FEC69
S113155090E00E94741980916D03811129C082ED7D
S113156091E00E94210F24C08091BD07811120C009
S11315708091BE078930E1F481E00E94C217109285
S1131580620010926E0385B3806485BB10926B0376
S113159067E080E00E9461178FEB90E00E9474196D
S11315A080916D03811104C081E192E00E94210FBA
S11315B01092C00780916D038F5F80936D0382301A
S11315C011F410926D038FEF8093BE078093BD07D3
S11315D008958091DD078A3020F48DE193E00E9424
S11315E0210F8091DD076AE070E090E00E94300FE7
S11315F088E193E00E94210F8091D8078A3020F47B
S11316008DE193E00E94210F8091D8076AE070E099
S113161090E00E94300F88E193E00E94210F8091B6
S1131620C8078A3020F48DE193E00E94210F809155
S1131630C8076AE070E090E00E94300F81E493E014
S11316400E94210F8091DC070E946E088AE193E0DA
S11316500E94210F8091CD076AE070E090E00E9423
S1131660300F8AE193E00E94210F8091C2076AE063
S113167070E090E00E94300F8AE193E00E94210F15
S11316808091DA07882321F08CE193E00E94210FF6
S11316908091DA076AE070E090E00E94300F8FE1F9
S11316A093E00E94210F8091D707882321F08CE2D8
S11316B093E00E94210F8091DB076AE070E090E0E4
S11316C00E94300F8EE293E00E94210F8091D50793
S11316D06AE070E090E00E94300F80E393E00E94A3
S11316E0210F83E393E00E94210F80915F038823FD
S11316F021F08CE293E00E94210F8091C6076AE0FA
S113170070E0082E000C990B0E94300F8EE293E0DB
S11317100E94210F8091C9078A3024F48DE193E05F
S11317200E94210F8091C9076AE070E0082E000C26
S1131730990B0E94300F8FE393E00E94210F6AE01F
S113174070E08091CA079091CB070E94300F8EE21F
S113175093E00E94210F8091C1078A3020F48DE12B
S113176093E00E94210F8091C1076AE070E090E04D
S11317700E94300F85E493E00E94210F8091C407FA
S11317806AE070E090E00E94300F8EE293E00E94E5
S1131790210F8091C407843640F48091C5078A30B4
S11317A020F48DE193E00E94210F8091C5076AE047
S11317B070E090E00E94300F8CE493E00E94210FCF
S11317C008959DEC899F912D112496959695969553
S11317D020E1929FA0011124990F292F220F220F9B
S11317E0920F891B842B0895982F92959F70990FBF
S11317F0292F220F220F920F8F70890F08958AB319
S11318008F708ABB84B38F7784BB8BB3806F8BBBA1
S113181085B3806885BB84B3806484BB85B38064EE
S113182085BB85B7826085BF8BB780648BBF82B36D
S1131830846082BB85B5886085BD85B5876085BDBC
S11318408CE683BD80E889BF0E942F038093D6076E
S113185084E690E00E942C050E9483168FEA0E9481
S1131860901784E60E94D71781E00E9464190E94B1
S1131870C5040E94BF0583E290E00E94040F78949F
S113188080916203813021F587E10E94E10BCEEC67
S1131890D7E08A8386E30E94E10B89838EE10E946C
S11318A0E10B888385E00E94E10B8B838CE00E942E
S11318B0E10B8C8381E00E94E10B8D8388E10E941F
S11318C0E10B8E839E0147E060E080ED0E9461059C
S11318D00F2EF6EDCF2EF6E0DF2EF02D0F2EFEECC0
S11318E0EF2EF6E0FF2EF02D0FE010E022E030E0C6
S11318F040E169E370E08CEC97E00E9457070F2EFB
S1131900F6E9CF2EF6E0DF2EF02D0F2EFEE8EF2EB7
S1131910F6E0FF2EF02D22E030E040E269E370E0D3
S11319208EED97E00E9457070F2EF5EACF2EF6E0D2
S1131930DF2EF02D0F2EFDE9EF2EF6E0FF2EF02D19
S113194022E030E040E469E370E089ED97E00E9432
S113195057070F2EFFEBCF2EF6E0DF2EF02D0F2EC4
S1131960FFEAEF2EF6E0FF2EF02D22E030E040E813
S113197069E370E083EC97E00E9457070F2EF5EFC0
S1131980CF2EF6E0DF2EF02D0F2EFEEDEF2EF6E03B
S1131990FF2EF02D22E030E040E863E370E087ECB6
S11319A097E00E9457070E949B080E94AD0980910E
S11319B0670390916803892B71F489E190E0909317
S11319C068038093670380916E03882321F095B3A5
S11319D080E4892785BB80916000882309F478CF4F
S11319E02EEC37E047E060E080ED0E948B05CEEC02
S11319F0D7E01A81812F0E94F40B8093DD07F980D0
S1131A008F2D0E94F40B8093D80788810E94F40BD9
S1131A10082F8093C8078B810E94F40B8093DC0706
S1131A208C810E94F40B8093CD078D810E94F40B6E
S1131A308093C2078E810E94F40B8093DA07809111
S1131A406200813029F5802F817000FF0EC0812F44
S1131A5082958F708093B9071F701093BA078AE03C
S1131A608093B8078093BB0713C0811111C0812FE5
S1131A7082958F708093B9071F701093BA078F2DCA
S1131A8082958F708093BB078F2D8F708093B807DA
S1131A9080916200811109C08AE08093B807809325
S1131AA0BB078093BA078093B90760E080E00E9487
S1131AB0611781E292E00E9474198091DD078A30F7
S1131AC020F48FE192E00E9474198091DD0790E088
S1131AD00E9483198DE192E00E9474198091D807C5
S1131AE08A3020F48BE192E00E9474198091D80727
S1131AF090E00E94831989E192E00E947419809118
S1131B00C8078A3020F487E192E00E94741980911A
S1131B10C80790E00E94831961E080E00E94611789
S1131B2080E192E00E9474198091DC070E944108D0
S1131B308EE092E00E9474198091CD0790E00E949B
S1131B4083198CE092E00E9474198091C20790E09E
S1131B500E9483198AE092E00E9474198091DA0746
S1131B60882321F087E092E00E9474198091DA07BB
S1131B7090E00E9483198091CD078A3020F08091F3
S1131B80C2078A3020F484E092E00E9474198091A4
S1131B906003811105C060E070E081E00E9477037A
S1131BA080916003882379F025ED37E04BED57E011
S1131BB067ED77E088E997E00E949803811103C0FC
S1131BC082E00E94E50763E080E00E9461178EEEE8
S1131BD091E00E94741949EC57E066EC77E084E0E8
S1131BE00E94861681116FC08091C607811112C0B0
S1131BF09091C907992374F491959093C90764E06F
S1131C000E9461178EED91E00E94741981E0809327
S1131C105F031CC0882384F48091C907882364F47B
S1131C2081958093C90764E080E00E9461178FEC7E
S1131C3091E00E9474190AC064E080E00E94611778
S1131C408EEB91E00E94741910925F038091C60795
S1131C50873F2CF464E08DE00E94611716C099E080
S1131C60980F993028F464E08EE00E9461170DC04B
S1131C708A3028F464E08FE00E94611706C08A303D
S1131C8024F064E08EE00E9461178091C607082E5C
S1131C90000C990B0E9483198CEB91E00E9474193B
S1131CA08091C9078A3024F48AEB91E00E94741968
S1131CB08091C907082E000C990B0E94831987EBA9
S1131CC091E00E94741941EC57E06AEC77E082E0FD
S1131CD00E949116811134C065E00E9461178AEA5E
S1131CE091E00E9474198091CA079091CB07883EB5
S1131CF0934028F465E08BE00E94611704C065E01E
S1131D008AE00E9461176091CA077091CB0780E056
S1131D1090E00E94AD1988EA91E00E9474198091C4
S1131D20C1078A3020F486EA91E00E9474198091F8
S1131D30C10790E00E94831981EA91E00E9474191E
S1131D4045EC57E064EC77E084E00E949D16811135
S1131D5032C066E00E94611786E991E00E9474191E
S1131D608091C4078A3028F466E08FE00E946117EE
S1131D7004C066E08EE00E9461178091C40790E081
S1131D800E94831984E991E00E9474198091C40728
S1131D90843640F48091C5078A3020F482E991E0CA
S1131DA00E9474198091C50790E00E9483198FE8FE
S1131DB091E00E94741980916B03811107C067E060
S1131DC00E9461178FE791E00E9474190E94DB1949
S1131DD0909161038091C807981731F080916B034B
S1131DE0813011F40E94E90A809160038F5F80932F
S1131DF06003823010F010926003109260008091B2
S1131E00C8078093610364CD90BD89B988E18AB91C
S1131E1086E880BD8AB188698AB908952091DF0770
S1131E202F5F21709091E0072917E1F3E22FF0E092
S1131E30EF51F84F80832093DF078AB180628AB91B
S1131E400895CF93DF93FC0103C00E940E0FFE019F
S1131E50EF01219680818111F8CFDF91CF91089510
S1131E60CF93DF93CDB7DEB761970FB6F894DEBF9B
S1131E700FBECDBFAB01BE016F5F7F4F0E94EF1B52
S1131E80CE0101960E94210F61960FB6F894DEBF31
S1131E900FBECDBFDF91CF9108951F920F920FB661
S1131EA00F9211248F939F93EF93FF939091DF07E9
S1131EB08091E007981771F08091E0078F5F81703F
S1131EC08093E007E091E007F0E0EF51F84F808164
S1131ED08CB903C08AB18F7D8AB9FF91EF919F912C
S1131EE08F910F900FBE0F901F9018959091E3075C
S1131EF08091E407981769F08091E4078F5F8F71F0
S1131F008093E407E091E407F0E0EB51F84F80811F
S1131F10089580E008951F920F920FB60F92112436
S1131F208F939F93EF93FF939CB1E091E307EF5F4F
S1131F30EF718091E407E81731F0E093E307F0E0F4
S1131F40EB51F84F9083FF91EF919F918F910F90F8
S1131F500FBE0F901F901895CF93C82F0E94D515D0
S1131F608CEE0E9423168C2F0E9423160E94D515F6
S1131F708DEE0E94231680E00E945416C82F0E9402
S1131F80FC158C2FCF910895CF93DF93C82F0E9417
S1131F90D5158CEE0E9423168C2F0E9423160E94C6
S1131FA0D5158DEE0E94231681E00E945416C82F89
S1131FB0D0E0DC2FCC2780E00E945416C82B0E946E
S1131FC0FC15CE01DF91CF9108950E94C40F98278C
S1131FD08927982708950E94E50F08950F931F936A
S1131FE0CF93DF9388E80E94E50FCFE6D3E099838F
S1131FF088838AE80E94EB0F9B838A838CE80E9483
S1132000EB0F9D838C838EE80E94E50F9F838E8364
S113201080E90E94EB0F9987888782E90E94EB0F81
S11320209B878A8784E90E94EB0F9D878C8786E9CA
S11320300E94EB0F9F878E8788E90E94EB0F998B94
S1132040888B8AE90E94EB0F9B8B8A8B8CE90E9418
S1132050EB0F9D8B8C8B8EE90E94EB0F9F8B8E8BED
S113206080ED0E94AC0F803671F581EA0E94AC0FBE
S1132070888F81EE0E94EB0F9A8F898F83EE0E94E6
S1132080AC0F8B8F84EE0E94AC0F90E1899F80018E
S1132090112485EE0E94AC0F8F70082B1D8F0C8FBE
S11320A086EE0E94AC0F90E1899F8001112485EE99
S11320B00E94AC0F82958F70082B1F8F0E8F87EEB6
S11320C00E94AC0F88A3DF91CF911F910F910895C7
S11320D0CF92DF92EF92FF92F82E0E94D5158CEEEC
S11320E00E9423168F2D0E9423160E94D5158DEE73
S11320F00E94231681E00E945416C82ED12CE12C94
S1132100F12CFE2CED2CDC2CCC2481E00E94541606
S1132110C82AFE2CED2CDC2CCC2480E00E94541622
S1132120C82A0E94FC15C701B601FF90EF90DF900A
S1132130CF900895CF930E94D5158CEE0E9423165C
S1132140C82F0E94FC15CC2309F456C080ED0E94D0
S1132150AC0F883501F1803609F050C00E94D515C6
S11321608CEE0E94231680EE0E9423160E94FC151A
S11321708FEF9BE60197F1F700C000000E94D51590
S11321808CEE0E94231682EF0E94231685E00E94A3
S11321902316C4E019C00E94D5158CEE0E942316A4
S11321A080EE0E94231686EB0E9423160E94FC15E3
S11321B08FEF9BE60197F1F700C000000E94D51550
S11321C08CEE0E942316C2E085EF0E9423168CE653
S11321D00E94231684EF0E94231687EB0E94231685
S11321E00E94FC158FEF9BE60197F1F700C00000F9
S11321F00E94EE0F8C2F03C08FEF01C080E0CF91BF
S113220008954F925F926F927F928F929F92AF92B6
S1132210BF92CF92DF92EF92FF920F931F93CF93CF
S1132220DF93EC018B018AEF0E9468106B017C0143
S1132230C114D10480E8E806F10409F490C0B701A0
S1132240A601689416F87595679557954795169461
S1132250D1F7EFE6F3E080809180A12CB12CD50179
S1132260C401880F991FAA1FBB1F9A01AB01281B29
S1132270390B4A0B5B0BA281B3810E94531A2B01C9
S11322803C01032E3BE075946794579447943A9528
S1132290D1F7302DBB27F7FCBA95AF2D9E2D8D2D90
S11322A0BC01CD01681979098A099B099B01AC011C
S11322B00E94F1199B01AC01012E1CE05595479534
S11322C0379527951A95D1F7102DA481B5810E94D1
S11322D0531ADC01CB01072E7EE0B595A79597959F
S11322E087957A95D1F7702D480E591E6A1E7B1E6C
S11322F040929003509291036092920370929303E0
S1132300D301C201880F991FAA1FBB1F880F991FF1
S1132310AA1FBB1F480E591E6A1E7B1EE0E84E0E04
S1132320511C611C711C452C562C672C772467FCAE
S11323307A942097B1F001151105A9F0C301B201F7
S113234024E630E040E050E00E94231A2883F4E6BB
S11323502F9F40181124F801408280E005C08FEFC0
S113236003C080E001C080E0DF91CF911F910F9105
S1132370FF90EF90DF90CF90BF90AF909F908F90A1
S11323807F906F905F904F9008952F923F924F925D
S11323905F926F927F928F929F92AF92BF92CF92F1
S11323A0DF92EF92FF920F931F93CF93DF93CDB7FA
S11323B0DEB76C970FB6F894DEBF0FBECDBF9A8B15
S11323C0898B7C8B6B8B60E070E080E090E00E94F6
S11323D0011187EF0E9468106115710520E88207DA
S11323E0910509F47DC29B01AC01689413F85595DD
S11323F04795379527951694D1F72D8B3E8B4F8BA8
S1132400588F8091900390919103A0919203B09181
S113241093036C017D01FF0CCC08DC2C7601282F82
S1132420392F4A2F5B2F6C2D7C2D8C2D9C2D345FE6
S113243041405109610971098109910929833A834C
S11324404B835C83262E372E482E592EA22EB32E74
S1132450C42ED52EE62EF72E082F192F0E945B1AB4
S11324602D833E834F83588769877A878B879C8720
S1132470B0908003A0907F031B2D110F110BC12E70
S1132480D12EE12EF12E012F0E945B1A2D873E875B
S11324904F87588B662E772E882E992EB0907E0308
S11324A0A0907D031B2D110F110BC12ED12EE12EF7
S11324B0F12E012F29813A814B815C81622D732D8C
S11324C0842D952D0E945B1A01E10E948B1BA22E84
S11324D0B32EC42ED52EE62EF72E082F192F2D85B8
S11324E03E854F855889662D772D882D992D0E941C
S11324F0C21B622E732E842E952EB62FA72FF82F73
S1132500E92F30917C0320917B03932F990F990B32
S1132510492F592F692F792F892F03E20E948B1B92
S1132520A22EB32EC42ED52EE62EF72E082F192F49
S1132530262D372D482D592D6B2F7A2F8F2F9E2F17
S11325400E94C21B2D873E874F87588B698F7A8FD5
S11325508B8F9C8FB0907A03A09079031B2D110F61
S1132560110BC12ED12EE12EF12E012F2D813E8192
S11325704F81588569857A858B859C850E945B1A75
S113258008E00E94A41B2D833E834F835887662E48
S1132590772E882E992EB0907803A09077031B2D68
S11325A0110F110BC12ED12EE12EF12E012F2981F5
S11325B03A814B815C81622D732D842D952D0E946F
S11325C05B1A0CE00E948B1BA22EB32EC42ED52EB8
S11325D0E62EF72E082F192F2D813E814F81588525
S11325E0662D772D882D992D0E94C21B70588F4F10
S11325F09F4F2090750330907603A22CB32CC12CEE
S1132600D12CE12CF12C00E010E00E945B1A01E2D5
S11326100E94A41B422E532E642E752E862E972EB6
S11326208A839983A0E00E94D41B09F45EC180E0F0
S113263090E0A0E1B0E02D893E894F89588D821B3E
S1132640930BA40BB50B5C016D01282F3B2D4C2D76
S11326505D2D60E070E080E090E00FE10E948B1B54
S1132660AD84BE84CF84D888E98CFA8C0B8D1C8D04
S11326700E94CB1B0F2EF5E3AF2EF02D0F2EFCE0A6
S1132680BF2EF02DC12CD12CE12CF12C00E010E058
S11326900E945B1AA42CB52CC62CD72CE82CF92C40
S11326A00A8119810E94B61A29833A834B835C8379
S11326B06D837E838F839887F0918603A091850331
S11326C0EF2FEE0FEE0B0DE00E94A41B222E332EF3
S11326D0442E552E662E772E882E992EA22EB32E9A
S11326E0C42ED52EE62EF72E082F192F2A2F3F2F72
S11326F04E2F5E2F6E2F7E2F8E2F9E2F0E945B1AE1
S1132700A22EB32EC42ED52EE62EF72E082F192F67
S1132710222D332D442D552D662D772D882D992D61
S11327200E945B1A09E10E94A41B522E432E342EF0
S1132730252E69877A878B879C87B0908403A09025
S113274083031B2D110F110BC12ED12EE12EF12E5F
S1132750012F29813A814B815C816D817E818F813A
S113276098850E945B1A03E10E94A41B622E732EBB
S1132770842E952EB62FA72FF82FE92F29813A8181
S11327804B815C816D817E818F819885A52CB42CD1
S1132790C32CD22CE984FA840B851C850E94C21BAD
S11327A0A22EB32EC42ED52EE62EF72E082F192FC7
S11327B0262D372D482D592D6B2F7A2F8F2F9E2F95
S11327C00E94C21B08E00E94A41B822E932E642E3A
S11327D0752EB62FA72FF82FE92F30918203209161
S11327E08103932F990F990B492F592F692F792F13
S11327F0892F04E00E948B1BA22EB32EC42ED52E4B
S1132800E62EF72E082F192F282D392D462D572D5A
S11328106B2F7A2F8F2F9E2F0E94C21B2D833C83F8
S1132820B42FF52FE62F79838A839B83C22ED32E70
S1132830E42EF52E062F172FA82EB92EA0E00E9405
S1132840D41B84F421503F4F4F4F5F4F6F4F7F4F46
S11328508F4F9F4FC22ED32EE42EF52E062F172F07
S1132860A82EB92E2C2D3D2D4E2D5F2D602F712FAE
S11328708A2D9B2D08E00E94A41B222E332E442E69
S1132880552E49895A89452B31F18B899C89892B8D
S113289011F1A12C0F2EF4E6BF2EF02DC12CD12C5A
S11328A0E12CF12C00E010E02D813C814B2F5F2FB7
S11328B06E2F79818A819B810E94B61A822FE989C1
S11328C0FA8920833183222DF4E68F9F2019112465
S11328D0EB89FC892083942D832D722D662709C0F2
S11328E06FEF70E080E090E004C06FEF70E080E094
S11328F090E06C960FB6F894DEBF0FBECDBFDF91AB
S1132900CF911F910F91FF90EF90DF90CF90BF90E8
S1132910AF909F908F907F906F905F904F903F907B
S11329202F9008954F925F926F927F928F929F9211
S1132930AF92BF92CF92DF92EF92FF920F931F93C9
S1132940CF93DF93EC018B0180ED0E94AC0F8036B6
S113295009F013C160E070E080E090E00E94011192
S11329608DEF0E94C40FA0E0B0E0811520E892072B
S1132970A105B10509F403C18090900390909103DF
S1132980A0909203B09093033CE2931A31E0A30A1F
S1132990B108072E7EE0880F991FAA1FBB1F7A95E6
S11329A0D1F7702DEFE6F3E0448D558D052E000C24
S11329B0660B770B032E34E1440F551F661F771FF8
S11329C03A95D1F7302D6C017D01C41AD50AE60A77
S11329D0F70AA68DB78DA50194010E94531AC61A51
S11329E0D70AE80AF90A40E4D40EE11CF11C0B2EC4
S11329F0BFE0F594E794D794C794BA95D1F7B02D76
S1132A00A0A10A2E000CBB0BA50194010E94531A2D
S1132A102B013C01032E3AE0759467945794479434
S1132A203A95D1F7302DA38DB0E00E94481ADC010D
S1132A30CB01072E7BE0B595A795979587957A9559
S1132A40D1F7702DBC01CD0170588F4F9F4FA3015A
S1132A5092010E94F119DC01CB01072E7AE0B595B1
S1132A60A795979587957A95D1F7702D9C01AD011F
S1132A70405E5F4FA18DB28D0E94531ADC01CB01E1
S1132A80905EAF4FBF4FBC01CD01052E5EE0959522
S1132A908795779567955A95D1F7502DA70196019B
S1132AA00E94F1196B017C01052E5FE095958795D5
S1132AB0779567955A95D1F7502D9B01AC010E94EB
S1132AC0F1199B01AC01689416F855954795379513
S1132AD027951694D1F7A08DB0E00E94481ADC0126
S1132AE0CB01689413F8B595A79597958795169497
S1132AF0D1F7A7019601281B390B4A0B5B0BDA01AE
S1132B00C9011AF480E090E0DC0181309105A1054F
S1132B1039E1B30724F080E090E0A0E0B9E19C0142
S1132B20AD01012E1CE055954795379527951A95CB
S1132B30D1F7102DA4E6B0E00E94481A6B017C0185
S1132B400B2EBAE0F694E794D794C794BA95D1F7CC
S1132B50B02D2097B1F001151105A9F020E030E95E
S1132B6041E050E00E94011A288344E6249FC018E3
S1132B701124F801C08280E007C08FEF05C08FEFF9
S1132B8003C080E001C080E0DF91CF911F910F91DD
S1132B90FF90EF90DF90CF90BF90AF909F908F9079
S1132BA07F906F905F904F900895809105088823DF
S1132BB039F0E0919403F0919503309709F0099569
S1132BC084EA86BF8FEF9FEF909364008093630045
S1132BD00FC080916300909164000197909364000A
S1132BE080936300892B21F481E080930508089584
S1132BF006B607FEEECF089580910508882339F0C4
S1132C00E0919403F0919503309709F0099584E9D4
S1132C1086BF8FEF9FEF90936400809363000FC093
S1132C208091630090916400019790936400809375
S1132C306300892B21F481E080930508089506B68A
S1132C4004FCEECF0895CF93C82F80910508882304
S1132C5039F0E0919403F0919503309709F00995C8
S1132C60C3B984E886BF8FEF9FEF9093640080938D
S1132C7063000FC08091630090916400019790936A
S1132C80640080936300892B21F481E0809305081C
S1132C9003C006B607FEEECF91B1987F81E098316C
S1132CA009F080E0CF910895CF93C82F8091050853
S1132CB0882339F0E0919403F0919503309709F05B
S1132CC0099520E4C29FC0011124846886BF8FEF58
S1132CD09FEF90936400809363000FC08091630022
S1132CE09091640001979093640080936300892B12
S1132CF021F481E08093050803C006B607FEEECFF9
S1132D0083B1CF9108950E949A10089581FD02C065
S1132D1082FF05C0CB01BA010E94011108958FEF13
S1132D20089581FD02C082FF06C0CB01BA010E9452
S1132D30C511862F08958FEF089582FF05C0CB013A
S1132D40BA010E94921408958FEF089511B88FE28A
S1132D5080B984E086BF089594EA96BF2CED30E0F4
S1132D6009C02150310931F48091060881608093B3
S1132D700608089506B607FC03C02115310589F736
S1132D8083B984E886BF8CED90E008C0019731F4E4
S1132D9080910608826080930608089506B607FCB1
S1132DA002C0009799F7089584E986BF089583B90E
S1132DB084E886BF8CED90E008C0019731F48091DF
S1132DC00608846080930608089506B607FC02C0CE
S1132DD0009799F708950F931F93CF93DF938C0176
S1132DE0D62F88E70E94AC1680E00E94D716C0E078
S1132DF007C0F801EC0FF11D80810E94D716CF5F48
S1132E00CD17B8F30E94D416DF91CF911F910F9183
S1132E100895EF92FF920F931F93CF93DF937C015A
S1132E208B0188E70E94AC1680E40E94D716C0E0AC
S1132E30D0E007C0F701EC0FFD1F80810E94D71678
S1132E402196C017D107B0F30E94D416DF91CF9119
S1132E501F910F91FF90EF900895CF93DF9300D0CF
S1132E6000D01F92CDB7DEB7813818F5683008F569
S1132E70E6E9F7E0808361836055698391E29A8390
S1132E8092E0980F9F709B8390E00296807F992731
S1132E909595879595958795959587959595879516
S1132EA0805F8C838FE78D8365E0CE0101960E945D
S1132EB0EB160F900F900F900F900F90DF91CF9122
S1132EC00895982F990F980F892F880F0E942D1716
S1132ED0089560E080E00E94611708950F931F93A6
S1132EE0CF93C0E015C080E8C89F800111240A5622
S1132EF01C4F80E8F80111928A95E9F76C2F80E065
S1132F000E94611760E870E0C8010E940917CF5F52
S1132F10C83048F30E946917CF911F910F9108950B
S1132F201F93CF93DF93CDB7DEB76C970FB6F894AA
S1132F30DEBF0FBECDBF182F0E94A61620E00EC024
S1132F40822F90E0FC01E454FB4FE491A1E0B0E057
S1132F50AC0FBD1FA80FB91FEC932F5F2B3180F36B
S1132F601C8F6CE1CE0101960E94EB160E946E1735
S1132F706C960FB6F894DEBF0FBECDBFDF91CF9134
S1132F801F910895CF93DF931F92CDB7DEB78130A1
S1132F9019F08FEA898302C08EEA898361E0CE0149
S1132FA001960E94EB160F90DF91CF910895CF9375
S1132FB0DF9300D0CDB7DEB791E899838A8362E0CE
S1132FC0CE0101960E94EB160F900F90DF91CF91E6
S1132FD00895DF92EF92FF920F931F93CF93DF93A5
S1132FE0CDB7DEB72C970FB6F894DEBF0FBECDBFBA
S1132FF0893009F118F4883039F053C08A30F1F17E
S11330008D3009F448C04DC006E917E0D8018C9111
S11330109091650011966C91891B0E94611780E262
S11330200E94E917F8018081909165006181891BF4
S11330300E9461173BC18091960790916500292FEA
S113304030E0220F331F220F331FB901680F711DA7
S113305045E150E07A01E21AF30A6E157F0540F467
S1133060990F990F60919707890F0E9461171EC1EC
S11330706091970785E10E94611718C180919707B5
S1133080873008F013C160916500680F809196073E
S11330900E9461170BC16091970780E00E9461173D
S11330A005C1409196074A3708F000C1803208F400
S11330B0FDC08052E9E2F2E0E4918E1798F422C058
S11330C0F901EE0FFF1FE85DFD4FE491F0E0B097CA
S11330D0282F30E0E217F30719F4FB0184910FC0A5
S11330E09F5F01C090E0292F30E0B901660F771F80
S11330F0675D7D4FFB0154915F3F11F78FEF8F3F69
S113310009F4D4C090916500923009F0A0C0242F36
S113311030E0245F3F4F2138310508F0C7C050E04C
S113312054C0052F10E0F801EE0FFF1FEE24E394C6
S1133130F12CEC0EFD1EEE0DFF1D11821082282FC6
S113314030E0F901EE0FFF1FE20FF31FEE0FFF1F38
S1133150E00FF11FE05CFD4FD49090E033C0692F85
S113316070E02D2D30E0092E02C0359527950A9484
S1133170E2F720FF26C0660F771FE1E0F0E09F0131
S1133180062E02C0220F331F0A94E2F7D801AA0FB9
S1133190BB1FEE24E394F12CEC0EFD1EAE0DBF1DFF
S11331A0ED90FC901197E22AF32A6F5F7F4F9F0105
S11331B002C0220F331F6A95E2F72E293F292D936F
S11331C03C939F5F983058F25F5F563008F4A9CF64
S11331D050E037C02091970730E0C9010196E52FF0
S11331E0F0E0EE0FFF1FBF01640F711DA1E0B0E01E
S11331F0AC0FBD1FEA0FFB1FA081B1819695982FDC
S11332008827979587958A569C4FFC01E60FF71FF0
S1133210B0838B010F5F1F4F800F911FFC01B083A0
S11332203695322F222737952795C9018A569C4F08
S1133230680F791FFB01A083F801E80FF91FA08331
S11332405F5F563038F2445F409396072FC0242FB7
S113325030E02A5F3F4F2138310540F590E021C02E
S11332606091970770E0292F30E0D901A40FB11DB8
S1133270E82FF0E08F01000F111FE00FF11FEE0F98
S1133280FF1FE20FF31FE05CFD4FE4917695762F6C
S11332906627779567956A567C4FA60FB71FEC9300
S11332A09F5F9630E8F24A5F409396072C960FB6DC
S11332B0F894DEBF0FBECDBFDF91CF911F910F9168
S11332C0FF90EF90DF900895809365000895CF9369
S11332D0DF93EC0103C021960E94E91788818111D4
S11332E0FACFDF91CF910895CF93DF93FC0103C010
S11332F00E94E917FE01EF01219684918111F8CF14
S1133300DF91CF9108950F931F93CF93DF9300D054
S113331000D000D0CDB7DEB79F938F9380E593E0C4
S11333209F938F938E010F5F1F4F1F930F930E94E4
S11333301F1CC8010E9467190F900F900F900F90E7
S11333400F900F9026960FB6F894DEBF0FBECDBF38
S1133350DF91CF911F910F9108950F931F93CF93F6
S1133360DF93CDB7DEB72B970FB6F894DEBF0FBE51
S1133370CDBF9F938F937F936F9383E593E09F9348
S11333808F938E010F5F1F4F1F930F930E941F1C7B
S1133390C8010E9467190FB6F894DEBF0FBECDBFF7
S11333A02B960FB6F894DEBF0FBECDBFDF91CF9141
S11333B01F910F910895CF93C0E00FC06C2F80E050
S11333C00E94611720E8C29FC001112460E870E0E8
S11333D08A569C4F0E940917CF5FC83078F3CF916B
S11333E00895DB018F939F930E94481ABF91AF9178
S11333F0A29F800D911DA39F900DB29F900D11244B
S11334000895A1E21A2EAA1BBB1BFD010DC0AA1F21
S1133410BB1FEE1FFF1FA217B307E407F50720F039
S1133420A21BB30BE40BF50B661F771F881F991FB4
S11334301A9469F760957095809590959B01AC01FD
S1133440BD01CF010895052E97FB1EF400940E9440
S11334503A1A57FD07D00E94011A07FC03D04EF414
S11334600C943A1A50954095309521953F4F4F4F03
S11334705F4F089590958095709561957F4F8F4F1C
S11334809F4F0895EE0FFF1F0590F491E02D0994CE
S11334900E94E01BA59F900DB49F900DA49F800DEA
S11334A0911D11240895B7FF0C94481A0E94481ADC
S11334B0821B930B0895DF93CF931F930F939A9DD1
S11334C0F02D219FF00D8B9DF00D8A9DE02DF10DC7
S11334D0039FF00D029FE00DF11D4E9DE00DF11DC7
S11334E05E9DF00D4F9DF00D7F936F93BF92AF9251
S11334F05F934F93D5010E94E01B8B01AC01D70170
S11335000E94E01BEB01E80FF91FD6010E94AB1AE1
S11335102F913F91D6010E94E01BC60FD71FE81FD1
S1133520F91FAF91BF910E94AB1A2F913F910E9456
S1133530E01BC60FD71FE81FF91FD6010E94E01B2E
S1133540E60FF71F9801BE01CF0111240F911F91BF
S1133550CF91DF9108950E94E01B460F571FC81FAB
S1133560D91F08F431960895689401C0E894F92F9E
S1133570F12B12F00C94E81AA0E0B0E0E2ECFAE1CE
S11335800C945A1B092E059422F40E94441B112307
S113359092F4F0E80F26FFEFE094F0940095109574
S11335A0B094C094D094A194BF0ACF0ADF0AEF0A62
S11335B0FF0A0F0B1F0B0E94F31A07FC0E94441B07
S11335C0CDB7DEB7ECE00C94761B689401C0E894A8
S11335D08F929F92CF93DF930E94F31ADF91CF9142
S11335E09F908F90089588249924F401E401B0E415
S11335F09F93AA279A158B049C04ED05FE05CF051D
S1133600D007A10798F4AD2FDC2FCF2FFE2FE92D83
S1133610982C892E982F872F762F652F542F432F80
S1133620322F2227B85031F7BF9127C01B2EBF91EC
S1133630BB27220F331F441F551F661F771F881F88
S1133640991F881C991CEE1FFF1FCC1FDD1FAA1F8A
S1133650BB1F8A149B04EC05FD05CE05DF05A007FE
S1133660B10748F08A189B08EC09FD09CE09DF0967
S1133670A00BB10B21601A94E1F62EF49401AF0172
S1133680BE01CD01000C08956095709580959095CC
S113369030954095509521953F4F4F4F5F4F6F4F59
S11336A07F4F8F4F9F4F08952F923F924F925F927B
S11336B06F927F928F929F92AF92BF92CF92DF923E
S11336C0EF92FF920F931F93CF93DF93CDB7DEB7A3
S11336D0CA1BDB0B0FB6F894DEBF0FBECDBF099437
S11336E02A88398848885F846E847D848C849B848E
S11336F0AA84B984C884DF80EE80FD800C811B819C
S1133700AA81B981CE0FD11D0FB6F894DEBF0FBECA
S1133710CDBFED0108950F93083090F0982F872FB7
S1133720762F652F542F432F322F22270850F4CFA2
S1133730220F331F441F551F661F771F881F991FB1
S11337400A95B2F70F91089597FB10F816940008A4
S11337500F93083098F00850232F342F452F562FFD
S1133760672F782F892F902DF4CF059497958795FF
S11337707795679557954795379527950A95AAF7AD
S11337800F9108952A0D3B1D4C1D5D1D6E1D7F1D5F
S1133790801F911F08952A193B094C095D096E0980
S11337A07F09800B910B08950024A7FD00942A172C
S11337B030054005500560057005800590050895A5
S11337C0A29FB001B39FC001A39F700D811D11245E
S11337D0911DB29F700D811D1124911D08954532D4
S11337E0510520F4423010F00C94FA1BFB011082B6
S11337F0CB010895BB274A3031F4992322F4BDE26A
S1133800909581959F4F0C94061CBB27FB0155276F
S1133810AA27880F991FAA1FA41710F0A41B839529
S11338205051B9F7A05DAA3308F0A95DA1930097A0
S113383079F7B111B1931192CB010C94381EAEE01B
S1133840B0E0E5E2FCE10C94621B0D891E8986E080
S11338508C831A8309838FEF9FE79E838D83AE0148
S1133860475E5F4F6F89788DCE0101960E94411C9F
S1133870EF81F885E00FF11F10822E96E4E00C949E
S11338807E1BABE0B0E0E7E4FCE10C94541B6C015C
S11338907B018A01FC0117821682838181FFCCC1DE
S11338A0CE0101963C01F6019381F70193FD8591C8
S11338B093FF81917F01882309F4BAC1853239F4D9
S11338C093FD859193FF81917F01853229F4B6019F
S11338D090E00E94481EE7CF912C212C312CFFE16F
S11338E0F315D8F08B3279F038F4803279F08332E2
S11338F0A1F4232D20611DC08D3261F0803369F461
S1133900232D216016C0832D8260382EE32DE460C0
S11339103E2E2AC0F32DF8601DC037FC2DC020EDCB
S1133920280F2A3040F08E32B9F436FC81C1232DA1
S11339302064322E19C036FE06C08AE0989E200DFF
S11339401124922E11C0EAE02E9E200D1124222E65
S1133950F32DF0623F2E08C08C3621F4832D80684D
S1133960382E02C0883641F4F70193FD859193FF08
S113397081917F018111B3CF982F9F7D955493300E
S113398028F40C5F1F4F9FE399830DC0833631F0F9
S1133990833771F0833509F059C021C0F801808163
S11339A089830E5F1F4F88248394912C530113C085
S11339B02801F2E04F0E511CF801A080B18036FEC0
S11339C003C0692D70E002C06FEF7FEFC5010E9454
S11339D02D1E4C018201F32DFF773F2E16C02801C6
S11339E022E0420E511CF801A080B18036FE03C0D3
S11339F0692D70E002C06FEF7FEFC5010E94221EA7
S1133A004C01F32DF0683F2E820133FC1BC0822D44
S1133A1090E088169906B0F4B60180E290E00E9426
S1133A20481E2A94F4CFF50137FC859137FE819125
S1133A305F01B60190E00E94481E21102A9421E003
S1133A40821A91088114910471F7E8C0843611F048
S1133A50893641F5F80137FE07C0608171818281A2
S1133A6093810C5F1F4F08C060817181072E000C89
S1133A70880B990B0E5F1F4FF32DFF763F2E97FF98
S1133A8009C090958095709561957F4F8F4F9F4F9A
S1133A90F0683F2E2AE030E0A3010E94841E882EA5
S1133AA0861845C0853731F4232D2F7EB22E2AE0A7
S1133AB030E025C0932D997FB92E8F36C1F018F4CC
S1133AC0883579F0B5C0803719F0883721F0B0C057
S1133AD0E92FE061BE2EB4FE0DC0FB2DF460BF2EB5
S1133AE009C034FE0AC0292F2660B22E06C028E081
S1133AF030E005C020E130E002C020E132E0F8010E
S1133B00B7FE07C060817181828193810C5F1F4F72
S1133B1006C06081718180E090E00E5F1F4FA301B9
S1133B200E94841E882E8618FB2DFF773F2E36FEBA
S1133B300DC0232D2E7FA22E891458F434FE0BC001
S1133B4032FC09C0832D8E7EA82E05C0B82CA32C70
S1133B5003C0B82C01C0B92CA4FE0FC0FE01E80DAF
S1133B60F11D8081803321F49A2D997EA92E09C0FC
S1133B70A2FE06C0B394B39404C08A2D867809F0DB
S1133B80B394A3FC11C0A0FE06C0B21488F4280CA0
S1133B90922C9B180EC0B21460F4B60180E290E03F
S1133BA00E94481EB394F7CFB21418F42B1802C025
S1133BB0982C212CA4FE10C0B60180E390E00E9452
S1133BC0481EA2FE17C0A1FC03C088E790E002C013
S1133BD088E590E0B6010CC08A2D867859F0A1FEE4
S1133BE002C08BE201C080E2A7FC8DE2B60190E046
S1133BF00E94481E891438F4B60180E390E00E94C4
S1133C00481E9A94F7CF8A94F301E80DF11D808140
S1133C10B60190E00E94481E8110F5CF222009F4DD
S1133C2042CEB60180E290E00E94481E2A94F6CF6C
S1133C30F6018681978102C08FEF9FEF2B96E2E118
S1133C400C94701BFC010590615070400110D8F772
S1133C50809590958E0F9F1F0895FC0161507040D0
S1133C6001900110D8F7809590958E0F9F1F0895AD
S1133C70DC01FC01672F71917723E1F7329704C0CF
S1133C807C916D9370836291AE17BF07C8F308955A
S1133C900F931F93CF93DF93FB01238121FD03C077
S1133CA08FEF9FEF2CC022FF16C0468157812481DD
S1133CB035814217530744F4A081B1819D012F5FE0
S1133CC03F4F318320838C93268137812F5F3F4F71
S1133CD03783268314C08B01EC01FB010084F1853A
S1133CE0E02D0995892BE1F6D80116968D919C91CA
S1133CF01797019617969C938E931697CE01DF9192
S1133D00CF911F910F910895FA01AA27283051F1FC
S1133D10203181F1E8946F936E7F6E5F7F4F8F4FF8
S1133D209F4FAF4FB1E03ED0B4E03CD0670F781F57
S1133D30891F9A1FA11D680F791F8A1F911DA11D3C
S1133D406A0F711D811D911DA11D20D009F4689475
S1133D503F912AE0269F11243019305D3193DEF61D
S1133D60CF010895462F4770405D4193B3E00FD0D3
S1133D70C9F7F6CF462F4F70405D4A3318F0495DBE
S1133D8031FD4052419302D0A9F7EACFB4E0A695A1
S1133D909795879577956795BA95C9F700976105C3
S1133DA0710508959B01AC010A2E06945795479519
S1133DB037952795BA95C9F7620F731F841F951F0E
S10B3DC0A01D0895F894FFCF43
S1133DC8010101FFFF0100010102020304040506C9
S1133DD8060707080909010204084D6F0054750015
S1133DE857650054680046720053610053750054C7
S1133DF879706520276827206F722027482720615B
S1133E086E6420707265737320454E544552206663
S1133E186F722068656C70203A290D0A000D0A57E4
S1133E28656C636F6D6520746F20557365722048E7
S1133E38656C702E20456E74657220746865206EFA
S1133E48756D626572732062656C6F7720746F207C
S1133E5861637469766174652066756E6374696FED
S1133E686E7320616E6420707265737320456E747E
S1133E7865720D0A00273027202D204F4C45442019
S1133E88646973706C6179204F4E0D0A00273127DD
S1133E98202D204F4C454420646973706C6179204F
S1133EA84F46460D0A00273227202D204C45442032
S1133EB8646973706C6179204F4E0D0A00273327AB
S1133EC8202D204C454420646973706C6179204F1F
S1133ED846460D0A00273427202D204C45442062ED
S1133EE86C696E6B730D0A00273527202D204C450D
S1133EF84420646F65736E277420626C696E6B0D61
S1133F080A00273627202D20444154412073656E2A
S1133F18640D0A00273727202D204441544120648A
S1133F286F6E27742073656E640D0A002738272086
S1133F382D204F4C454420646973706C6179204F7F
S1133F484E2C204C454420646973706C6179204F71
S1133F584E2C204C454420626C696E6B732C2044B3
S1133F684154412073656E640D0A00273927202DBA
S1133F78204F4C454420646973706C6179204F4626
S1133F88462C204C454420646973706C6179204F39
S1133F9846462C204C454420646F65736E27742074
S1133FA8626C696E6B2C204441544120646F6E2707
S1133FB8742073656E640D0A00555341525420638E
S1133FC86D64203D2030202D3E200055534152542D
S1133FD820636D64203D2031202D3E20005553413F
S1133FE8525420636D64203D2032202D3E2000551C
S1133FF85341525420636D64203D2033202D3E20CC
S113400800555341525420636D64203D2034202DC3
S11340183E2000555341525420636D64203D2035A1
S1134028202D3E2000555341525420636D64203D99
S11340382036202D3E2000555341525420636D6490
S1134048203D2037202D3E200055534152542063F3
S11340586D64203D2038202D3E2000555341525494
S113406820636D64203D2039202D3E2000524335C5
S113407820636D64203D20003A002F003230002078
S11340882F20445331384232303A20002D002E007C
S1134098B04300202F20424D453238303A2000B03A
S11340A843202F2000685061202F2000250D0A008E
S10B40B8256900256C69000074
S9030000FC
