:100000000C943A000C94B9060C9457000C945700C9
:100010000C94C8060C9457000C9478020C9457006A
:100020000C9457000C9457000C9458060C945700ED
:100030000C9457000C94D9000C949D000C9457001C
:100040000C9457000C9457000C9457000C945700D4
:100050000C945700C0F9A4B0999282D88090FF0008
:10006000000000202000636E7420002020007263D6
:10007000353A200011241FBECFE5D8E0DEBFCDBF4A
:1000800010E0A0E6B0E0E2E9F3E102C005900D92D5
:10009000AA3BB107D9F721E0AAEBB0E001C01D925D
:1000A000A333B207E1F70E94B0070C94C7090C9480
:1000B000000090BD89B988E18AB986E880BD8AB11F
:1000C00088698AB908959091C1009F5F9F702091BF
:1000D000C2009217E1F3E92FF0E0ED53FF4F808368
:1000E0009093C100559A0895CF93DF93EC018991C5
:1000F000882319F00E946300FACFDF91CF91089511
:10010000CF93DF93CDB7DEB761970FB6F894DEBF1C
:100110000FBECDBFAB01BE016F5F7F4F0E944E0986
:10012000CE0101960E94740061960FB6F894DEBF6E
:100130000FBECDBFDF91CF9108951F920F920FB6E2
:100140000F9211248F939F93EF93FF939091C1008F
:100150008091C200981771F08091C2008F5F8F70FC
:100160008093C200E091C200F0E0ED53FF4F808128
:100170008CB901C05598FF91EF919F918F910F908D
:100180000FBE0F901F9018959091D3008091D400CE
:10019000981769F08091D4008F5F8F718093D4009D
:1001A000E091D400F0E0EB52FF4F8081089580E0B1
:1001B00008951F920F920FB60F9211248F939F9361
:1001C000EF93FF938CB1E091D300EF5FEF719091CB
:1001D000D400E91731F0E093D300F0E0EB52FF4F89
:1001E0008083FF91EF919F918F910F900FBE0F90A1
:1001F0001F901895D69AD59AD49AD39A089589B310
:1002000083FB882780F9CC998260CD998460CE9950
:100210008860089580FF02C0DB9A01C0DB9881FFEF
:1002200002C0DC9A01C0DC9882FF02C0DD9A01C0E6
:10023000DD9883FF02C0DE9A0895DE980895CF937B
:10024000D698D598D498D398D99ADA9A0E94FF0074
:10025000C82FC295C07FDA98DA9A0E94FF00DA9818
:100260008C2BCF910895D8980C941F01CF93C82F51
:100270000E94FA00D998DA9A8C2F82958F700E948A
:100280000A01DA98DA9A8C2F0E940A01DA980E9401
:10029000330187FDFCCFCF910895D8980C94360197
:1002A000D89A0C94360190E8980F983008F487702B
:1002B0000C945001CF93DF93EC018991882319F0BE
:1002C0000E945301FACFDF91CF910895CF93DF932E
:1002D000FC018491EF012196882321F00E945301B3
:1002E000FE01F7CFDF91CF910895CF93DF93EC011B
:1002F00021960E94AF099FEF980F9E3F20F40E9425
:100300005301CE01F4CFDF91CF910895CF93DF93C6
:10031000CDB7DEB761970FB6F894DEBF0FBECDBF85
:100320004AE0BE016F5F7F4F0E9459090E945A0147
:1003300061960FB6F894DEBF0FBECDBFDF91CF91AF
:100340000895CF93DF93CDB7DEB761970FB6F894DA
:10035000DEBF0FBECDBF20E1AE014F5F5F4F0E94F9
:1003600064090E945A0161960FB6F894DEBF0FBE71
:10037000CDBFDF91CF9108950F931F93CF93DF935C
:100380008B018770880F880F880F805C0E944D0159
:10039000E801085F1F4F89910E945001C017D107E3
:1003A000D1F7DF91CF911F910F9108950F931F9374
:1003B000CF93DF93EB018770880F880F880F805CE5
:1003C0000E944D018E01085F1F4FFE0184910E9423
:1003D00050012196C017D107C1F7DF91CF911F912E
:1003E0000F910895EF92FF920F931F93CF93DF9396
:1003F000EB018770880F880F880F805C0E944D0189
:100400008E01085F1F4F7E018FEFE81AF80ACE01B8
:100410000E94AF090E945001E701E016F10699F72A
:10042000DF91CF911F910F91FF90EF900895813050
:1004300009F480E46058860F0C944D0181E00C941F
:100440004D010E94FA00D09AD29AD19AD89ADA9A9B
:10045000D99A8FEF91EA0197F1F700C00000DA987E
:10046000D898D998DA9A83E00E940A01DA9887E44A
:100470009CE20197F1F700C0DA9A83E00E940A013A
:10048000DA9884E191E00197F1F70000DA9A83E0CD
:100490000E940A01DA9884E191E00197F1F70000E7
:1004A000DA9A82E00E940A01DA9884E191E00197E9
:1004B000F1F7000088E20E944D0188E00E944D01A2
:1004C0008CE00E944D0186E00E944D010C941E02BA
:1004D0008E98969A8EB582608EBD8EB58F7B8EBDBE
:1004E0001092F80089B7806289BF1092F9000895D0
:1004F0001F920F920FB60F9211242F933F934F9399
:100500008F939F9386B597B52091BE003091BF0021
:10051000821B930B26B537B53093BF002093BE00E6
:100520003EB520E423272EBD803A2AE0920710F042
:100530001092F8002091F800222319F021E0209376
:10054000BD002091F800211111C01092BC00109242
:10055000BB001092BA002EB520642EBD2091F80089
:100560002F5F2093F80022E02093BD002091BD0072
:10057000213009F05FC09C01235B33402D3E3640A3
:1005800010F01092BD002091BD00213009F052C042
:100590008A3D954028F08091F8008F5F8093F800A5
:1005A0008091F800823008F440C08091F80080FD0E
:1005B0003CC08091BB009091BC00880F991F909324
:1005C000BC008093BB000EB406FE05C08160909312
:1005D000BC008093BB008091BA008F5F8093BA000B
:1005E0008D3018F18091F90081111AC08091BB0003
:1005F0009091BC00282F2F732093F7009C01207C42
:10060000377046E0369527954A95E1F72093F60036
:1006100088279870892F8695869586958093F50012
:100620001092BD0081E08093F9008091F8008F5F07
:100630008093F8008091BD00811105C01092F800F0
:100640008EB58F7B8EBD9F918F914F913F912F9152
:100650000F900FBE0F901F90189584EA86BF06B6C4
:1006600007FEFDCF089584E986BF06B604FCFDCFE2
:10067000089583B984E886BF06B607FEFDCF0895C6
:1006800020E4829FC0011124846886BF06B607FE5D
:10069000FDCF83B10895FF920F931F93CF93DF9304
:1006A000082F162FC42FF22ED32F0E942D03802F38
:1006B0000E943903812F0E9439030F2D1D2FCC2357
:1006C00039F0F80181918F010E943903C150F7CFB1
:1006D000DF91CF911F910F91FF900C943303FF9204
:1006E0000F931F93CF93DF93182F062FC42FF22E53
:1006F000D32F0E942D03812F0E943903802F0E9447
:1007000039030E942D0381E0810F0E943903C150FB
:100710000F2D1D2FCF3F59F081E0C11101C080E0A6
:100720000E944003F80181938F01C150F3CFDF9104
:10073000CF911F910F91FF900C943303FC01680F30
:10074000791F80E048E1E617F70781F0219198E0F2
:10075000382F3227532F517030FD84278695513022
:1007600009F480682695915099F7EDCF08950F937D
:100770001F93CF93DF93CDB7DEB760970FB6F89492
:10078000DEBF0FBECDBF90E1E9E6F0E0DE011196DD
:1007900001900D929A95E1F7DB01ED91FC91119793
:1007A000803159F4EE7F93E0EE0FFF1F9A95E1F749
:1007B00016969C91E91BF1093C96F7FF07C091E062
:1007C000DA019C93F195E195F10902C0DA011C92DE
:1007D000883281F4DB0114968C91982F90769036B4
:1007E00049F086FF02C0EE7F05C085FF02C0EC7FA6
:1007F00001C0E87FCF0144E0969587954A95E1F7DF
:10080000D9018C93EF70FF2781E090E08C0F9D1F42
:10081000E80FF91F8081D8018C9380E060960FB6B5
:10082000F894DEBF0FBECDBFDF91CF911F910F9126
:100830000895882319F0719561957109442319F081
:10084000319521953109621773073CF081E090E002
:100850002617370724F080E008958FEF9FEF089563
:100860000F931F93CF93DF93EC018B01B801888125
:100870000E94D205888381508D3F30F4F801808139
:10088000883211F0803191F7DF91CF911F910F9154
:100890000895EF92FF921F93CF93DF93CDB7DEB70A
:1008A00029970FB6F894DEBF0FBECDBF8FEF8987B3
:1008B0008AEFE82E80E0F82E10E089858823F9F091
:1008C0001430E9F0BE016F5F7F4FCE0109960E94A0
:1008D000300489858E5F823090F0FE01319680E091
:1008E00090E02191D701A80FB91F2C930196883071
:1008F0009105B9F71F5F88E0E80EF11CDECF812F6C
:1009000029960FB6F894DEBF0FBECDBFDF91CF9111
:100910001F91FF90EF900895CF93DF93EC010E9419
:10092000900581110FC0BE0184EB0E941F0681E07B
:100930000E94AA05C82F0E94900581E0C11103C042
:1009400080E001C081E0DF91CF9108950F931F9364
:10095000CF93DF93D82F8B010E949005C82F811170
:100960000DC00E948705882359F0B80184E40E94D5
:100970001F06D13031F00E948A0503C0C1E001C0DA
:10098000C2E08C2FDF91CF911F910F9108954F926C
:100990005F926F927F928F929F92AF92BF92CF920F
:1009A000DF92EF92FF920F931F93CF93DF93CDB718
:1009B000DEB729970FB6F894DEBF0FBECDBF6C012E
:1009C0003B015A0189010E949005811124C0B601A2
:1009D0008EEB0E941F06CE0101967C014E019AE02B
:1009E000890E911C27010E94CF05F70181937F0199
:1009F000E815F905C1F769E070E0C2010E949E03A5
:100A0000F82E81110BC09501A301B201F60180817E
:100A10000E94B70305C0FF24F39402C083E0F82EC0
:100A20008F2D29960FB6F894DEBF0FBECDBFDF9194
:100A3000CF911F910F91FF90EF90DF90CF90BF90DB
:100A4000AF909F908F907F906F905F904F900895A0
:100A50005F926F927F928F929F92AF92BF92CF924E
:100A6000DF92EF92FF920F931F93CF93DF93CDB757
:100A7000DEB729970FB6F894DEBF0FBECDBF582E54
:100A80006B015A0189010E949005811124C060E028
:100A900070E08EEB0E941F06CE0101967C014E0194
:100AA0009AE0890E911C37010E94CF05F7018193CE
:100AB0007F01E815F905C1F769E070E0C3010E9404
:100AC0009E03F82E81110AC09501A601B301852D60
:100AD0000E94B70305C0FF24F39402C083E0F82E00
:100AE0008F2D29960FB6F894DEBF0FBECDBFDF91D4
:100AF000CF911F910F91FF90EF90DF90CF90BF901B
:100B0000AF909F908F907F906F905F90089583B388
:100B100084700895AA9AA29A0895AA98A29808950E
:100B2000AA98A29A8FE295E00197F1F79FB7F894FF
:100B3000A298E3EFEA95F1F7000083B39FBFE8E7DF
:100B4000F4E03197F1F700C09A9B02C084700895D9
:100B500081E008959FB7F894A29A24E02A95F1F7CE
:100B60008111A29827E32A95F1F700009A9B80E073
:100B700026EA2A95F1F7A2989FBF0895CF93DF93B5
:100B8000C82FD8E08C2F81700E94AA05C6958111CC
:100B9000C068D150B9F78C2FDF91CF9108958FEFB6
:100BA0000C94BE05DF92EF92FF920F931F93CF93A9
:100BB000DF93E82E8B010E949005811135C080EFF4
:100BC0000E94BE05D0E0C0E488EFD82EDC0E81E0A4
:100BD0000E94AA05F82E81E00E94AA05882319F038
:100BE000FF2071F023C0F1100BC0CE1530F0F801DA
:100BF000808180FF05C0CE1519F0DC2FFF24F3940F
:100C00008F2D0E94AA05F80180818695FF2011F0A2
:100C10008068F8018083C150CD11D9CF0F5F1F4F7D
:100C2000C111D2CF8D2F03C08FEF01C08EEFDF91A6
:100C3000CF911F910F91FF90EF90DF900895EF9269
:100C4000FF921F93CF93DF93182FEB010E94900523
:100C5000209771F085E50E94BE057E0188E0E80ED0
:100C6000F11C89910E94BE05CE15DF05D1F703C0A6
:100C70008CEC0E94BE05812FDF91CF911F91FF90D8
:100C8000EF900C94BE058FEF87BB88BB84B3806F59
:100C900084BB85B3806F85BB83B7886083BF83B710
:100CA000856083BF86E28CBF89B7826089BF089563
:100CB0001F920F920FB60F9211248F939F93EF9371
:100CC000FF9385B3806F85BB8091C000811103C005
:100CD000E0911B010EC0813019F4E0911C0109C0A4
:100CE000823019F4E0911D0104C0833039F4E091A1
:100CF0001A01F0E0EC5AFF4FE491E8BB95B3E091A4
:100D0000C000F0E0E758FF4F80818095892385BBC4
:100D10008091C0008F5F843018F48093C00002C0BF
:100D20001092C000FF91EF919F918F910F900FBE95
:100D30000F901F901895AB98089595B388E0892778
:100D400085BB0895AB9A089560E080E00E94170289
:100D500086E690E00E9466018091220191E0980F62
:100D60009093220190E00E94860183E690E00C942B
:100D700066011F920F920FB60F9211248F9381E09C
:100D8000809368008F910F900FBE0F901F90189561
:100D90001F920F920FB60F9211248F939F93809101
:100DA000300190913101009729F001979093310122
:100DB0008093300180912C0190912D01009729F0B2
:100DC000019790932D0180932C0180911E019091A9
:100DD0001F01009729F0019790931F0180931E0136
:100DE0008091230190912401009729F0019790931D
:100DF0002401809323019F918F910F900FBE0F903C
:100E00001F901895CF92DF92EF92FF920F931F934E
:100E1000CF93DF93EC01D8012115310511F424E1C2
:100E200030E0109711F4A6E9B0E0FB011081142323
:100E30008881111107C0811105C081E088838FE08E
:100E400090E012C0882309F44EC0111112C0813005
:100E5000D1F48091300190913101892B09F043C088
:100E600082E0888385E090E09093310180933001A7
:100E700035C08250823090F5E114F10411F0F70191
:100E8000099518822BC0823069F4809130019091CD
:100E90003101892B41F583E08883B0933101A09320
:100EA00030011CC0833049F48091300190913101B0
:100EB000892BC9F484E0888311C0843079F480914F
:100EC000300190913101892B71F4309331012093DD
:100ED0003001C114D10411F0F601099588818330E5
:100EE00010F011111882DF91CF911F910F91FF9097
:100EF000EF90DF90CF900895682F81E00E94170255
:100F000080912601882319F08DE790E002C081E8E6
:100F100090E00E945A0180912B0190E00E9486018E
:100F20008AE890E00E945A018091250190E00E9499
:100F300086018FE790E00C945A016AE00E94420912
:100F4000292F30E1839FC0011124822B0895982F0F
:100F500092959F708F702AE0929F800D11240895C2
:100F6000CF93DF9300D0CDB7DEB781B3877481BB59
:100F700082B3886B82BBA39AD79AAB9ADF9A85B764
:100F8000826085BF8BB780648BBF929A85B588607D
:100F900085BD85B5876085BD8BE683BD89B78068D3
:100FA00089BF0E94430610921B0110921C011092EF
:100FB0001D0110921A010E94210283E890E00E9414
:100FC0005A0160E670E080E80E94BC010E9468025D
:100FD00087E490E00E94590078948CE890E00E94A9
:100FE00074000E94490480932F0160E070E081E06A
:100FF0000E94A6042FEF8FE992E321508040904099
:10100000E1F700C000000E941E0225E231E04BE241
:1010100051E066E271E08AEF90E00E94C70481111E
:1010200002C00E947C071A821982912C49E1A42EE9
:10103000B12C7724739488248A948DE9C82E86E095
:10104000D82E9BE9E92E96E0F92E04EF11E024E179
:1010500030E048E060E370E0CE0102960E940207B3
:1010600024EAC22E26E0D22E32EAE32E36E0F32E18
:1010700000E911E020E530E040E160E370E0CE01FE
:1010800001960E94020780912C0190912D01892BDD
:1010900059F4B0922D01A0922C0180912E01882349
:1010A00019F08BB380588BBB0E94C400813311F4BC
:1010B000DF9A0BC0823311F4DF9807C0833329F421
:1010C00080912E01872580932E01809168008823CE
:1010D00009F47BC027E231E044E061E080EA0E944D
:1010E0006F0310912801812F0E94A707809321018F
:1010F00000912901802F0E94A707809332018091DF
:101100002A010E94A70780932001802F82958F706B
:1011100080931B010F7000931C01812F82958F70AB
:1011200080931D011F7010931A0168E080E00E94F7
:101130001702809120018A3020F485EA90E00E9415
:101140005A018091200190E00E94860187EA90E098
:101150000E945A01809132018A3020F485EA90E0A1
:101160000E945A018091320190E00E94860187EA34
:1011700090E00E945A01809121018A3020F485EA92
:1011800090E00E945A018091210190E00E94860126
:10119000911006C060E070E081E00E94A6040FC0DC
:1011A00025E231E04BE251E066E271E08AEF90E047
:1011B0000E94C704811103C080E00E947C0781E087
:1011C000911080E0982E109268008091F900882399
:1011D00009F433CF8091F600811106C08091F700A9
:1011E000813011F480932E018091F600811106C0A8
:1011F0008091F700823011F410922E018091F60058
:10120000811105C08091F700843009F4DF9A809144
:10121000F600811105C08091F700853009F4DF9850
:1012200068E081E00E9417028EE690E00E9466016D
:101230008091F70090E00E9486018BE690E00E948A
:10124000660189EA90E00E9474008091F6006AE0ED
:1012500070E090E00E94800083EB90E00E947400B8
:101260008091F7006AE070E090E00E94800082EADE
:1012700090E00E9474001092F9008092F700809232
:10128000F600DBCE991B79E004C0991F961708F091
:10129000961B881F7A95C9F78095089545325105A8
:1012A00020F4423010F00C945909FB011082CB015C
:1012B0000895BB274A3031F4992322F4BDE290957A
:1012C00081959F4F0C949609BB272A3051F499239E
:1012D00042F4BDE290958095709561957F4F8F4F58
:1012E0009F4F0C947409BB27FA01A62F6217710552
:1012F00081059105330B30FB66F0AA27660F771F37
:10130000881F991FAA1FA21710F0A21B63953850BF
:10131000A9F7A05DAA3308F0A95DA19336F7B11132
:10132000B1931082CA010C94B709BB27FB01552762
:10133000AA27880F991FAA1FA41710F0A41B839532
:101340005051B9F7A05DAA3308F0A95DA1930097A9
:1013500079F7B111B1931192CB010C94B709E199CE
:10136000FECF9FBB8EBBE09A99278DB30895DC0119
:10137000FC01672F71917723E1F7329704C07C91CC
:101380006D9370836291AE17BF07C8F30895F89408
:02139000FFCF8D
:101392000C12120C20202020010001010202030481
:1013A200040506060707080909102040802D008061
:1013B20043200053746172742E2E2E0050726F6A95
:1013C200656B74207769656C6F7A6164616E696FB1
:1013D20077790D0A0030003A007263353A20616471
:0A13E200723D002020636D643D00A1
:00000001FF
