S017000050726163615F6479706C6F6D6F77612E73726563EB
S11300000C946C020C94B8060C9489020C9489022A
S11300100C94C7060C9489020C9491050C948902E3
S11300200C9489020C9489020C94B4040C948902F3
S11300300C9489020C94410E0C94050E0C948902C4
S11300400C9489020C9489020C9489020C94890200
S11300500C948902CE07D107D407D707DA07DD0746
S1130060E007EF07F207F507F807FB07FE070108AB
S1130070C0F9A4B0999282D88090FF7F0000004418
S113008041544120646F6E27742073656E6400448C
S11300904154412073656E642020202020200044B8
S11300A041544120646F6E27742073656E6400446C
S11300B04154412073656E64202020202020004498
S11300C041544120646F6E27742073656E6400444C
S11300D04154412073656E64202020202020004478
S11300E041544120646F6E27742073656E6400442C
S11300F04154412073656E64202020202020004953
S113010052636F6E0020202020200044415441207F
S1130110646F6E27742073656E64004441544120FB
S113012073656E6420202020202000444154412027
S1130130646F6E27742073656E64004441544120DB
S113014073656E64202020202020005375005361C5
S1130150004672005468005765005475004D6F00E6
S1130160B043002E0020002020002D00202D00444C
S11301705331384232302073656E2E543A20004495
S113018041544120646F6E27742073656E640020AF
S1130190250030002E0048756D69646974793A2031
S11301A000206850610030002E0050726573737532
S11301B072653A20202000B0430030002E005465C0
S11301C06D70657261747572653A20202020005448
S11301D0656D70657261747572653A2020005465AE
S11301E06D70657261747572653A20202D002D2D35
S11301F02D2D424D453238302073656E736F722D4C
S11302002D2D2D002020003230002F002F002F0034
S1130210446174653A200030003A0030003A0030FE
S11302200054696D653A2000BC5F9C60A4618462DF
S1130230B6639664B0659F66B5678968A969FFFF70
S11302400000000000000000002F00000000070074
S1130250070000147F147F1400242A7F2A120062EE
S1130260640813230036495522500000050300009A
S113027000001C224100000041221C000014083E22
S113028008140008083E0808000000A060000008E8
S1130290080808080000606000000020100804023C
S11302A0003E5149453E0000427F400000426151FA
S11302B04946002141454B31001814127F10002794
S11302C045454539003C4A49493000017109050357
S11302D000364949493600064949291E0000363688
S11302E000000000563600000008142241000014EB
S11302F014141414000041221408000201510906C8
S113030000324959513E007C1211127C007F494948
S11303104936003E41414122007F4141221C007F79
S113032049494941007F09090901003E4149497A87
S1130330007F0808087F0000417F41000020404101
S11303403F01007F08142241007F40404040007F6D
S1130350020C027F007F0408107F003E4141413EB1
S1130360007F09090906003E4151215E007F0919F9
S113037029460046494949310001017F0101003FF6
S11303804040403F001F2040201F003F4038403F76
S113039000631408146300070870080700615149DA
S11303A0454300007F41410000552A552A5500006D
S11303B041417F00000402010204004040404040EB
S11303C0000001020400002054545478007F484483
S11303D0443800384444442000384444487F0038BA
S11303E05454541800087E0901020018A4A4A47CE3
S11303F0007F080404780000447D400000408084AD
S11304007D00007F102844000000417F4000007CF4
S113041004180478007C0804047800384444443800
S113042000FC242424180018242418FC007C08044C
S1130430040800485454542000043F444020003C25
S11304404040207C001C2040201C003C4030403CAC
S1130450004428102844001CA0A0A07C004464543C
S11304604C440000087741000000006300000000D5
S113047041770800000804080804003A4040207A44
S1130480003D4040403D002154545479007D1211F8
S1130490127D003944444439003D4242423D000249
S11304A005020000007E01495573007C1010081CF1
S11304B0003048204830005C6202625CAE2000B02C
S11304C0C8001040813FA1A6A83FA4D300D5F0D90D
S11304D022DA12DB208D140011241FBECFE5D8E0F0
S11304E0DEBFCDBF13E0A0E6B0E0E8EEF9E302C062
S11304F005900D92A835B107D9F728E0A8E5B3E037
S113050001C01D92A630B207E1F70E94F90A0C94CB
S1130510F21C0C940000FC01680F791F80E048E194
S1130520E617F70781F0219198E0382F3227532FEF
S1130530517030FD84278695513009F480682695E2
S1130540915099F7EDCF08950F931F93CF93DF93B5
S1130550CDB7DEB760970FB6F894DEBF0FBECDBF40
S113056090E1E6E6F0E0DE01119601900D929A9595
S1130570E1F7DB01ED91FC911197803159F4EE7FA5
S113058093E0EE0FFF1F9A95E1F716969C91E91BF5
S1130590F1093C96F7FF07C091E0DA019C93F195CD
S11305A0E195F10902C0DA011C92883281F4DB0181
S11305B014968C91982F9076903649F086FF02C05D
S11305C0EE7F05C085FF02C0EC7F01C0E87FCF014C
S11305D044E0969587954A95E1F7D9018C93EF709D
S11305E0FF2781E090E08C0F9D1FE80FF91F8081A9
S11305F0D8018C9380E060960FB6F894DEBF0FBEEE
S1130600CDBFDF91CF911F910F9108950F931F9349
S1130610CF93DF93EC018B01B80188810E942E04F3
S1130620888381508D3F30F4F8018081883211F045
S1130630803191F7DF91CF911F910F910895EF923F
S1130640FF921F93CF93DF93CDB7DEB729970FB6F1
S1130650F894DEBF0FBECDBF8FEF898787E9E82E00
S113066087E0F82E10E089858823F9F01430E9F04A
S1130670BE016F5F7F4FCE0109960E9406038985F4
S11306808E5F823090F0FE01319680E090E02191FF
S1130690D701A80FB91F2C93019688309105B9F79B
S11306A01F5F88E0E80EF11CDECF812F29960FB67C
S11306B0F894DEBF0FBECDBFDF91CF911F91FF90A5
S11306C0EF9008950F931F93CF93DF93D82F8B014F
S11306D00E94EA03C82F81110DC00E94E4038823FD
S11306E059F0B80184E40E947B04D13031F00E94B7
S11306F0E70303C0C1E001C0C2E08C2FDF91CF91BA
S11307001F910F9108954F925F926F927F928F92F3
S11307109F92AF92BF92CF92DF92EF92FF920F938C
S11307201F93CF93DF93CDB7DEB729970FB6F89415
S1130730DEBF0FBECDBF6C013B015A0189010E948F
S1130740EA03811124C0B6018EEB0E947B04CE0122
S113075001967C014E019AE0890E911C27010E94AA
S11307602B04F70181937F01E815F905C1F769E0CE
S113077070E0C2010E948B02F82E81110BC095011A
S1130780A301B201F60180810E94A40205C0FF24E6
S1130790F39402C083E0F82E8F2D29960FB6F894B7
S11307A0DEBF0FBECDBFDF91CF911F910F91FF90A0
S11307B0EF90DF90CF90BF90AF909F908F907F90FD
S11307C06F905F904F90089580B380780895979AC2
S11307D08F9A089597988F9A8FE295E00197F1F791
S11307E09FB7F8948F98E3EFEA95F1F7000080B390
S11307F09FBFE8E7F4E03197F1F700C0879B02C0A0
S11308008078089581E008952FB7F8948F9A94E042
S11308109A95F1F781118F9897E39A95F1F7000073
S113082090B3990F990B892396EA9A95F1F78F98CB
S11308302FBF0895CF93DF93C82FD8E08C2F8170FA
S11308400E940404C6958111C068D150B9F78C2F59
S1130850DF91CF9108958FEF0C941A04DF92EF92F9
S1130860FF920F931F93CF93DF93E82E8B010E9487
S1130870EA03811135C080EF0E941A04D0E0C0E47D
S113088088EFD82EDC0E81E00E940404F82E81E06B
S11308900E940404882319F0FF2071F023C0F11092
S11308A00BC0CE1530F0F801808180FF05C0CE1555
S11308B019F0DC2FFF24F3948F2D0E940404F80117
S11308C080818695FF2011F08068F8018083C150F3
S11308D0CD11D9CF0F5F1F4FC111D2CF8D2F03C0C0
S11308E08FEF01C08EEFDF91CF911F910F91FF9099
S11308F0EF90DF900895EF92FF921F93CF93DF93D1
S1130900182FEB010E94EA03209771F085E50E94FD
S11309101A047E0188E0E80EF11C89910E941A04F1
S1130920CE15DF05D1F703C08CEC0E941A04812F89
S1130930DF91CF911F91FF90EF900C941A048FEFE9
S113094087BB88BB8AB38F608ABB8BB38F608BBB3A
S113095083B7886083BF83B7856083BF87E28CBF1A
S113096089B7826089BF08951F920F920FB60F92C4
S113097011248F939F93EF93FF938BB38F608BBB63
S113098080915803811103C0E091B80713C08130EE
S113099041F4E091B907F0E0E059FF4FE491E068D9
S11309A00DC0823019F4E091BA0704C0833039F4E1
S11309B0E091B707F0E0E059FF4FE491E8BB9BB347
S11309C0E0915803F0E0EA58FF4F80818095892335
S11309D08BBB809158038F5F843018F48093580345
S11309E002C010925803FF91EF919F918F910F9045
S11309F00FBE0F901F9018959C0140E050E063E3F8
S1130A007BE280E090E00E943318822F203130F0A6
S1130A1030E02051310935952795822F80B908950A
S1130A2084EA86BF06B607FEFDCF089584E986BF33
S1130A3006B604FCFDCF089583B984E886BF06B6E4
S1130A4007FEFDCF089520E4829FC001112484682D
S1130A5086BF06B607FEFDCF83B10895FF920F93BC
S1130A601F93CF93DF93082F162FC42FF22ED32F6B
S1130A700E941005802F0E941C05812F0E941C05D6
S1130A800F2D1D2FCC2339F0F80181918F010E9485
S1130A901C05C150F7CFDF91CF911F910F91FF90AB
S1130AA00C941605FF920F931F93CF93DF93182F87
S1130AB0062FC42FF22ED32F0E941005812F0E94DF
S1130AC01C05802F0E941C050E94100581E0810FE7
S1130AD00E941C05C1500F2D1D2FCF3F59F081E0FE
S1130AE0C11101C080E00E942305F80181938F01A8
S1130AF0C150F3CFDF91CF911F910F91FF900C94D0
S1130B0016058E98969A8EB582608EBD8EB58F7BB3
S1130B108EBD1092BE0789B7806289BF1092BF074D
S1130B2008951F920F920FB60F9211242F933F93A3
S1130B304F938F939F9386B597B520915D03309122
S1130B405E03821B930B26B537B530935E03209367
S1130B505D033EB520E423272EBD803A2AE09207A8
S1130B6010F01092BE072091BE07222319F021E055
S1130B7020935C032091BE07211111C010925B03E6
S1130B8010925A03109259032EB520642EBD209161
S1130B90BE072F5F2093BE0722E020935C032091C1
S1130BA05C03213009F05FC09C01235B33402D3E80
S1130BB0364010F010925C0320915C03213009F060
S1130BC052C08A3D954028F08091BE078F5F809384
S1130BD0BE078091BE07823008F440C08091BE07F2
S1130BE080FD3CC080915A0390915B03880F991F4C
S1130BF090935B0380935A030EB406FE05C0816094
S1130C0090935B0380935A03809159038F5F809381
S1130C1059038D3018F18091BF0781111AC080915A
S1130C205A0390915B03282F2F732093BD079C01D7
S1130C30207C377046E0369527954A95E1F7209356
S1130C40BC0788279870892F86958695869580930A
S1130C50BB0710925C0381E08093BF078091BE07BD
S1130C608F5F8093BE0780915C03811105C0109251
S1130C70BE078EB58F7B8EBD9F918F914F913F9113
S1130C802F910F900FBE0F901F90189581E08093C5
S1130C9062008CE491E00C94DC0D1092620083E617
S1130CA091E00C94DC0D81E080936D038BE791E07F
S1130CB00C94DC0D10926D03AE9A8EE891E00C94C6
S1130CC0DC0D81E080936B0367E080E00E9479157E
S1130CD08FEA90E00E9482178FEF91E00C94DC0D74
S1130CE010926B0367E080E00E9479158FE990E031
S1130CF00E94821787E492E00C94DC0D80E00E944D
S1130D00D0158BE191E00C94DC0D81E00E94D015AC
S1130D1083E391E00C94DC0D80E00E94D01581E027
S1130D208093620080936D0380936B0367E080E09F
S1130D300E9479158FE890E00E94821782ED91E07D
S1130D400C94DC0D81E00E94D01510926200109288
S1130D506D03AE9A10926B0367E080E00E947915F0
S1130D608FE790E00E94821781E192E00C94DC0D01
S1130D701F920F920FB60F9211248F9381E08093EC
S1130D8060008F910F900FBE0F901F9018951F92C7
S1130D900F920FB60F9211248F939F938091690342
S1130DA090916A03009729F0019790936A038093C6
S1130DB069038091670390916803009729F0019774
S1130DC09093680380936703809165039091660311
S1130DD0009729F0019790936603809365038091AF
S1130DE0630390916403009729F00197909364033F
S1130DF0809363039F918F910F900FBE0F901F906C
S1130E001895CF92DF92EF92FF920F931F93CF9397
S1130E10DF93EC01D8012115310511F424E130E010
S1130E20109711F4A6E9B0E0FB0110811423888126
S1130E30111107C0811105C081E088838FE090E023
S1130E4012C0882309F44EC0111112C08130D1F4AC
S1130E508091690390916A03892B09F043C082E071
S1130E60888385E090E090936A038093690335C09A
S1130E708250823090F5E114F10411F0F7010995E4
S1130E8018822BC0823069F48091690390916A03BF
S1130E90892B41F583E08883B0936A03A0936903A7
S1130EA01CC0833049F48091690390916A03892BB3
S1130EB0C9F484E0888311C0843079F48091690393
S1130EC090916A03892B71F430936A032093690328
S1130ED0C114D10439F0F60109958881833010F0EA
S1130EE011111882DF91CF911F910F91FF90EF9014
S1130EF0DF90CF900895CF93C82F682F80E00E9491
S1130F0079158FE691E00E9482178091D607882395
S1130F1091F08091DA076C2F8A3030F48EE00E94D1
S1130F2079158CE691E005C08EE00E9479158AE679
S1130F3091E00E9482178091D607811112C080919E
S1130F40DA076C2F8A3030F48EE00E94791587E638
S1130F5091E005C08EE00E94791585E691E00E943B
S1130F6082178091DA0790E00E94911783E691E05E
S1130F700E9482178091D40790E00E94911780E626
S1130F8091E0CF910C94821790E0FC013197E73007
S1130F90F105D0F4E65DFF4F0C9452188DE591E015
S1130FA011C08AE591E00EC087E591E00BC084E5AD
S1130FB091E008C081E591E005C08EE491E002C0B3
S1130FC08BE491E00C948217089590E0FC01319732
S1130FD0E730F105D0F4EF5CFF4F0C9452188AE728
S1130FE090E011C08DE790E00EC080E890E00BC067
S1130FF083E890E008C086E890E005C089E890E0C6
S113100002C08CE890E00C94DC0D0895809161009E
S1131010882321F08FE890E00E94DC0D109261009B
S11310200E942C0E80936C0380916C03883621F00F
S113103080916C03883461F58DEB90E00E94DC0DA7
S113104085E191E00E94DC0D8DE291E00E94DC0DCF
S113105086E491E00E94DC0D8DE591E00E94DC0DB8
S113106085E791E00E94DC0D88E891E00E94DC0DA8
S113107082EA91E00E94DC0D84EB91E00E94DC0D99
S11310808CEC91E00E94DC0D8BE092E00E94DC0D80
S113109080916C03803351F480E00E94D01589E57F
S11310A092E00E94DC0D8BE191E0A9C080916C0379
S11310B0813351F481E00E94D0158BE692E00E94C6
S11310C0DC0D83E391E09BC080916C03823351F487
S11310D081E0809362008DE792E00E94DC0D8CE455
S11310E091E08DC080916C03833349F410926200C7
S11310F08FE892E00E94DC0D83E691E080C080914D
S11311006C03843351F481E080936D0381EA92E0AF
S11311100E94DC0D8BE791E072C080916C038533F3
S113112051F410926D0383EB92E00E94DC0DAE9AB1
S11311308EE891E064C080916C03863391F481E081
S113114080936B0367E080E00E94791585EC92E060
S11311500E94DC0D8BE391E00E9482178FEF91E0F7
S11311604EC080916C03873389F410926B0367E05F
S113117080E00E94791587ED92E00E94DC0D8BE2FD
S113118091E00E94821787E492E039C080916C0359
S11311908833C9F480E00E94D01581E08093620016
S11311A080936D0380936B0367E080E00E94791560
S11311B089EE92E00E94DC0D8BE191E00E9482179F
S11311C082ED91E01CC080916C038933D1F481E0FD
S11311D00E94D0151092620010926D03AE9A109284
S11311E06B0367E080E00E9479158BEF92E00E9428
S11311F0DC0D8BE091E00E94821781E192E00C9477
S1131200DC0D08958091BF07811108C067E080E17B
S11312100E94791585E091E00E9482178091BF07B2
S1131220882309F4DFC08091BC0781111DC080911F
S1131230BD078091BD078A30B8F467E080E10E9461
S113124079158FEF90E00E9482178DE093E00E9461
S1131250DC0D8091BD076AE070E090E00E94E80D2B
S113126086E692E00E94DC0D8091BC07811109C0E2
S11312708091BD07811105C00E94D0158BE191E0DA
S1131280A8C08091BC07811109C08091BD0781303D
S113129029F40E94D01583E391E09BC08091BC07A0
S11312A081110AC08091BD07823031F481E08093BE
S11312B062008CE491E08DC08091BC07811109C06B
S11312C08091BD07833029F41092620083E691E097
S11312D080C08091BC0781110AC08091BD07843011
S11312E031F481E080936D038BE791E072C08091CB
S11312F0BC0781110AC08091BD07853031F410927A
S11313006D03AE9A8EE891E064C08091BC078111B0
S113131012C08091BD07863071F481E080936B0325
S113132067E080E00E9479158FEE90E00E948217BA
S11313308FEF91E04EC08091BC07811111C0809164
S1131340BD07873069F410926B0367E080E00E9468
S113135079158FED90E00E94821787E492E039C0FE
S11313608091BC07811119C08091BD078830A9F410
S113137080E00E94D01581E08093620080936D0329
S113138080936B0367E080E00E9479158FEC90E016
S11313900E94821782ED91E01CC08091BC078111EC
S11313A01AC08091BD078930B1F481E00E94D01544
S11313B01092620010926D03AE9A10926B0367E074
S11313C080E00E9479158FEB90E00E94821781E102
S11313D092E00E94DC0D1092BF078FEF8093BD074F
S11313E08093BC07089580916B03813009F0F7C0A6
S11313F08091DC078A3020F48DE193E00E94DC0DBB
S11314008091DC076AE070E090E00E94E80D88E1DA
S113141093E00E94DC0D8091D7078A3020F48DE19F
S113142093E00E94DC0D8091D7076AE070E090E0C1
S11314300E94E80D88E193E00E94DC0D8091C707CB
S11314408A3020F48DE193E00E94DC0D8091C7077F
S11314506AE070E090E00E94E80D81E493E00E946D
S1131460DC0D8091DB070E94E5078AE193E00E948E
S1131470DC0D8091CC076AE070E090E00E94E80DFA
S11314808AE193E00E94DC0D8091C1076AE070E07C
S113149090E00E94E80D8AE193E00E94DC0D8091C7
S11314A0D907882321F08CE193E00E94DC0D809120
S11314B0D9076AE070E090E00E94E80D8FE193E0C4
S11314C00E94DC0D8091D607882321F08CE293E002
S11314D00E94DC0D8091DA076AE070E090E00E94DF
S11314E0E80D8EE293E00E94DC0D8091D4076AE05F
S11314F070E090E00E94E80D80E393E00E94DC0D30
S113150083E393E00E94DC0D80915F03882321F044
S11315108CE293E00E94DC0D8091C5076AE070E0E4
S1131520082E000C990B0E94E80D8EE293E00E94B5
S1131530DC0D8091C8078A3024F48DE193E00E9489
S1131540DC0D8091C8076AE070E0082E000C990B4E
S11315500E94E80D8FE393E00E94DC0D6AE070E0E6
S11315608091C9079091CA070E94E80D8EE293E02A
S11315700E94DC0D8091C0078A3020F48DE193E055
S11315800E94DC0D8091C0076AE070E090E00E9448
S1131590E80D85E493E00E94DC0D8091C3076AE0C6
S11315A070E090E00E94E80D8EE293E00E94DC0D72
S11315B08091C307843640F48091C4078A3020F4B4
S11315C08DE193E00E94DC0D8091C4076AE070E035
S11315D090E00E94E80D8CE493E00C94DC0D0895F7
S11315E0982F92959F708F702AE0929F800D1124FE
S11315F008958AB38F708ABBA7988BB3806F8BBB17
S1131600AF9AA69AAE9A85B7826085BF8BB780647D
S11316108BBF929A85B5886085BD85B5876085BD89
S11316208CE683BD80E889BF0E941F038093D507A1
S113163084E690E00E94FC040E94AB148FEA0E94AE
S1131640A41584E60E94E41581E00E9473170E94A9
S11316509F040E94810583E290E00E94C10D78946A
S1131660809162038130D1F499E19093CF0796E49D
S11316709093CE0795E39093CD0797E09093D0078E
S11316809093D1078093D20784E28093D3072DEC03
S113169037E047E060E080ED0E942E05A9E1AA2E24
S11316A0B12CDAE085E8C82E86E0D82E9EE7E92E34
S11316B096E0F92E0FE010E022E030E040E169E32B
S11316C070E08BEC97E00E9401072DE4C22E26E027
S11316D0D22E36E4E32E36E0F32E22E030E040E270
S11316E069E370E08DED97E00E9401074AE5C42E9E
S11316F046E0D42E53E5E52E56E0F52E22E030E008
S113170040E469E370E088ED97E00E94010760E738
S1131710C62E66E0D62E71E6E72E76E0F72E22E09E
S113172030E040E869E370E082EC97E00E94010752
S1131730E2EACE2EE6E0DE2EFCE8EF2EF6E0FF2E07
S113174022E030E040E863E370E086EC97E00E943A
S113175001070E9406080E94020980916703909184
S11317606803892B61F4B0926803A09267038091A7
S11317706D03882321F095B380E4892785BB80918C
S11317806000882309F48ECF2DEC37E047E060E059
S113179080ED0E945205C091CF078C2F0E94F00A61
S11317A08093DC071091CE07812F0E94F00A80936A
S11317B0D7078091CD070E94F00A082F8093C707AE
S11317C08091D0070E94F00A8093DB078091D107B3
S11317D00E94F00A8093CC078091D2070E94F00AFD
S11317E08093C1078091D3070E94F00A8093D907A0
S11317F080916200813029F580916103081769F0B6
S11318008C2F82958F708093B807CF70C093B907DF
S1131810D093B707D093BA0714C08091610308131B
S113182010C08C2F82958F708093B807CF70C093AF
S1131830B907812F82958F708093BA071F70109318
S1131840B70780916200811108C0D093B707D09385
S1131850BA07D093B907D093B80760E080E00E943C
S1131860791581E292E00E9482178091DC078A3028
S113187020F48FE192E00E9482178091DC0790E0CF
S11318800E9491178DE192E00E9482178091D70700
S11318908A3020F48BE192E00E9482178091D7076E
S11318A090E00E94911789E192E00E948217809152
S11318B0C7078A3020F487E192E00E948217809162
S11318C0C70790E00E94911761E080E00E947915BB
S11318D080E192E00E9482178091DB070E94C40796
S11318E08EE092E00E9482178091CC0790E00E94E3
S11318F091178CE092E00E9482178091C10790E0DA
S11319000E9491178AE092E00E9482178091D90781
S1131910882321F087E092E00E9482178091D90702
S113192090E00E9491178091CC078A3020F080913A
S1131930C1078A3020F484E092E00E9482178091EB
S11319406003811105C060E070E081E00E946203E1
S113195080916003882379F024ED37E04AED57E065
S113196066ED77E087E997E00E948303811103C065
S113197082E00E947B0763E080E00E9479158EEE8E
S113198091E00E94821748EC57E065EC77E084E030
S11319900E94AD14811164C08091C507811113C0E8
S11319A08091C80787FF21C081958093C80764E0B0
S11319B080E00E9479158EED91E00E94821781E00B
S11319C080935F031CC087FF10C08091C80787FF06
S11319D00CC081958093C80764E080E00E9479156B
S11319E08FEC91E00E9482170AC064E080E00E94BC
S11319F079158EEB91E00E94821710925F0380911B
S1131A00C507873F1CF464E08DE00AC099E0980F95
S1131A1064E0993010F48EE003C08A30E0F78FE080
S1131A200E9479158091C507082E000C990B0E941D
S1131A3091178CEB91E00E9482178091C8078A303D
S1131A4024F48AEB91E00E9482178091C807082E43
S1131A50000C990B0E94911787EB91E00E9482176A
S1131A6040EC57E069EC77E082E00E94B614811103
S1131A7031C065E00E9479158AEA91E00E948217DC
S1131A808091C9079091CA0765E0883E934010F49D
S1131A908BE001C08AE00E9479156091C9077091BA
S1131AA0CA0780E090E00E94BB1788EA91E00E9498
S1131AB082178091C0078A3020F486EA91E00E9460
S1131AC082178091C00790E00E94911781EA91E00B
S1131AD00E94821744EC57E063EC77E084E00E94B4
S1131AE0C11481112FC066E00E94791586E991E046
S1131AF00E9482178091C30766E08A3010F48FE059
S1131B0001C08EE00E9479158091C30790E00E9485
S1131B10911784E991E00E9482178091C30784366B
S1131B2040F48091C4078A3020F482E991E00E9455
S1131B3082178091C40790E00E9491178FE891E08A
S1131B400E94821780916B03811107C067E00E9495
S1131B5079158FE791E00E9482170E94E9170E948D
S1131B60F309809160038F5F80936003823010F0EB
S1131B7010926003109260008091C7078093610304
S1131B8091CD90BD89B988E18AB986E880BD8AB1D2
S1131B9088698AB908959091DE079F5F91702091BA
S1131BA0DF079217E1F3E92FF0E0E052F84F80836A
S1131BB09093DE07559A0895CF93DF93EC018991B2
S1131BC0882319F00E94CB0DFACFDF91CF910895AD
S1131BD0CF93DF93CDB7DEB761970FB6F894DEBF2E
S1131BE00FBECDBFAB01BE016F5F7F4F0E94FF19D7
S1131BF0CE0101960E94DC0D61960FB6F894DEBF0B
S1131C000FBECDBFDF91CF9108951F920F920FB6F3
S1131C100F9211248F939F93EF93FF939091DE077C
S1131C208091DF07981771F08091DF078F5F8170D3
S1131C308093DF07E091DF07F0E0E052F84F808106
S1131C408CB901C05598FF91EF919F918F910F909E
S1131C500FBE0F901F9018959091E2078091E307B3
S1131C60981769F08091E3078F5F8F718093E30782
S1131C70E091E307F0E0EC51F84F8081089580E0B3
S1131C8008951F920F920FB60F9211248F939F9372
S1131C90EF93FF938CB1E091E207EF5FEF719091C6
S1131CA0E307E91731F0E093E207F0E0EC51F84F75
S1131CB08083FF91EF919F918F910F900FBE0F90B2
S1131CC01F901895CF93C82F0E9403148CEE0E9486
S1131CD04F148C2F0E944F140E9403148DEE0E9407
S1131CE04F1480E00E947E14C82F0E9429148C2F68
S1131CF0CF910895CF93DF93C82F0E9403148CEEE5
S1131D000E944F148C2F0E944F140E9403148DEED6
S1131D100E944F1481E00E947E14C82FD0E0DC2F73
S1131D20CC2780E00E947E14C82B0E942914CE0187
S1131D30DF91CF9108950E947A0E982789279827DA
S1131D400895CF92DF92EF92FF92F82E0E9403142F
S1131D508CEE0E944F148F2D0E944F140E94031486
S1131D608DEE0E944F1481E00E947E14C82ED12C67
S1131D70E12CF12CFE2CED2CDC2CCC2481E00E94F7
S1131D807E14C82AFE2CED2CDC2CCC2480E00E948E
S1131D907E14C82A0E942914C701B601FF90EF904F
S1131DA0DF90CF900895CF93DF930E9403148CEEBD
S1131DB00E944F14C82F0E942914CC2309F4E5C0B3
S1131DC080ED0E94620E883501F1803609F0DFC093
S1131DD00E9403148CEE0E944F1480EE0E944F1454
S1131DE00E9429148FEF9BE60197F1F700C00000D1
S1131DF00E9403148CEE0E944F1482EF0E944F1431
S1131E0085E00E944F14C4E019C00E9403148CEEB4
S1131E100E944F1480EE0E944F1486EB0E944F14D0
S1131E200E9429148FEF9BE60197F1F700C0000090
S1131E300E9403148CEE0E944F14C2E085EF0E94AE
S1131E404F148CE60E944F1484EF0E944F1487EBCA
S1131E500E944F140E9429148FEF9BE60197F1F71B
S1131E6000C0000088E80E949B0E90936F0380934B
S1131E706E038AE80E949B0E909371038093700313
S1131E808CE80E949B0E90937303809372038EE8F8
S1131E900E949B0E909375038093740380E90E94C3
S1131EA09B0E909377038093760382E90E949B0EA6
S1131EB0909379038093780384E90E949B0E909316
S1131EC07B0380937A0386E90E949B0E90937D03A3
S1131ED080937C0388E90E949B0E90937F038093F8
S1131EE07E038AE90E949B0E909381038093800372
S1131EF08CE90E949B0E90938303809382038EE966
S1131F000E949B0E909385038093840380ED0E942E
S1131F10620E8036F1F581EA0E94620E8093860398
S1131F2081EE0E949B0E909388038093870383EE37
S1131F300E94620E8093890384EE0E94620ED82F61
S1131F4085EE0E94620E90E1D99F900111248F705A
S1131F50282B30938B0320938A0386EE0E94620E13
S1131F60D82F85EE0E94620E90E1D99F9001112432
S1131F7082958F70282B30938D0320938C0387EEEA
S1131F800E94620E80938E0304C08FEF03C080E032
S1131F9001C08C2FDF91CF9108958F929F92AF92C1
S1131FA0BF92CF92DF92EF92FF920F931F93CF9342
S1131FB0DF938C01EB018AEF0E94A10E611571057C
S1131FC020E88207910509F484C080906E03909004
S1131FD06F03A12CB12CC72ED82EE92EFF24E7FCC9
S1131FE0FA94C818D908EA08FB08DC01CB0137E0E9
S1131FF0B595A795979587953A95D1F7880C991C2F
S1132000AA1CBB1C9C01AD01281939094A095B09AA
S1132010A0917003B09171030E9463184B015C019D
S11320205BE0B594A794979487945A95D1F7A70148
S11320309601C701B6010E9401189B01AC016CE036
S113204055954795379527956A95D1F7A0917203D1
S1132050B09173030E946318DC01CB017EE0B59557
S1132060A795979587957A95D1F7A5019401280F9F
S1132070391F4A1F5B1F20938F03309390034093B3
S1132080910350939203A5E0B0E00E9458186B01AD
S11320907C01E0E8CE0ED11CE11CF11CCD2CDE2C21
S11320A0EF2CFF24E7FCFA9401151105A1F0209709
S11320B091F0C701B60124E630E040E050E00E9410
S11320C03318F8012083F4E62F9FC0181124C88226
S11320D002C08FEF01C080E0DF91CF911F910F917B
S11320E0FF90EF90DF90CF90BF90AF909F908F9034
S11320F008952F923F924F925F926F927F928F92A8
S11321009F92AF92BF92CF92DF92EF92FF920F9382
S11321101F93CF93DF93CDB7DEB7A6970FB6F8948E
S1132120DEBF0FBECDBF9B8F8A8F7D8F6C8F60E02B
S113213070E080E090E00E94CD0F87EF0E94A10E36
S11321406B837C838D839E83611571058048910523
S113215009F410C280918F0390919003A091910390
S1132160B09192036C017D01FF0CCC08DC2C76014C
S11321709C01AD016C2D7C2D8C2D9C2D345F414038
S1132180510961097109810991092E8F39834A83A3
S1132190652E762E872E982E9EA35901C42ED52EF9
S11321A0E62EF72E082F192F0E946B18222E3B8B38
S11321B04C8B5D8B6E8B7F8B888F998F30917703DF
S11321C020917603932F990F990B492F592F692F3B
S11321D0792F892F0E946B180CE00E949B19322ED4
S11321E0432E542E5F836F87788B898B9A8B309123
S11321F0790320917803932F990F990BA22CBB8814
S1132200CC88DD88EE88FF88088D198D492F592FD9
S1132210692F792F892F0E946B1808E00E94B41946
S1132220A32CB42CC52CDF80EF84F88809891A8983
S11322300E94D21970588F4F9F4FE0917403F09110
S113224075035F01C12CD12CE12CF12C8701EF83A4
S1132250B886C986DA86EB86FC860D871E87C12C74
S1132260D12CE12CF12C00E010E00E946B1801E26B
S11322700E94B4192F833F87488B598B362E7A8B53
S11322802C01A0E00E94E41909F474C130917F0389
S113229020917E03932F990F990BA22CBB88CC8895
S11322A0DD88EE88FF88088D198D492F592F692FF5
S11322B0792F892F0E946B18222E3B8B4C8B5D8BC0
S11322C06E8B7F8B888F998F30917D0320917C0357
S11322D0932F990F990BAE8CB980CA80D62CE72C1A
S11322E0F82C092D1EA1492F592F692F792F892FD9
S11322F00E946B1801E10E949B19A22CBB88CC8818
S1132300DD88EE88FF88088D198D0E94D219590145
S11323106A017B01682E292E4B815C816D817E814F
S113232024E075956795579547952A95D1F780E0F0
S113233090E0A0E1B0E0841B950BA60BB70B8C01D9
S11323409D0140E050E0BA018E8F1F8F28A339A36E
S11323504AA35BA36CA37DA39C0148A159A160E09F
S113236070E080E090E00FE10E949B19722E832EB2
S1132370942E5983B62FA72FF82FE92F30917B0382
S113238020917A03932F990F990B492F592F692F75
S1132390792F892F03E20E949B19062D122D0E948A
S11323A0D21959016A017B018C01272D382D492D41
S11323B059816B2F7A2F8F2F9E2F0E94DB19E5E313
S11323C0AE2EFCE0BF2EC12CD12CE12CF12C00E070
S11323D010E00E946B18AF80BF84C888D988E32CB2
S11323E0FA8882010E94C6182A8B398B49835A8342
S11323F06B837F838F87988B0DE00E94B419922E94
S1132400832E742E652E562E472E382E292E30916B
S1132410850320918403932F990F990BA92CB82C31
S1132420C72CD62CE52CF42C032D122D492F592F13
S1132430692F792F892F0E946B180E946B1809E16C
S11324400E94B419AA88B988C980DA80EB80FF8019
S11324500F8518890E94D21919012A013B014C01E8
S11324603091830320918203932F990F990B492F65
S1132470592F692F792F892F0E946B1803E10E942D
S1132480B41959016A017B018C019101A201B301C4
S1132490C4010E94D21908E00E94B41959016A01CA
S11324A07B01E82F192F3091810320918003932F12
S11324B0990F990B492F592F692F792F892F04E0F0
S11324C00E949B190E2F0E94D2192F873F83B42F8D
S11324D0F52FE62F79838A839B836901E42EF52EF9
S11324E0062F172F5C01A0E00E94E41964F4215028
S11324F03F4F4F4F5F4F6F4F7F4F8F4F9F4F69013C
S11325007A018B015C019601A701B801C50108E0BD
S11325100E94B41919012A012A8D3B8D232B29F11C
S11325204C8D5D8D452B09F1A12C94E6B92EC12C5F
S1132530D12CE12CF12C00E010E02F853F814B2FB2
S11325405F2F6E2F79818A819B810E94C618C901F1
S1132550AA8DBB8D2C9311969C93E22DB4E62B9FF0
S1132560E0191124AC8DBD8DEC93942D832D722D27
S1132570662704C06FEF70E080E090E0A6960FB687
S1132580F894DEBF0FBECDBFDF91CF911F910F91A5
S1132590FF90EF90DF90CF90BF90AF909F908F907F
S11325A07F906F905F904F903F902F9008954F923F
S11325B05F926F927F928F929F92AF92BF92CF92CF
S11325C0DF92EF92FF920F931F93CF93DF938C01CF
S11325D0EB0180ED0E94620E803611F08FEF02C194
S11325E060E070E080E090E00E94CD0F8DEF0E94EB
S11325F07A0EA0E0B0E0811520E89207A105B105AC
S113260069F380908F0390909003A0909103B09011
S113261092033CE2931A31E0A30AB1083EE0880F2A
S1132620991FAA1FBB1F3A95D1F740918A03509175
S11326308B03052E000C660B770BE4E1440F551F4A
S1132640661F771FEA95D1F76C017D01C41AD50A7C
S1132650E60AF70AA0918C03B0918D03A5019401B9
S11326600E946318C61AD70AE80AF90A40E4D40E8D
S1132670E11CF11CFFE0F594E794D794C794FA9514
S1132680D1F7A0918903B0E0A50194010E945818E4
S11326902B013C01ABE07594679457944794AA9539
S11326A0D1F750E8550E611C711CA0918E030A2EBF
S11326B0000CBB0BA50194010E946318BAE0959528
S11326C0879577956795BA95D1F7A30192010E94F2
S11326D00118DC01CB012AE0B595A795979587955C
S11326E02A95D1F79C01AD01405E5F4FA09187030D
S11326F0B09188030E946318DC01CB01905EAF4F58
S1132700BF4FBC01CD013EE09595879577956795C0
S11327103A95D1F7A70196010E9401186B017C013B
S11327204FE095958795779567954A95D1F79B01E5
S1132730AC010E9401189B01AC0167E055954795D7
S1132740379527956A95D1F7A0918603B0E00E944A
S11327505818DC01CB0174E0B595A795979587953A
S11327607A95D1F7A7019601281B390B4A0B5B0B0D
S1132770DA01C90157FF03C080E090E0DC01813039
S11327809105A10539E1B30724F080E090E0A0E0D1
S1132790B9E19C01AD018CE0559547953795279596
S11327A08A95D1F7A4E6B0E00E9458186B017C0129
S11327B02AE0F694E794D794C7942A95D1F70115A3
S11327C0110579F0209769F020E030E941E050E00C
S11327D00E941118F8012083F4E62F9FC0181124D9
S11327E0C88280E0DF91CF911F910F91FF90EF900D
S11327F0DF90CF90BF90AF909F908F907F906F901D
S11328005F904F90089580910408882339F0E091F7
S11328109303F0919403309709F0099584EA86BFF5
S11328208FEF9FEF909364008093630006B607FCDC
S11328300FC08091630090916400019790936400AD
S113284080936300892B91F781E0809304080895B5
S1132850089580910408882339F0E0919303F0915E
S11328609403309709F0099584E986BF8FEF9FEFB1
S1132870909364008093630006B604FE0FC08091B9
S113288063009091640001979093640080936300C7
S1132890892B91F781E08093040808950895CF93DC
S11328A0C82F80910408882339F0E0919303F091B4
S11328B09403309709F00995C3B984E886BF8FEF74
S11328C09FEF909364008093630006B607FC0EC0EC
S11328D080916300909164000197909364008093C9
S11328E06300892B91F781E08093040891B1987F6C
S11328F081E0983109F080E0CF910895CF93C82FFB
S113290080910408882339F0E0919303F0919403B3
S1132910309709F0099520E4C29FC001112484680E
S113292086BF8FEF9FEF909364008093630006B699
S113293007FC0EC08091630090916400019790930E
S1132940640080936300892B91F781E080930408ED
S113295083B1CF9108950C94D30E9B01867021F01E
S1132960BA01C9010C94CD0F8FEF08959B018670B5
S113297031F0BA01C9010E947910862F08958FEFB2
S113298008959B0182FF04C0BA01C9010C94D712B7
S11329908FEF089511B88FE280B984E086BF08955F
S11329A094EA96BF2CED30E006B607FC07C0215030
S11329B03109D1F78091050881600DC083B984E89D
S11329C086BF8CED90E006B607FC08C00197D9F7E6
S11329D0809105088260809305080895089584E92C
S11329E086BF089583B984E886BF8CED90E006B66F
S11329F007FC08C00197D9F780910508846080938B
S1132A00050808950895FF920F931F93CF93DF93C2
S1132A10F82E092F162F88E70E94D01480E00E9418
S1132A20F214CF2DD02FCE01810F911D8C01C01730
S1132A30D10721F089910E94F214F9CFDF91CF914F
S1132A401F910F91FF900C94EF14CF93DF9300D05C
S1132A5000D01F92CDB7DEB7E5E9F7E0808361834C
S1132A606055698391E29A8392E0980F9F709B83EB
S1132A7090E00296807F992724E0959587952A9582
S1132A80E1F7805F8C838FE78D8365E0CE0101964B
S1132A900E9403150F900F900F900F900F90DF91ED
S1132AA0CF910895EF92FF920F931F93CF93DF93EB
S1132AB07C018B0188E70E94D01480E40E94F21408
S1132AC0E7010E0D1F1DC017D10721F089910E9447
S1132AD0F214F9CFDF91CF911F910F91FF90EF90F6
S1132AE00C94EF14813820F4683010F40C942515FC
S1132AF00895982F990F890F880F0C94721560E030
S1132B0080E00C9425150F931F93CF93DF9305E971
S1132B1013E0C0E0D0E8F8018D2F11928A95E9F70F
S1132B206C2F80E00E94721560E870E0C8010E947A
S1132B305215CF5F00581F4FC83069F7DF91CF910E
S1132B401F910F910C947F151F93CF93DF93CDB7F3
S1132B50DEB76C970FB6F894DEBF0FBECDBF182F4B
S1132B600E94CA14ECEBF4E0DE0111969E01245E8F
S1132B703F4FCD0144914D933196A217B307D1F73E
S1132B801C8F6CE10E9403150E9483156C960FB68E
S1132B90F894DEBF0FBECDBFDF91CF911F91089592
S1132BA0CF93DF931F92CDB7DEB7813011F08FEA58
S1132BB001C08EEA898361E0CE0101960E9403156B
S1132BC00F90DF91CF910895CF93DF9300D0CDB7CD
S1132BD0DEB791E899838A8362E0CE0101960E9470
S1132BE003150F900F90DF91CF9108954F925F924C
S1132BF06F927F928F929F92AF92BF92CF92DF9209
S1132C00EF92FF920F931F93CF93DF93CDB7DEB76D
S1132C102C970FB6F894DEBF0FBECDBF893009F1F3
S1132C20B8F4883009F073C08091950790916500DD
S1132C3060919607891B0E94791580E20E94F6151F
S1132C40809195079091650060919607891B20C03B
S1132C508A30D1F18D3009F05AC06091960780E036
S1132C603EC0809195079091650024E0929FA00159
S1132C701124BA01680F711D25E130E0241B350BC6
S1132C8062177307E8F4990F990F60919607890FFB
S1132C902C960FB6F894DEBF0FBECDBFDF91CF9157
S1132CA01F910F91FF90EF90DF90CF90BF90AF9066
S1132CB09F908F907F906F905F904F900C947915B8
S1132CC0609196078EE70BC060919607673008F015
S1132CD0F3C080916500680F80919507D9CF2C9639
S1132CE00FB6F894DEBF0FBECDBFDF91CF911F9119
S1132CF00F91FF90EF90DF90CF90BF90AF909F9097
S1132D008F907F906F905F904F900C94721590917C
S1132D1095079A3708F0D0C0803208F4CDC08052AD
S1132D20E9E2F2E0E4918E17F8F060E0682E712C8D
S1132D30462F50E0440F551F9A01275D3D4FF9017E
S1132D4084918F3F09F4B8C0FA01E85DFD4FE49126
S1132D50F0E0B097E615F70529F4F90184918F3F67
S1132D6019F4AAC06F5FE4CF40916500292F30E0C9
S1132D70423009F080C0A901445F5F4F41385105DA
S1132D8008F09AC0DE011196F6E08F9F30011124FD
S1132D90AD0100E010E0CC24C394D12CFA011182DF
S1132DA01082F801E60DF71DE05CFD4F8490442489
S1132DB04394512C60E070E0912C7401062E02C003
S1132DC0F594E7940A94E2F7E0FE1BC0FA01A080B0
S1132DD0B1807601042C02C0EE0CFF1C0A94E2F7C9
S1132DE0AE28BF287B01EE0CFF1CF60102C0EE0FDB
S1132DF0FF1FEA94E2F77F01EA28FB28FA01F18237
S1132E00E0826F5F7F4FF2E04F0E511C6830710516
S1132E10A1F60F5F1F4F4E5F5F4F0630110509F09B
S1132E20BDCFE0919607F0E03196F695FE2FEE27A0
S1132E30F795E795AF01420F531F4B565C4FE20FD6
S1132E40F31F8F010B5E1C4FBE01635F7F4F8C919C
S1132E5011962C9111971296FA0120832183F8017F
S1132E60808381834E5F5F4F0E5F1F4FA617B707A6
S1132E7071F7945F1FC040919607F6E08F9F300171
S1132E80112450E8459F200D311D112440E050E0ED
S1132E90FA01E60DF71DE05CFD4FE491DA01A20FA3
S1132EA0B31FAB56BC4FEC934F5F5F4F4630510599
S1132EB079F79A5F909395072C960FB6F894DEBF36
S1132EC00FBECDBFDF91CF911F910F91FF90EF9077
S1132ED0DF90CF90BF90AF909F908F907F906F9036
S1132EE05F904F900895809365000895CF93DF938A
S1132EF0EC018991882319F00E94F615FACFDF912D
S1132F00CF910895CF93DF93FC018491EF01219633
S1132F10882321F00E94F615FE01F7CFDF91CF91AF
S1132F2008950F931F93CF93DF9300D000D000D068
S1132F30CDB7DEB79F938F9380E593E09F938F93F4
S1132F408E010F5F1F4F1F930F930E942F1AC8010A
S1132F500E9476170F900F900F900F900F900F9084
S1132F6026960FB6F894DEBF0FBECDBFDF91CF918A
S1132F701F910F9108950F931F93CF93DF93CDB7B4
S1132F80DEB72B970FB6F894DEBF0FBECDBF9F936D
S1132F908F937F936F9383E593E09F938F938E0139
S1132FA00F5F1F4F1F930F930E942F1AC8010E9497
S1132FB076170FB6F894DEBF0FBECDBF2B960FB6B3
S1132FC0F894DEBF0FBECDBFDF91CF911F910F915B
S1132FD008950F931F93CF9305E913E0C0E06C2F7E
S1132FE080E00E94721560E870E0C8010E945215EA
S1132FF0CF5F00581F4FC83091F7CF911F910F91A9
S11330000895DB018F939F930E945818BF91AF914D
S1133010A29F800D911DA39F900DB29F900D11242E
S11330200895A1E21A2EAA1BBB1BFD010DC0AA1F05
S1133030BB1FEE1FFF1FA217B307E407F50720F01D
S1133040A21BB30BE40BF50B661F771F881F991F98
S11330501A9469F760957095809590959B01AC01E1
S1133060BD01CF010895052E97FB1EF400940E9424
S11330704A1857FD07D00E94111807FC03D04EF4DC
S11330800C944A1850954095309521953F4F4F4FD9
S11330905F4F089590958095709561957F4F8F4F00
S11330A09F4F0895EE0FFF1F0590F491E02D0994B2
S11330B00E94F019A59F900DB49F900DA49F800DC0
S11330C0911D11240895B7FF0C9458180E945818A4
S11330D0821B930B0895DF93CF931F930F939A9DB5
S11330E0F02D219FF00D8B9DF00D8A9DE02DF10DAB
S11330F0039FF00D029FE00DF11D4E9DE00DF11DAB
S11331005E9DF00D4F9DF00D7F936F93BF92AF9234
S11331105F934F93D5010E94F0198B01AC01D70145
S11331200E94F019EB01E80FF91FD6010E94BB18A9
S11331302F913F91D6010E94F019C60FD71FE81FA7
S1133140F91FAF91BF910E94BB182F913F910E942C
S1133150F019C60FD71FE81FF91FD6010E94F019F6
S1133160E60FF71F9801BE01CF0111240F911F91A3
S1133170CF91DF9108950E94F019460F571FC81F81
S1133180D91F08F431960895689401C0E894F92F82
S1133190F12B12F00C94F818A0E0B0E0E2EDF8E1A5
S11331A00C946A19092E059422F40E9454191123CF
S11331B092F4F0E80F26FFEFE094F0940095109558
S11331C0B094C094D094A194BF0ACF0ADF0AEF0A46
S11331D0FF0A0F0B1F0B0E94031907FC0E945419CE
S11331E0CDB7DEB7ECE00C948619689401C0E8947E
S11331F08F929F92CF93DF930E940319DF91CF9117
S11332009F908F90089588249924F401E401B0E4F8
S11332109F93AA279A158B049C04ED05FE05CF0500
S1133220D007A10798F4AD2FDC2FCF2FFE2FE92D67
S1133230982C892E982F872F762F652F542F432F64
S1133240322F2227B85031F7BF9127C01B2EBF91D0
S1133250BB27220F331F441F551F661F771F881F6C
S1133260991F881C991CEE1FFF1FCC1FDD1FAA1F6E
S1133270BB1F8A149B04EC05FD05CE05DF05A007E2
S1133280B10748F08A189B08EC09FD09CE09DF094B
S1133290A00BB10B21601A94E1F62EF49401AF0156
S11332A0BE01CD01000C08956095709580959095B0
S11332B030954095509521953F4F4F4F5F4F6F4F3D
S11332C07F4F8F4F9F4F08952F923F924F925F925F
S11332D06F927F928F929F92AF92BF92CF92DF9222
S11332E0EF92FF920F931F93CF93DF93CDB7DEB787
S11332F0CA1BDB0B0FB6F894DEBF0FBECDBF09941B
S11333002A88398848885F846E847D848C849B8471
S1133310AA84B984C884DF80EE80FD800C811B817F
S1133320AA81B981CE0FD11D0FB6F894DEBF0FBEAE
S1133330CDBFED0108950F93083090F0982F872F9B
S1133340762F652F542F432F322F22270850F4CF86
S1133350220F331F441F551F661F771F881F991F95
S11333600A95B2F70F91089597FB10F81694000888
S11333700F93083098F00850232F342F452F562FE1
S1133380672F782F892F902DF4CF059497958795E3
S11333907795679557954795379527950A95AAF791
S11333A00F9108952A0D3B1D4C1D5D1D6E1D7F1D43
S11333B0801F911F08952A193B094C095D096E0964
S11333C07F09800B910B08950024A7FD00942A1710
S11333D03005400550056005700580059005089589
S11333E0A29FB001B39FC001A39F700D811D112442
S11333F0911DB29F700D811D1124911D08954532B8
S1133400510520F4423010F00C940A1AFB0110828A
S1133410CB010895BB274A3031F4992322F4BDE24D
S1133420909581959F4F0C94161ABB27FB01552745
S1133430AA27880F991FAA1FA41710F0A41B83950D
S11334405051B9F7A05DAA3308F0A95DA193009784
S113345079F7B111B1931192CB010C94481CAEE0F1
S1133460B0E0E5E3FAE10C9472190D891E8986E057
S11334708C831A8309838FEF9FE79E838D83AE012C
S1133480475E5F4F6F89788DCE0101960E94511A75
S1133490EF81F885E00FF11F10822E96E4E00C9482
S11334A08E19ABE0B0E0E7E5FAE10C9464196C0125
S11334B07B018A01FC0117821682838181FFCCC1C2
S11334C0CE0101963C01F6019381F70193FD8591AC
S11334D093FF81917F01882309F4BAC1853239F4BD
S11334E093FD859193FF81917F01853229F4B60183
S11334F090E00E94581CE7CF912C212C312CFFE145
S1133500F315D8F08B3279F038F4803279F08332C5
S1133510A1F4232D20611DC08D3261F0803369F444
S1133520232D216016C0832D8260382EE32DE460A4
S11335303E2E2AC0F32DF8601DC037FC2DC020EDAF
S1133540280F2A3040F08E32B9F436FC81C1232D85
S11335502064322E19C036FE06C08AE0989E200DE3
S11335601124922E11C0EAE02E9E200D1124222E49
S1133570F32DF0623F2E08C08C3621F4832D806831
S1133580382E02C0883641F4F70193FD859193FFEC
S113359081917F018111B3CF982F9F7D95549330F2
S11335A028F40C5F1F4F9FE399830DC0833631F0DD
S11335B0833771F0833509F059C021C0F801808147
S11335C089830E5F1F4F88248394912C530113C069
S11335D02801F2E04F0E511CF801A080B18036FEA4
S11335E003C0692D70E002C06FEF7FEFC5010E9438
S11335F03D1C4C018201F32DFF773F2E16C028019C
S113360022E0420E511CF801A080B18036FE03C0B6
S1133610692D70E002C06FEF7FEFC5010E94321C7C
S11336204C01F32DF0683F2E820133FC1BC0822D28
S113363090E088169906B0F4B60180E290E00E940A
S1133640581C2A94F4CFF50137FC859137FE8191FB
S11336505F01B60190E00E94581C21102A9421E0D9
S1133660821A91088114910471F7E8C0843611F02C
S1133670893641F5F80137FE07C060817181828186
S113368093810C5F1F4F08C060817181072E000C6D
S1133690880B990B0E5F1F4FF32DFF763F2E97FF7C
S11336A009C090958095709561957F4F8F4F9F4F7E
S11336B0F0683F2E2AE030E0A3010E94941C882E7B
S11336C0861845C0853731F4232D2F7EB22E2AE08B
S11336D030E025C0932D997FB92E8F36C1F018F4B0
S11336E0883579F0B5C0803719F0883721F0B0C03B
S11336F0E92FE061BE2EB4FE0DC0FB2DF460BF2E99
S113370009C034FE0AC0292F2660B22E06C028E064
S113371030E005C020E130E002C020E132E0F801F1
S1133720B7FE07C060817181828193810C5F1F4F56
S113373006C06081718180E090E00E5F1F4FA3019D
S11337400E94941C882E8618FB2DFF773F2E36FE90
S11337500DC0232D2E7FA22E891458F434FE0BC0E5
S113376032FC09C0832D8E7EA82E05C0B82CA32C54
S113377003C0B82C01C0B92CA4FE0FC0FE01E80D93
S1133780F11D8081803321F49A2D997EA92E09C0E0
S1133790A2FE06C0B394B39404C08A2D867809F0BF
S11337A0B394A3FC11C0A0FE06C0B21488F4280C84
S11337B0922C9B180EC0B21460F4B60180E290E023
S11337C00E94581CB394F7CFB21418F42B1802C0FB
S11337D0982C212CA4FE10C0B60180E390E00E9436
S11337E0581CA2FE17C0A1FC03C088E790E002C0E9
S11337F088E590E0B6010CC08A2D867859F0A1FEC8
S113380002C08BE201C080E2A7FC8DE2B60190E029
S11338100E94581C891438F4B60180E390E00E9499
S1133820581C9A94F7CF8A94F301E80DF11D808116
S1133830B60190E00E94581C8110F5CF222009F4B3
S113384042CEB60180E290E00E94581C2A94F6CF42
S1133850F6018681978102C08FEF9FEF2B96E2E1FC
S11338600C948019FC010590615070400110D8F748
S1133870809590958E0F9F1F0895FC0161507040B4
S113388001900110D8F7809590958E0F9F1F089591
S1133890DC01FC01672F71917723E1F7329704C0B3
S11338A07C916D9370836291AE17BF07C8F308953E
S11338B00F931F93CF93DF93FB01238121FD03C05B
S11338C08FEF9FEF2CC022FF16C0468157812481C1
S11338D035814217530744F4A081B1819D012F5FC4
S11338E03F4F318320838C93268137812F5F3F4F55
S11338F03783268314C08B01EC01FB010084F1851E
S1133900E02D0995892BE1F6D80116968D919C91AD
S11339101797019617969C938E931697CE01DF9175
S1133920CF911F910F910895FA01AA27283051F1E0
S1133930203181F1E8946F936E7F6E5F7F4F8F4FDC
S11339409F4FAF4FB1E03ED0B4E03CD0670F781F3B
S1133950891F9A1FA11D680F791F8A1F911DA11D20
S11339606A0F711D811D911DA11D20D009F4689459
S11339703F912AE0269F11243019305D3193DEF601
S1133980CF010895462F4770405D4193B3E00FD0B7
S1133990C9F7F6CF462F4F70405D4A3318F0495DA2
S11339A031FD4052419302D0A9F7EACFB4E0A69585
S11339B09795879577956795BA95C9F700976105A7
S11339C0710508959B01AC010A2E069457954795FD
S11339D037952795BA95C9F7620F731F841F951FF2
S10B39E0A01D0895F894FFCF27
S11339E8010101FFFF0100010102020304040506AD
S11339F8060707080909010204084D6F00547500F9
S1133A0857650054680046720053610053750054AA
S1133A1879706520276827206F722027482720613E
S1133A286E6420707265737320454E544552206647
S1133A386F722068656C70203A290D0A000D0A57C8
S1133A48656C636F6D6520746F20557365722048CB
S1133A58656C702E20456E74657220746865206EDE
S1133A68756D626572732062656C6F7720746F2060
S1133A7861637469766174652066756E6374696FD1
S1133A886E7320616E6420707265737320456E7462
S1133A9865720D0A00273027202D204F4C454420FD
S1133AA8646973706C6179204F4E0D0A00273127C1
S1133AB8202D204F4C454420646973706C61792033
S1133AC84F46460D0A00273227202D204C45442016
S1133AD8646973706C6179204F4E0D0A002733278F
S1133AE8202D204C454420646973706C6179204F03
S1133AF846460D0A00273427202D204C45442062D1
S1133B086C696E6B730D0A00273527202D204C45F0
S1133B184420646F65736E277420626C696E6B0D44
S1133B280A00273627202D20444154412073656E0E
S1133B38640D0A00273727202D204441544120646E
S1133B486F6E27742073656E640D0A00273827206A
S1133B582D204F4C454420646973706C6179204F63
S1133B684E2C204C454420646973706C6179204F55
S1133B784E2C204C454420626C696E6B732C204497
S1133B884154412073656E640D0A00273927202D9E
S1133B98204F4C454420646973706C6179204F460A
S1133BA8462C204C454420646973706C6179204F1D
S1133BB846462C204C454420646F65736E27742058
S1133BC8626C696E6B2C204441544120646F6E27EB
S1133BD8742073656E640D0A005553415254206372
S1133BE86D64203D2030202D3E2000555341525411
S1133BF820636D64203D2031202D3E200055534123
S1133C08525420636D64203D2032202D3E200055FF
S1133C185341525420636D64203D2033202D3E20AF
S1133C2800555341525420636D64203D2034202DA7
S1133C383E2000555341525420636D64203D203585
S1133C48202D3E2000555341525420636D64203D7D
S1133C582036202D3E2000555341525420636D6474
S1133C68203D2037202D3E200055534152542063D7
S1133C786D64203D2038202D3E2000555341525478
S1133C8820636D64203D2039202D3E2000524335A9
S1133C9820636D64203D20003A002F00323000205C
S1133CA82F20445331384232303A20002D002E0060
S1133CB8B04300202F20424D453238303A2000B01E
S1133CC843202F2000685061202F2000250D0A0072
S10B3CD8256900256C69000058
S9030000FC
