:100000000C946C020C94B8060C9489020C9489022E
:100010000C94C7060C9489020C9491050C948902E7
:100020000C9489020C9489020C94B4040C948902F7
:100030000C9489020C94600E0C94240E0C9489028A
:100040000C9489020C9489020C9489020C94890204
:100050000C948902CE07D107D407D707DA07DD074A
:10006000E007EF07F207F507F807FB07FE070108AF
:10007000C0F9A4B0999282D88090FF7F000000441C
:1000800041544120646F6E27742073656E64004490
:100090004154412073656E642020202020200044BC
:1000A00041544120646F6E27742073656E64004470
:1000B0004154412073656E6420202020202000449C
:1000C00041544120646F6E27742073656E64004450
:1000D0004154412073656E6420202020202000447C
:1000E00041544120646F6E27742073656E64004430
:1000F0004154412073656E64202020202020004957
:1001000052636F6E00202020202000444154412083
:10011000646F6E27742073656E64004441544120FF
:1001200073656E642020202020200044415441202B
:10013000646F6E27742073656E64004441544120DF
:1001400073656E64202020202020005375005361C9
:10015000004672005468005765005475004D6F00EA
:10016000B043002E0020002020002D00202D004450
:100170005331384232302073656E2E543A20004499
:1001800041544120646F6E27742073656E640020B3
:10019000250030002E0048756D69646974793A2035
:1001A00000206850610030002E0050726573737536
:1001B00072653A20202000B0430030002E005465C4
:1001C0006D70657261747572653A2020202000544C
:1001D000656D70657261747572653A2020005465B2
:1001E0006D70657261747572653A20202D002D2D39
:1001F0002D2D424D453238302073656E736F722D50
:100200002D2D2D002020003230002F002F002F0038
:10021000446174653A200030003A0030003A003002
:100220000054696D653A2000BC5F9C60A4618462E3
:10023000B6639664B0659F66B5678968A969FFFF74
:100240000000000000000000002F00000000070078
:10025000070000147F147F1400242A7F2A120062F2
:10026000640813230036495522500000050300009E
:1002700000001C224100000041221C000014083E26
:1002800008140008083E0808000000A060000008EC
:100290000808080800006060000000201008040240
:1002A000003E5149453E0000427F400000426151FE
:1002B0004946002141454B31001814127F10002798
:1002C00045454539003C4A4949300001710905035B
:1002D00000364949493600064949291E000036368C
:1002E00000000000563600000008142241000014EF
:1002F00014141414000041221408000201510906CC
:1003000000324959513E007C1211127C007F49494C
:100310004936003E41414122007F4141221C007F7D
:1003200049494941007F09090901003E4149497A8B
:10033000007F0808087F0000417F41000020404105
:100340003F01007F08142241007F40404040007F71
:10035000020C027F007F0408107F003E4141413EB5
:10036000007F09090906003E4151215E007F0919FD
:1003700029460046494949310001017F0101003FFA
:100380004040403F001F2040201F003F4038403F7A
:1003900000631408146300070870080700615149DE
:1003A000454300007F41410000552A552A55000071
:1003B00041417F00000402010204004040404040EF
:1003C000000001020400002054545478007F484487
:1003D000443800384444442000384444487F0038BE
:1003E0005454541800087E0901020018A4A4A47CE7
:1003F000007F080404780000447D400000408084B1
:100400007D00007F102844000000417F4000007CF8
:1004100004180478007C0804047800384444443804
:1004200000FC242424180018242418FC007C080450
:10043000040800485454542000043F444020003C29
:100440004040207C001C2040201C003C4030403CB0
:10045000004428102844001CA0A0A07C0044645440
:100460004C440000087741000000006300000000D9
:1004700041770800000804080804003A4040207A48
:10048000003D4040403D002154545479007D1211FC
:10049000127D003944444439003D4242423D00024D
:1004A00005020000007E01495573007C1010081CF5
:1004B000003048204830005C6202625CAE2000B030
:1004C000C8001040813FA1A6A83FA4D300D5F0D911
:1004D00022DA12DB208D140011241FBECFE5D8E0F4
:1004E000DEBFCDBF13E0A0E6B0E0E6E2FAE302C073
:1004F00005900D92AE34B107D9F727E0AEE4B3E032
:1005000001C01D92AC3FB207E1F70E94280B0C948A
:10051000111D0C940000FC01680F791F80E048E178
:10052000E617F70781F0219198E0382F3227532FF3
:10053000517030FD84278695513009F480682695E6
:10054000915099F7EDCF08950F931F93CF93DF93B9
:10055000CDB7DEB760970FB6F894DEBF0FBECDBF44
:1005600090E1E6E6F0E0DE01119601900D929A9599
:10057000E1F7DB01ED91FC911197803159F4EE7FA9
:1005800093E0EE0FFF1F9A95E1F716969C91E91BF9
:10059000F1093C96F7FF07C091E0DA019C93F195D1
:1005A000E195F10902C0DA011C92883281F4DB0185
:1005B00014968C91982F9076903649F086FF02C061
:1005C000EE7F05C085FF02C0EC7F01C0E87FCF0150
:1005D00044E0969587954A95E1F7D9018C93EF70A1
:1005E000FF2781E090E08C0F9D1FE80FF91F8081AD
:1005F000D8018C9380E060960FB6F894DEBF0FBEF2
:10060000CDBFDF91CF911F910F9108950F931F934D
:10061000CF93DF93EC018B01B80188810E942E04F7
:10062000888381508D3F30F4F8018081883211F049
:10063000803191F7DF91CF911F910F910895EF9243
:10064000FF921F93CF93DF93CDB7DEB729970FB6F5
:10065000F894DEBF0FBECDBF8FEF89878DE8E82EFF
:1006600087E0F82E10E089858823F9F01430E9F04E
:10067000BE016F5F7F4FCE0109960E9406038985F8
:100680008E5F823090F0FE01319680E090E0219103
:10069000D701A80FB91F2C93019688309105B9F79F
:1006A0001F5F88E0E80EF11CDECF812F29960FB680
:1006B000F894DEBF0FBECDBFDF91CF911F91FF90A9
:1006C000EF9008950F931F93CF93DF93D82F8B0153
:1006D0000E94EA03C82F81110DC00E94E403882301
:1006E00059F0B80184E40E947B04D13031F00E94BB
:1006F000E70303C0C1E001C0C2E08C2FDF91CF91BE
:100700001F910F9108954F925F926F927F928F92F7
:100710009F92AF92BF92CF92DF92EF92FF920F9390
:100720001F93CF93DF93CDB7DEB729970FB6F89419
:10073000DEBF0FBECDBF6C013B015A0189010E9493
:10074000EA03811124C0B6018EEB0E947B04CE0126
:1007500001967C014E019AE0890E911C27010E94AE
:100760002B04F70181937F01E815F905C1F769E0D2
:1007700070E0C2010E948B02F82E81110BC095011E
:10078000A301B201F60180810E94A40205C0FF24EA
:10079000F39402C083E0F82E8F2D29960FB6F894BB
:1007A000DEBF0FBECDBFDF91CF911F910F91FF90A4
:1007B000EF90DF90CF90BF90AF909F908F907F9001
:1007C0006F905F904F90089580B380780895979AC6
:1007D0008F9A089597988F9A8FE295E00197F1F795
:1007E0009FB7F8948F98E3EFEA95F1F7000080B394
:1007F0009FBFE8E7F4E03197F1F700C0879B02C0A4
:100800008078089581E008952FB7F8948F9A94E046
:100810009A95F1F781118F9897E39A95F1F7000077
:1008200090B3990F990B892396EA9A95F1F78F98CF
:100830002FBF0895CF93DF93C82FD8E08C2F8170FE
:100840000E940404C6958111C068D150B9F78C2F5D
:10085000DF91CF9108958FEF0C941A04DF92EF92FD
:10086000FF920F931F93CF93DF93E82E8B010E948B
:10087000EA03811135C080EF0E941A04D0E0C0E481
:1008800088EFD82EDC0E81E00E940404F82E81E06F
:100890000E940404882319F0FF2071F023C0F11096
:1008A0000BC0CE1530F0F801808180FF05C0CE1559
:1008B00019F0DC2FFF24F3948F2D0E940404F8011B
:1008C00080818695FF2011F08068F8018083C150F7
:1008D000CD11D9CF0F5F1F4FC111D2CF8D2F03C0C4
:1008E0008FEF01C08EEFDF91CF911F910F91FF909D
:1008F000EF90DF900895EF92FF921F93CF93DF93D5
:10090000182FEB010E94EA03209771F085E50E9401
:100910001A047E0188E0E80EF11C89910E941A04F5
:10092000CE15DF05D1F703C08CEC0E941A04812F8D
:10093000DF91CF911F91FF90EF900C941A048FEFED
:1009400087BB88BB8AB38F608ABB8BB38F608BBB3E
:1009500083B7886083BF83B7856083BF87E28CBF1E
:1009600089B7826089BF08951F920F920FB60F92C8
:1009700011248F939F93EF93FF938BB38F608BBB67
:1009800080914E03811103C0E091AE0713C0813006
:1009900041F4E091AF07F0E0E059FF4FE491E068E7
:1009A0000DC0823019F4E091B00704C0833039F4EF
:1009B000E091AD07F0E0E059FF4FE491E8BB9BB355
:1009C000E0914E03F0E0EA58FF4F80818095892343
:1009D0008BBB80914E038F5F843018F480934E035D
:1009E00002C010924E03FF91EF919F918F910F9053
:1009F0000FBE0F901F9018959C0140E050E063E3FC
:100A00007BE280E090E00E945218822F203130F08B
:100A100030E02051310935952795822F80B908950E
:100A200084EA86BF06B607FEFDCF089584E986BF37
:100A300006B604FCFDCF089583B984E886BF06B6E8
:100A400007FEFDCF089520E4829FC0011124846831
:100A500086BF06B607FEFDCF83B10895FF920F93C0
:100A60001F93CF93DF93082F162FC42FF22ED32F6F
:100A70000E941005802F0E941C05812F0E941C05DA
:100A80000F2D1D2FCC2339F0F80181918F010E9489
:100A90001C05C150F7CFDF91CF911F910F91FF90AF
:100AA0000C941605FF920F931F93CF93DF93182F8B
:100AB000062FC42FF22ED32F0E941005812F0E94E3
:100AC0001C05802F0E941C050E94100581E0810FEB
:100AD0000E941C05C1500F2D1D2FCF3F59F081E002
:100AE000C11101C080E00E942305F80181938F01AC
:100AF000C150F3CFDF91CF911F910F91FF900C94D4
:100B000016058E98969A8EB582608EBD8EB58F7BB7
:100B10008EBD1092B40789B7806289BF1092B50765
:100B200008951F920F920FB60F9211242F933F93A7
:100B30004F938F939F9386B597B520915303309130
:100B40005403821B930B26B537B53093540320937F
:100B500053033EB520E423272EBD803A2AE09207B6
:100B600010F01092B4072091B407222319F021E06D
:100B7000209352032091B407211111C01092510308
:100B80001092500310924F032EB520642EBD209179
:100B9000B4072F5F2093B40722E0209352032091E3
:100BA0005203213009F05FC09C01235B33402D3E8E
:100BB000364010F01092520320915203213009F078
:100BC00052C08A3D954028F08091B4078F5F809392
:100BD000B4078091B407823008F440C08091B40714
:100BE00080FD3CC08091500390915103880F991F64
:100BF00090935103809350030EB406FE05C08160AC
:100C0000909351038093500380914F038F5F8093A3
:100C10004F038D3018F18091B50781111AC0809172
:100C2000500390915103282F2F732093B3079C01F9
:100C3000207C377046E0369527954A95E1F720935A
:100C4000B20788279870892F869586958695809318
:100C5000B1071092520381E08093B5078091B407E9
:100C60008F5F8093B40780915203811105C0109269
:100C7000B4078EB58F7B8EBD9F918F914F913F9121
:100C80002F910F900FBE0F901F90189581E08093C9
:100C900062008CE491E00C94FB0D1092620083E6FC
:100CA00091E00C94FB0D81E0809363038BE791E06E
:100CB0000C94FB0D10926303AE9A8EE891E00C94B5
:100CC000FB0D81E08093600367E080E00E9498154F
:100CD0008FEA90E00E94A1178FEF91E00C94FB0D3A
:100CE0001092600367E080E00E9498158FE990E021
:100CF0000E94A11787E492E00C94FB0D80E00E9413
:100D0000EF158BE191E00C94FB0D81E00E94EF1553
:100D100083E391E00C94FB0D80E00E94EF1581E0ED
:100D200080936200809363038093600367E080E0B8
:100D30000E9498158FE890E00E94A11782ED91E043
:100D40000C94FB0D81E00E94EF151092620010924E
:100D50006303AE9A1092600367E080E00E949815EA
:100D60008FE790E00E94A11781E192E00C94FB0DC7
:100D70001F920F920FB60F9211248F9381E08093F0
:100D800060008F910F900FBE0F901F9018951F92CB
:100D90000F920FB60F9211248F939F9380915E0351
:100DA00090915F03009729F0019790935F038093E0
:100DB0005E0380915C0390915D03009729F0019799
:100DC00090935D0380935C0380915A0390915B0341
:100DD000009729F0019790935B0380935A038091C9
:100DE000580390915903009729F001979093590364
:100DF000809358039F918F910F900FBE0F901F907B
:100E00001895CF92DF92EF92FF920F931F93CF939B
:100E1000DF93EC01D8012115310511F424E130E014
:100E2000109711F4A6E9B0E0FB011081142388812A
:100E3000111107C0811105C081E088838FE090E027
:100E400012C0882309F44EC0111112C08130D1F4B0
:100E500080915E0390915F03892B09F043C082E08B
:100E6000888385E090E090935F0380935E0335C0B4
:100E70008250823090F5E114F10411F0F7010995E8
:100E800018822BC0823069F480915E0390915F03D9
:100E9000892B41F583E08883B0935F03A0935E03C1
:100EA0001CC0833049F480915E0390915F03892BCD
:100EB000C9F484E0888311C0843079F480915E03A2
:100EC00090915F03892B71F430935F0320935E034D
:100ED000C114D10439F0F60109958881833010F0EE
:100EE00011111882DF91CF911F910F91FF90EF9018
:100EF000DF90CF900895CF93C82F682F80E00E9495
:100F000098158FE691E00E94A1178091CC07882365
:100F100091F08091D0076C2F8A3030F48EE00E94DF
:100F200098158CE691E005C08EE00E9498158AE63F
:100F300091E00E94A1178091CC07811112C080918D
:100F4000D0076C2F8A3030F48EE00E94981587E627
:100F500091E005C08EE00E94981585E691E00E9420
:100F6000A1178091D00790E00E94B01783E691E02E
:100F70000E94A1178091CA0790E00E94B01780E6F6
:100F800091E0CF910C94A11790E0FC013197E730EC
:100F9000F105D0F4E65DFF4F0C9471188DE591E0FA
:100FA00011C08AE591E00EC087E591E00BC084E5B1
:100FB00091E008C081E591E005C08EE491E002C0B7
:100FC0008BE491E00C94A117089590E0FC01319717
:100FD000E730F105D0F4EF5CFF4F0C9471188AE70D
:100FE00090E011C08DE790E00EC080E890E00BC06B
:100FF00083E890E008C086E890E005C089E890E0CA
:1010000002C08CE890E00C94FB0D08958091610083
:10101000882321F08FE890E00E94FB0D1092610080
:101020000E944B0E8093610380916103883621F00A
:1010300080916103883461F58DEB90E00E94FB0D97
:1010400085E191E00E94FB0D8DE291E00E94FB0D95
:1010500086E491E00E94FB0D8DE591E00E94FB0D7E
:1010600085E791E00E94FB0D88E891E00E94FB0D6E
:1010700082EA91E00E94FB0D84EB91E00E94FB0D5F
:101080008CEC91E00E94FB0D8BE092E00E94FB0D46
:1010900080916103803351F480E00E94EF1589E56F
:1010A00092E00E94FB0D8BE191E0A9C08091610369
:1010B000813351F481E00E94EF158AE692E00E94AC
:1010C000FB0D83E391E09BC080916103823351F477
:1010D00081E0809362008BE792E00E94FB0D8CE43C
:1010E00091E08DC080916103833349F410926200D6
:1010F0008CE892E00E94FB0D83E691E080C0809135
:101100006103843351F481E0809363038DE992E0BD
:101110000E94FB0D8BE791E072C0809161038533E3
:1011200051F4109263038EEA92E00E94FB0DAE9A96
:101130008EE891E064C080916103863391F481E090
:101140008093600367E080E00E9498158FEB92E047
:101150000E94FB0D8BE391E00E94A1178FEF91E0BD
:101160004EC080916103873389F41092600367E079
:1011700080E00E94981580ED92E00E94FB0D8BE2CA
:1011800091E00E94A11787E492E039C08091610349
:101190008833C9F480E00E94EF1581E080936200FB
:1011A000809363038093600367E080E00E9498155A
:1011B00081EE92E00E94FB0D8BE191E00E94A1176D
:1011C00082ED91E01CC0809161038933D1F481E00C
:1011D0000E94EF151092620010926303AE9A109273
:1011E000600367E080E00E94981582EF92E00E9421
:1011F000FB0D8BE091E00E94A11781E192E00C943D
:10120000FB0D08958091B507811108C067E080E16A
:101210000E94981585E091E00E94A1178091B50782
:10122000882309F414C18091B207811121C08091F3
:10123000B3078091B3078A30D8F467E080E10E9459
:1012400098158FEF90E00E94A117809162038111A1
:101250000FC083E093E00E94FB0D8091B3076AE02A
:1012600070E090E00E94070E85E692E00E94FB0D80
:101270008091B20781110DC08091B307811109C01F
:101280000E94EF15809162038111D1C08BE191E042
:10129000CCC08091B20781110DC08091B30781301D
:1012A00049F40E94EF15809162038111C0C083E36D
:1012B00091E0BBC08091B20781110EC08091B3074D
:1012C000823051F481E08093620080916203811149
:1012D000AEC08CE491E0A9C08091B20781110DC02D
:1012E0008091B307833049F41092620080916203C9
:1012F00081119DC083E691E098C08091B207811171
:101300000EC08091B307843051F481E08093630371
:101310008091620381118BC08BE791E086C0809140
:10132000B20781110EC08091B307853051F410923D
:101330006303AE9A80916203811179C08EE891E0D7
:1013400074C08091B207811116C08091B3078630B6
:1013500091F481E08093600367E080E00E9498153B
:101360008FEE90E00E94A1178091620381115FC00F
:101370008FEF91E05AC08091B207811115C0809122
:10138000B307873089F41092600367E080E00E9421
:1013900098158FED90E00E94A11780916203811152
:1013A00046C087E492E041C08091B20781111DC020
:1013B0008091B3078830C9F480E00E94EF1581E086
:1013C00080936200809363038093600367E080E012
:1013D0000E9498158FEC90E00E94A1178091620303
:1013E000811125C082ED91E020C08091B20781116A
:1013F0001EC08091B3078930D1F481E00E94EF15BF
:101400001092620010926303AE9A1092600367E03C
:1014100080E00E9498158FEB90E00E94A1178091C8
:101420006203811104C081E192E00E94FB0D1092E1
:10143000B507809162038F5F80936203823011F45D
:10144000109262038FEF8093B3078093B2070895E1
:101450008091D2078A3020F483E193E00E94FB0D53
:101460008091D2076AE070E090E00E94070E8EE063
:1014700093E00E94FB0D8091CD078A3020F483E138
:1014800093E00E94FB0D8091CD076AE070E090E050
:101490000E94070E8EE093E00E94FB0D8091BD0735
:1014A0008A3020F483E193E00E94FB0D8091BD0718
:1014B0006AE070E090E00E94070E87E393E00E94EC
:1014C000FB0D8091D1070E94E50780E193E00E9427
:1014D000FB0D8091C2076AE070E090E00E94070E69
:1014E00080E193E00E94FB0D8091B7076AE070E015
:1014F00090E00E94070E80E193E00E94FB0D809136
:10150000CF07882321F082E193E00E94FB0D8091B8
:10151000CF076AE070E090E00E94070E85E193E05B
:101520000E94FB0D8091CC07882321F082E293E09A
:101530000E94FB0D8091D0076AE070E090E00E946D
:10154000070E84E293E00E94FB0D8091CA076AE0D7
:1015500070E090E00E94070E86E293E00E94FB0D8F
:1015600089E293E00E94FB0D80915503882321F0CE
:1015700082E293E00E94FB0D8091BB076AE070E07D
:10158000082E000C990B0E94070E84E293E00E9443
:10159000FB0D8091BE078A3024F483E193E00E9422
:1015A000FB0D8091BE076AE070E0082E000C990BDD
:1015B0000E94070E85E393E00E94FB0D6AE070E055
:1015C0008091BF079091C0070E94070E84E293E0CC
:1015D0000E94FB0D8091B6078A3020F483E193E0EE
:1015E0000E94FB0D8091B6076AE070E090E00E94D7
:1015F000070E8BE393E00E94FB0D8091B9076AE030
:1016000070E090E00E94070E84E293E00E94FB0DE0
:101610008091B907843640F48091BA078A3020F46B
:1016200083E193E00E94FB0D8091BA076AE070E0CD
:1016300090E00E94070E82E493E00C94FB0D982F3B
:1016400092959F708F702AE0929F800D11240895CB
:101650008AB38F708ABBA7988BB3806F8BBBAF9A0E
:10166000A69AAE9A85B7826085BF8BB780648BBF20
:10167000929A85B5886085BD85B5876085BD8CE605
:1016800083BD80E889BF0E941F038093CB0760E081
:1016900070E081E00E94620384E690E00E94FC0416
:1016A0000E94CA148FEA0E94C31584E60E940316A2
:1016B00081E00E9492170E949F040E94810583E2AC
:1016C00090E00E94E00D7894809157038130D1F42E
:1016D00092E29093C50794E49093C4071092C307D5
:1016E0008093C60789E18093C70782E08093C8078B
:1016F00084E28093C90723EC37E047E060E080EDA7
:101700000E942E05A9E1AA2EB12CCAE085E8C82EB8
:1017100086E0D82E9EE7E92E96E0F92E0FE010E045
:1017200022E030E040E169E370E081EC97E00E9464
:1017300001072DE4C22E26E0D22E36E4E32E36E059
:10174000F32E22E030E040E269E370E083ED97E0C1
:101750000E9401074AE5C42E46E0D42E53E5E52E4B
:1017600056E0F52E22E030E040E469E370E08EECD4
:1017700097E00E94010760E7C62E66E0D62E71E66C
:10178000E72E76E0F72E22E030E040E869E370E0F3
:1017900088EB97E00E940107E2EACE2EE6E0DE2E1B
:1017A000FCE8EF2EF6E0FF2E22E030E040E863E3B5
:1017B00070E08CEB97E00E9401070E9406080E94EF
:1017C000020980915C0390915D03892B61F4B092D2
:1017D0005D03A0925C0380916303882321F095B39D
:1017E00080E4892785BB80916000882309F48ECF2F
:1017F00023EC37E047E060E080ED0E945205D09195
:10180000C5078D2F0E941F0B8093D2071091C4072C
:10181000812F0E941F0B8093CD078091C3070E94E8
:101820001F0B082F8093BD078091C6070E941F0BD6
:101830008093D1078091C7070E941F0B8093C20736
:101840008091C8070E941F0B8093B7078091C9073A
:101850000E941F0B8093CF07809162008130B9F402
:101860008D2F82958F70DF708093AE07D093AF0776
:1018700000FF05C0C093AD07C093B00708C0812F1B
:1018800082958F708093B0071F701093AD07809181
:101890006200811108C0C093AD07C093B007C09328
:1018A000AF07C093AE0760E080E00E94981581E228
:1018B00092E00E94A1178091D2078A3020F48FE134
:1018C00092E00E94A1178091D20790E00E94B01789
:1018D0008DE192E00E94A1178091CD078A3020F41B
:1018E0008BE192E00E94A1178091CD0790E00E94C9
:1018F000B01789E192E00E94A1178091BD078A305C
:1019000020F487E192E00E94A1178091BD0790E04A
:101910000E94B01761E080E00E94981580E192E09B
:101920000E94A1178091D1070E94C4078EE092E027
:101930000E94A1178091C20790E00E94B0178CE02E
:1019400092E00E94A1178091B70790E00E94B01723
:101950008AE092E00E94A1178091CF07882321F0AE
:1019600087E092E00E94A1178091CF0790E00E944B
:10197000B0178091C2078A3020F08091B7078A3073
:1019800020F484E092E00E94A1172AEC37E040EDB9
:1019900057E06CEC77E08DE897E00E9483038111BB
:1019A00003C082E00E947B0760E070E081E00E945B
:1019B000620363E080E00E9498158EEE91E00E9441
:1019C000A1174EEB57E06BEB77E084E00E94CC145C
:1019D000811164C08091BB07811113C08091BE0743
:1019E00087FF21C081958093BE0764E080E00E945C
:1019F00098158EED91E00E94A11781E08093550328
:101A00001CC087FF10C08091BE0787FF0CC0819566
:101A10008093BE0764E080E00E9498158FEC91E00F
:101A20000E94A1170AC064E080E00E9498158EEB26
:101A300091E00E94A117109255038091BB07873F48
:101A40001CF464E08DE00AC099E0980F64E09930DE
:101A500010F48EE003C08A30E0F78FE00E94981502
:101A60008091BB07082E000C990B0E94B0178CEBDD
:101A700091E00E94A1178091BE078A3024F48AEB7E
:101A800091E00E94A1178091BE07082E000C990BCF
:101A90000E94B01787EB91E00E94A11746EB57E038
:101AA0006FEB77E082E00E94D514811131C065E0D0
:101AB0000E9498158AEA91E00E94A1178091BF07C1
:101AC0009091C00765E0883E934010F48BE001C020
:101AD0008AE00E9498156091BF077091C00780E06E
:101AE00090E00E94DA1788EA91E00E94A1178091A5
:101AF000B6078A3020F486EA91E00E94A11780910F
:101B0000B60790E00E94B01781EA91E00E94A11709
:101B10004AEB57E069EB77E084E00E94E014811122
:101B20002FC066E00E94981586E991E00E94A117F7
:101B30008091B90766E08A3010F48FE001C08EE032
:101B40000E9498158091B90790E00E94B01784E92F
:101B500091E00E94A1178091B907843640F48091EA
:101B6000BA078A3020F482E991E00E94A11780919F
:101B7000BA0790E00E94B0178FE891E00E94A11789
:101B800080916003811107C067E00E9498158FE77C
:101B900091E00E94A1170E9408189091560380912D
:101BA000BD07981731F080916003813011F40E94D5
:101BB000280A109260008091BD0780935603A6CD3D
:101BC00090BD89B988E18AB986E880BD8AB1886903
:101BD0008AB908959091D4079F5F91702091D5079D
:101BE0009217E1F3E92FF0E0EA52F84F80839093E7
:101BF000D407559A0895CF93DF93EC0189918823F8
:101C000019F00E94EA0DFACFDF91CF910895CF939A
:101C1000DF93CDB7DEB761970FB6F894DEBF0FBE86
:101C2000CDBFAB01BE016F5F7F4F0E941E1ACE0178
:101C300001960E94FB0D61960FB6F894DEBF0FBEB1
:101C4000CDBFDF91CF9108951F920F920FB60F92E3
:101C500011248F939F93EF93FF939091D4078091DA
:101C6000D507981771F08091D5078F5F81708093A9
:101C7000D507E091D507F0E0EA52F84F80818CB9A2
:101C800001C05598FF91EF919F918F910F900FBEDA
:101C90000F901F9018959091D8078091D9079817A9
:101CA00069F08091D9078F5F8F718093D907E09198
:101CB000D907F0E0E652F84F8081089580E008955A
:101CC0001F920F920FB60F9211248F939F93EF9351
:101CD000FF938CB1E091D807EF5FEF719091D90736
:101CE000E91731F0E093D807F0E0E652F84F80832F
:101CF000FF91EF919F918F910F900FBE0F901F90CA
:101D00001895CF93C82F0E9422148CEE0E946E1457
:101D10008C2F0E946E140E9422148DEE0E946E146D
:101D200080E00E949D14C82F0E9448148C2FCF91F0
:101D30000895CF93DF93C82F0E9422148CEE0E9447
:101D40006E148C2F0E946E140E9422148DEE0E943D
:101D50006E1481E00E949D14C82FD0E0DC2FCC27A8
:101D600080E00E949D14C82B0E944814CE01DF9190
:101D7000CF9108950E94990E982789279827089552
:101D8000CF92DF92EF92FF92F82E0E9422148CEEF7
:101D90000E946E148F2D0E946E140E9422148DEEEC
:101DA0000E946E1481E00E949D14C82ED12CE12C5B
:101DB000F12CFE2CED2CDC2CCC2481E00E949D1417
:101DC000C82AFE2CED2CDC2CCC2480E00E949D1433
:101DD000C82A0E944814C701B601FF90EF90DF9017
:101DE000CF900895CF93DF930E9422148CEE0E942F
:101DF0006E14C82F0E944814CC2309F4E5C080ED6E
:101E00000E94810E883501F1803609F0DFC00E9402
:101E100022148CEE0E946E1480EE0E946E140E94BA
:101E200048148FEF9BE60197F1F700C000000E9475
:101E300022148CEE0E946E1482EF0E946E1485E0D4
:101E40000E946E14C4E019C00E9422148CEE0E94FD
:101E50006E1480EE0E946E1486EB0E946E140E9437
:101E600048148FEF9BE60197F1F700C000000E9435
:101E700022148CEE0E946E14C2E085EF0E946E1454
:101E80008CE60E946E1484EF0E946E1487EB0E9411
:101E90006E140E9448148FEF9BE60197F1F700C083
:101EA000000088E80E94BA0E909365038093640353
:101EB0008AE80E94BA0E90936703809366038CE8C9
:101EC0000E94BA0E90936903809368038EE80E9483
:101ED000BA0E90936B0380936A0380E90E94BA0E56
:101EE00090936D0380936C0382E90E94BA0E9093E5
:101EF0006F0380936E0384E90E94BA0E909371037E
:101F00008093700386E90E94BA0E909373038093C6
:101F1000720388E90E94BA0E90937503809374034C
:101F20008AE90E94BA0E90937703809376038CE936
:101F30000E94BA0E90937903809378038EE90E94F1
:101F4000BA0E90937B0380937A0380ED0E94810EFA
:101F50008036F1F581EA0E94810E80937C0381EE48
:101F60000E94BA0E90937E0380937D0383EE0E94BD
:101F7000810E80937F0384EE0E94810ED82F85EE20
:101F80000E94810E90E1D99F900111248F70282B1F
:101F9000309381032093800386EE0E94810ED82F18
:101FA00085EE0E94810E90E1D99F900111248295C7
:101FB0008F70282B309383032093820387EE0E9437
:101FC000810E8093840304C08FEF03C080E001C0C2
:101FD0008C2FDF91CF9108958F929F92AF92BF92F5
:101FE000CF92DF92EF92FF920F931F93CF93DF93E5
:101FF0008C01EB018AEF0E94C00E6115710520E88B
:102000008207910509F484C0809064039090650371
:10201000A12CB12CC72ED82EE92EFF24E7FCFA9470
:10202000C818D908EA08FB08DC01CB0137E0B595F0
:10203000A795979587953A95D1F7880C991CAA1C76
:10204000BB1C9C01AD01281939094A095B09A09103
:102050006603B09167030E9482184B015C015BE04C
:10206000B594A794979487945A95D1F7A7019601B0
:10207000C701B6010E9420189B01AC016CE0559588
:102080004795379527956A95D1F7A0916803B09148
:1020900069030E948218DC01CB017EE0B595A7950B
:1020A000979587957A95D1F7A5019401280F391F47
:1020B0004A1F5B1F20938503309386034093870359
:1020C00050938803A5E0B0E00E9477186B017C0173
:1020D000E0E8CE0ED11CE11CF11CCD2CDE2CEF2C47
:1020E000FF24E7FCFA9401151105A1F0209791F067
:1020F000C701B60124E630E040E050E00E945218EB
:10210000F8012083F4E62F9FC0181124C88202C072
:102110008FEF01C080E0DF91CF911F910F91FF9071
:10212000EF90DF90CF90BF90AF909F908F900895E9
:102130002F923F924F925F926F927F928F929F92D7
:10214000AF92BF92CF92DF92EF92FF920F931F93C5
:10215000CF93DF93CDB7DEB7A6970FB6F894DEBF67
:102160000FBECDBF9B8F8A8F7D8F6C8F60E070E03C
:1021700080E090E00E94EC0F87EF0E94C00E6B831E
:102180007C838D839E83611571058048910509F4D8
:1021900010C28091850390918603A0918703B0912E
:1021A00088036C017D01FF0CCC08DC2C76019C01BE
:1021B000AD016C2D7C2D8C2D9C2D345F414051093F
:1021C00061097109810991092E8F39834A83652E2E
:1021D000762E872E982E9EA35901C42ED52EE62E3C
:1021E000F72E082F192F0E948A18222E3B8B4C8B1A
:1021F0005D8B6E8B7F8B888F998F30916D032091D3
:102200006C03932F990F990B492F592F692F792F11
:10221000892F0E948A180CE00E94BA19322E432E90
:10222000542E5F836F87788B898B9A8B30916F03E5
:1022300020916E03932F990F990BA22CBB88CC8809
:10224000DD88EE88FF88088D198D492F592F692F59
:10225000792F892F0E948A1808E00E94D319A32C95
:10226000B42CC52CDF80EF84F88809891A890E9474
:10227000F11970588F4F9F4FE0916A03F0916B03F3
:102280005F01C12CD12CE12CF12C8701EF83B886A2
:10229000C986DA86EB86FC860D871E87C12CD12C79
:1022A000E12CF12C00E010E00E948A1801E20E946B
:1022B000D3192F833F87488B598B362E7A8B2C016D
:1022C000A0E00E94031A09F474C1309175032091B3
:1022D0007403932F990F990BA22CBB88CC88DD88AF
:1022E000EE88FF88088D198D492F592F692F792F76
:1022F000892F0E948A18222E3B8B4C8B5D8B6E8B14
:102300007F8B888F998F3091730320917203932F65
:10231000990F990BAE8CB980CA80D62CE72CF82C7B
:10232000092D1EA1492F592F692F792F892F0E941E
:102330008A1801E10E94BA19A22CBB88CC88DD88DA
:10234000EE88FF88088D198D0E94F11959016A01E4
:102350007B01682E292E4B815C816D817E8124E07A
:1023600075956795579547952A95D1F780E090E048
:10237000A0E1B0E0841B950BA60BB70B8C019D016F
:1023800040E050E0BA018E8F1F8F28A339A34AA3E3
:102390005BA36CA37DA39C0148A159A160E070E000
:1023A00080E090E00FE10E94BA19722E832E942EE5
:1023B0005983B62FA72FF82FE92F30917103209161
:1023C0007003932F990F990B492F592F692F792F4C
:1023D000892F03E20E94BA19062D122D0E94F119CD
:1023E00059016A017B018C01272D382D492D598116
:1023F0006B2F7A2F8F2F9E2F0E94FA19E5E3AE2EB6
:10240000FCE0BF2EC12CD12CE12CF12C00E010E01F
:102410000E948A18AF80BF84C888D988E32CFA88C4
:1024200082010E94E5182A8B398B49835A836B837A
:102430007F838F87988B0DE00E94D319922E832E75
:10244000742E652E562E472E382E292E30917B0362
:1024500020917A03932F990F990BA92CB82CC72C94
:10246000D62CE52CF42C032D122D492F592F692F32
:10247000792F892F0E948A180E948A1809E10E94E8
:10248000D319AA88B988C980DA80EB80FF800F85CC
:1024900018890E94F11919012A013B014C01309160
:1024A000790320917803932F990F990B492F592F76
:1024B000692F792F892F0E948A1803E10E94D3196E
:1024C00059016A017B018C019101A201B301C40190
:1024D0000E94F11908E00E94D31959016A017B0199
:1024E000E82F192F3091770320917603932F990FBE
:1024F000990B492F592F692F792F892F04E00E94BA
:10250000BA190E2F0E94F1192F873F83B42FF52F90
:10251000E62F79838A839B836901E42EF52E062FAB
:10252000172F5C01A0E00E94031A64F421503F4F72
:102530004F4F5F4F6F4F7F4F8F4F9F4F69017A0112
:102540008B015C019601A701B801C50108E00E945A
:10255000D31919012A012A8D3B8D232B29F14C8D8A
:102560005D8D452B09F1A12C94E6B92EC12CD12CFF
:10257000E12CF12C00E010E02F853F814B2F5F2FE5
:102580006E2F79818A819B810E94E518C901AA8DED
:10259000BB8D2C9311969C93E22DB4E62B9FE019F2
:1025A0001124AC8DBD8DEC93942D832D722D662757
:1025B00004C06FEF70E080E090E0A6960FB6F8944C
:1025C000DEBF0FBECDBFDF91CF911F910F91FF9066
:1025D000EF90DF90CF90BF90AF909F908F907F90C3
:1025E0006F905F904F903F902F9008954F925F9221
:1025F0006F927F928F929F92AF92BF92CF92DF9213
:10260000EF92FF920F931F93CF93DF938C01EB0117
:1026100080ED0E94810E803611F08FEF02C160E0E4
:1026200070E080E090E00E94EC0F8DEF0E94990E28
:10263000A0E0B0E0811520E89207A105B10569F39B
:102640008090850390908603A0908703B0908803C4
:102650003CE2931A31E0A30AB1083EE0880F991FCB
:10266000AA1FBB1F3A95D1F7409180035091810377
:10267000052E000C660B770BE4E1440F551F661F17
:10268000771FEA95D1F76C017D01C41AD50AE60AD5
:10269000F70AA0918203B0918303A50194010E94DF
:1026A0008218C61AD70AE80AF90A40E4D40EE11CD7
:1026B000F11CFFE0F594E794D794C794FA95D1F70D
:1026C000A0917F03B0E0A50194010E9477182B012F
:1026D0003C01ABE07594679457944794AA95D1F761
:1026E00050E8550E611C711CA09184030A2E000C49
:1026F000BB0BA50194010E948218BAE095958795BD
:1027000077956795BA95D1F7A30192010E94201899
:10271000DC01CB012AE0B595A795979587952A9579
:10272000D1F79C01AD01405E5F4FA0917D03B09158
:102730007E030E948218DC01CB01905EAF4FBF4F39
:10274000BC01CD013EE095958795779567953A95C3
:10275000D1F7A70196010E9420186B017C014FE080
:1027600095958795779567954A95D1F79B01AC012B
:102770000E9420189B01AC0167E05595479537955D
:1027800027956A95D1F7A0917C03B0E00E94771855
:10279000DC01CB0174E0B595A795979587957A955F
:1027A000D1F7A7019601281B390B4A0B5B0BDA0105
:1027B000C90157FF03C080E090E0DC018130910542
:1027C000A10539E1B30724F080E090E0A0E0B9E191
:1027D0009C01AD018CE055954795379527958A95D5
:1027E000D1F7A4E6B0E00E9477186B017C012AE0E3
:1027F000F694E794D794C7942A95D1F7011511055B
:1028000079F0209769F020E030E941E050E00E9443
:102810003018F8012083F4E62F9FC0181124C882D5
:1028200080E0DF91CF911F910F91FF90EF90DF90AB
:10283000CF90BF90AF909F908F907F906F905F9060
:102840004F9008958091FA07882339F0E091890329
:10285000F0918A03309709F0099584EA86BF8FEFDB
:102860009FEF909364008093630006B607FC0FC04F
:10287000809163009091640001979093640080932D
:102880006300892B91F781E08093FA0708950895FA
:102890008091FA07882339F0E0918903F0918A0347
:1028A000309709F0099584E986BF8FEF9FEF9093E9
:1028B00064008093630006B604FE0FC0809163003D
:1028C0009091640001979093640080936300892B3A
:1028D00091F781E08093FA0708950895CF93C82F68
:1028E0008091FA07882339F0E0918903F0918A03F7
:1028F000309709F00995C3B984E886BF8FEF9FEF41
:10290000909364008093630006B607FC0EC080912C
:10291000630090916400019790936400809363003A
:10292000892B91F781E08093FA0791B1987F81E03C
:10293000983109F080E0CF910895CF93C82F80910E
:10294000FA07882339F0E0918903F0918A033097E0
:1029500009F0099520E4C29FC0011124846886BF54
:102960008FEF9FEF909364008093630006B607FC9F
:102970000EC0809163009091640001979093640071
:1029800080936300892B91F781E08093FA0783B1EC
:10299000CF9108950C94F20E9B01867021F0BA013C
:1029A000C9010C94EC0F8FEF08959B01867031F0F4
:1029B000BA01C9010E949810862F08958FEF0895DB
:1029C0009B0182FF04C0BA01C9010C94F6128FEF7B
:1029D000089511B88FE280B984E086BF089594EA23
:1029E00096BF2CED30E006B607FC07C02150310938
:1029F000D1F78091FB0781600DC083B984E886BF61
:102A00008CED90E006B607FC08C00197D9F78091DD
:102A1000FB0782608093FB070895089584E986BFD1
:102A2000089583B984E886BF8CED90E006B607FC74
:102A300008C00197D9F78091FB0784608093FB075A
:102A400008950895FF920F931F93CF93DF93F82E6D
:102A5000092F162F88E70E94EF1480E00E941115BD
:102A6000CF2DD02FCE01810F911D8C01C017D10722
:102A700021F089910E941115F9CFDF91CF911F911B
:102A80000F91FF900C940E15CF93DF9300D000D0E0
:102A90001F92CDB7DEB7EBE8F7E080836183605526
:102AA000698391E29A8392E0980F9F709B8390E0F4
:102AB0000296807F992724E0959587952A95E1F7DE
:102AC000805F8C838FE78D8365E0CE0101960E9445
:102AD00022150F900F900F900F900F90DF91CF91D4
:102AE0000895EF92FF920F931F93CF93DF937C0192
:102AF0008B0188E70E94EF1480E40E941115E70122
:102B00000E0D1F1DC017D10721F089910E941115CC
:102B1000F9CFDF91CF911F910F91FF90EF900C941F
:102B20000E15813820F4683010F40C944415089583
:102B3000982F990F890F880F0C94911560E080E011
:102B40000C9444150F931F93CF93DF930BE813E07E
:102B5000C0E0D0E8F8018D2F11928A95E9F76C2F2B
:102B600080E00E94911560E870E0C8010E94711534
:102B7000CF5F00581F4FC83069F7DF91CF911F9189
:102B80000F910C949E151F93CF93DF93CDB7DEB7B3
:102B90006C970FB6F894DEBF0FBECDBF182F0E9402
:102BA000E914ECEBF4E0DE0111969E01245E3F4F48
:102BB000CD0144914D933196A217B307D1F71C8FE5
:102BC0006CE10E9422150E94A2156C960FB6F89433
:102BD000DEBF0FBECDBFDF91CF911F910895CF9380
:102BE000DF931F92CDB7DEB7813011F08FEA01C0BD
:102BF0008EEA898361E0CE0101960E9422150F9032
:102C0000DF91CF910895CF93DF9300D0CDB7DEB79A
:102C100091E899838A8362E0CE0101960E94221591
:102C20000F900F90DF91CF9108954F925F926F9226
:102C30007F928F929F92AF92BF92CF92DF92EF924C
:102C4000FF920F931F93CF93DF93CDB7DEB72C97EF
:102C50000FB6F894DEBF0FBECDBF893009F1B8F4CE
:102C6000883009F073C080918B0790916500609166
:102C70008C07891B0E94981580E20E94151680918E
:102C80008B079091650060918C07891B20C08A306A
:102C9000D1F18D3009F05AC060918C0780E03EC0C0
:102CA00080918B079091650024E0929FA0011124F0
:102CB000BA01680F711D25E130E0241B350B621746
:102CC0007307E8F4990F990F60918C07890F2C9680
:102CD0000FB6F894DEBF0FBECDBFDF91CF911F912D
:102CE0000F91FF90EF90DF90CF90BF90AF909F90AB
:102CF0008F907F906F905F904F900C94981560919B
:102D00008C078EE70BC060918C07673008F0F3C02A
:102D100080916500680F80918B07D9CF2C960FB6F4
:102D2000F894DEBF0FBECDBFDF91CF911F910F9101
:102D3000FF90EF90DF90CF90BF90AF909F908F90DB
:102D40007F906F905F904F900C94911590918B07AE
:102D50009A3708F0D0C0803208F4CDC08052E9E242
:102D6000F2E0E4918E17F8F060E0682E712C462FA7
:102D700050E0440F551F9A01275D3D4FF9018491A2
:102D80008F3F09F4B8C0FA01E85DFD4FE491F0E02F
:102D9000B097E615F70529F4F90184918F3F19F4EE
:102DA000AAC06F5FE4CF40916500292F30E0423028
:102DB00009F080C0A901445F5F4F4138510508F018
:102DC0009AC0DE011196F6E08F9F30011124AD010B
:102DD00000E010E0CC24C394D12CFA0111821082BF
:102DE000F801E60DF71DE05CFD4F84904424439408
:102DF000512C60E070E0912C7401062E02C0F59415
:102E0000E7940A94E2F7E0FE1BC0FA01A080B180CB
:102E10007601042C02C0EE0CFF1C0A94E2F7AE28E7
:102E2000BF287B01EE0CFF1CF60102C0EE0FFF1F56
:102E3000EA94E2F77F01EA28FB28FA01F182E082B6
:102E40006F5F7F4FF2E04F0E511C68307105A1F6A5
:102E50000F5F1F4F4E5F5F4F0630110509F0BDCF6A
:102E6000E0918C07F0E03196F695FE2FEE27F7956E
:102E7000E795AF01420F531F45575C4FE20FF31F19
:102E80008F01055F1C4FBE01635F7F4F8C911196D0
:102E90002C9111971296FA0120832183F8018083E7
:102EA00081834E5F5F4F0E5F1F4FA617B70771F705
:102EB000945F1FC040918C07F6E08F9F3001112472
:102EC00050E8459F200D311D112440E050E0FA01EB
:102ED000E60DF71DE05CFD4FE491DA01A20FB31F90
:102EE000A557BC4FEC934F5F5F4F4630510579F7C4
:102EF0009A5F90938B072C960FB6F894DEBF0FBEA7
:102F0000CDBFDF91CF911F910F91FF90EF90DF9098
:102F1000CF90BF90AF909F908F907F906F905F9079
:102F20004F900895809365000895CF93DF93EC014F
:102F30008991882319F00E941516FACFDF91CF915D
:102F40000895CF93DF93FC018491EF0121968823AC
:102F500021F00E941516FE01F7CFDF91CF91089561
:102F60000F931F93CF93DF9300D000D000D0CDB745
:102F7000DEB79F938F9386E493E09F938F938E01A8
:102F80000F5F1F4F1F930F930E944E1AC8010E949C
:102F900095170F900F900F900F900F900F9026960F
:102FA0000FB6F894DEBF0FBECDBFDF91CF911F915A
:102FB0000F9108950F931F93CF93DF93CDB7DEB793
:102FC0002B970FB6F894DEBF0FBECDBF9F938F93A4
:102FD0007F936F9389E493E09F938F938E010F5FAC
:102FE0001F4F1F930F930E944E1AC8010E949517FE
:102FF0000FB6F894DEBF0FBECDBF2B960FB6F89478
:10300000DEBF0FBECDBFDF91CF911F910F9108950D
:103010000F931F93CF930BE813E0C0E06C2F80E079
:103020000E94911560E870E0C8010E947115CF5FA1
:1030300000581F4FC83091F7CF911F910F910895FD
:10304000DB018F939F930E947718BF91AF91A29F4E
:10305000800D911DA39F900DB29F900D1124089596
:10306000A1E21A2EAA1BBB1BFD010DC0AA1FBB1F8C
:10307000EE1FFF1FA217B307E407F50720F0A21BFE
:10308000B30BE40BF50B661F771F881F991F1A946B
:1030900069F760957095809590959B01AC01BD0195
:1030A000CF010895052E97FB1EF400940E94691825
:1030B00057FD07D00E94301807FC03D04EF40C9443
:1030C000691850954095309521953F4F4F4F5F4F70
:1030D000089590958095709561957F4F8F4F9F4F84
:1030E0000895EE0FFF1F0590F491E02D09940E94C2
:1030F0000F1AA59F900DB49F900DA49F800D911D58
:1031000011240895B7FF0C9477180E947718821B3A
:10311000930B0895DF93CF931F930F939A9DF02DF8
:10312000219FF00D8B9DF00D8A9DE02DF10D039FE9
:10313000F00D029FE00DF11D4E9DE00DF11D5E9D15
:10314000F00D4F9DF00D7F936F93BF92AF925F9301
:103150004F93D5010E940F1A8B01AC01D7010E9439
:103160000F1AEB01E80FF91FD6010E94DA182F9110
:103170003F91D6010E940F1AC60FD71FE81FF91FF3
:10318000AF91BF910E94DA182F913F910E940F1AC0
:10319000C60FD71FE81FF91FD6010E940F1AE60FAE
:1031A000F71F9801BE01CF0111240F911F91CF91FC
:1031B000DF9108950E940F1A460F571FC81FD91F8D
:1031C00008F431960895689401C0E894F92FF12B22
:1031D00012F00C941719A0E0B0E0E1EFF8E10C94C4
:1031E0008919092E059422F40E947319112392F46F
:1031F000F0E80F26FFEFE094F09400951095B0945E
:10320000C094D094A194BF0ACF0ADF0AEF0AFF0A44
:103210000F0B1F0B0E94221907FC0E947319CDB7D8
:10322000DEB7ECE00C94A519689401C0E8948F9285
:103230009F92CF93DF930E942219DF91CF919F90AD
:103240008F90089588249924F401E401B0E49F93B9
:10325000AA279A158B049C04ED05FE05CF05D0071F
:10326000A10798F4AD2FDC2FCF2FFE2FE92D982C3E
:10327000892E982F872F762F652F542F432F322F8B
:103280002227B85031F7BF9127C01B2EBF91BB2713
:10329000220F331F441F551F661F771F881F991F5A
:1032A000881C991CEE1FFF1FCC1FDD1FAA1FBB1F10
:1032B0008A149B04EC05FD05CE05DF05A007B107C8
:1032C00048F08A189B08EC09FD09CE09DF09A00B1C
:1032D000B10B21601A94E1F62EF49401AF01BE0106
:1032E000CD01000C0895609570958095909530956E
:1032F0004095509521953F4F4F4F5F4F6F4F7F4FF8
:103300008F4F9F4F08952F923F924F925F926F92EF
:103310007F928F929F92AF92BF92CF92DF92EF9265
:10332000FF920F931F93CF93DF93CDB7DEB7CA1BE6
:10333000DB0B0FB6F894DEBF0FBECDBF09942A8811
:10334000398848885F846E847D848C849B84AA84B9
:10335000B984C884DF80EE80FD800C811B81AA8146
:10336000B981CE0FD11D0FB6F894DEBF0FBECDBF11
:10337000ED0108950F93083090F0982F872F762F46
:10338000652F542F432F322F22270850F4CF220FBE
:10339000331F441F551F661F771F881F991F0A95EB
:1033A000B2F70F91089597FB10F8169400080F9349
:1033B000083098F00850232F342F452F562F672FB1
:1033C000782F892F902DF4CF059497958795779531
:1033D000679557954795379527950A95AAF70F91C1
:1033E00008952A0D3B1D4C1D5D1D6E1D7F1D801F08
:1033F000911F08952A193B094C095D096E097F093F
:10340000800B910B08950024A7FD00942A17300526
:103410004005500560057005800590050895A29F40
:10342000B001B39FC001A39F700D811D1124911D98
:10343000B29F700D811D1124911D089545325105D3
:1034400020F4423010F00C94291AFB011082CB01B9
:103450000895BB274A3031F4992322F4BDE29095B8
:1034600081959F4F0C94351ABB27FB015527AA273E
:10347000880F991FAA1FA41710F0A41B8395505101
:10348000B9F7A05DAA3308F0A95DA193009779F779
:10349000B111B1931192CB010C94671CAEE0B0E076
:1034A000E4E5FAE10C9491190D891E8986E08C837C
:1034B0001A8309838FEF9FE79E838D83AE01475E5A
:1034C0005F4F6F89788DCE0101960E94701AEF814F
:1034D000F885E00FF11F10822E96E4E00C94AD19F0
:1034E000ABE0B0E0E6E7FAE10C9483196C017B01F4
:1034F0008A01FC0117821682838181FFCCC1CE0133
:1035000001963C01F6019381F70193FD859193FFAC
:1035100081917F01882309F4BAC1853239F493FD82
:10352000859193FF81917F01853229F4B60190E066
:103530000E94771CE7CF912C212C312CFFE1F31551
:10354000D8F08B3279F038F4803279F08332A1F4FC
:10355000232D20611DC08D3261F0803369F4232D4D
:10356000216016C0832D8260382EE32DE4603E2E4C
:103570002AC0F32DF8601DC037FC2DC020ED280FA8
:103580002A3040F08E32B9F436FC81C1232D2064FC
:10359000322E19C036FE06C08AE0989E200D1124F6
:1035A000922E11C0EAE02E9E200D1124222EF32D22
:1035B000F0623F2E08C08C3621F4832D8068382EAF
:1035C00002C0883641F4F70193FD859193FF819104
:1035D0007F018111B3CF982F9F7D9554933028F4AC
:1035E0000C5F1F4F9FE399830DC0833631F0833703
:1035F00071F0833509F059C021C0F80180818983B9
:103600000E5F1F4F88248394912C530113C028010F
:10361000F2E04F0E511CF801A080B18036FE03C0CD
:10362000692D70E002C06FEF7FEFC5010E945C1C46
:103630004C018201F32DFF773F2E16C0280122E0B6
:10364000420E511CF801A080B18036FE03C0692DE6
:1036500070E002C06FEF7FEFC5010E94511C4C016A
:10366000F32DF0683F2E820133FC1BC0822D90E0C9
:1036700088169906B0F4B60180E290E00E94771CAB
:103680002A94F4CFF50137FC859137FE81915F01D3
:10369000B60190E00E94771C21102A9421E0821A42
:1036A00091088114910471F7E8C0843611F08936CD
:1036B00041F5F80137FE07C06081718182819381F5
:1036C0000C5F1F4F08C060817181072E000C880BB2
:1036D000990B0E5F1F4FF32DFF763F2E97FF09C00A
:1036E00090958095709561957F4F8F4F9F4FF068B3
:1036F0003F2E2AE030E0A3010E94B31C882E8618DA
:1037000045C0853731F4232D2F7EB22E2AE030E0DC
:1037100025C0932D997FB92E8F36C1F018F48835C6
:1037200079F0B5C0803719F0883721F0B0C0E92FA3
:10373000E061BE2EB4FE0DC0FB2DF460BF2E09C0AB
:1037400034FE0AC0292F2660B22E06C028E030E0E1
:1037500005C020E130E002C020E132E0F801B7FE10
:1037600007C060817181828193810C5F1F4F06C009
:103770006081718180E090E00E5F1F4FA3010E9485
:10378000B31C882E8618FB2DFF773F2E36FE0DC00A
:10379000232D2E7FA22E891458F434FE0BC032FC48
:1037A00009C0832D8E7EA82E05C0B82CA32C03C083
:1037B000B82C01C0B92CA4FE0FC0FE01E80DF11D0C
:1037C0008081803321F49A2D997EA92E09C0A2FE12
:1037D00006C0B394B39404C08A2D867809F0B394DC
:1037E000A3FC11C0A0FE06C0B21488F4280C922CD1
:1037F0009B180EC0B21460F4B60180E290E00E9403
:10380000771CB394F7CFB21418F42B1802C0982C7D
:10381000212CA4FE10C0B60180E390E00E94771C2A
:10382000A2FE17C0A1FC03C088E790E002C088E5B3
:1038300090E0B6010CC08A2D867859F0A1FE02C036
:103840008BE201C080E2A7FC8DE2B60190E00E940D
:10385000771C891438F4B60180E390E00E94771C4D
:103860009A94F7CF8A94F301E80DF11D8081B60197
:1038700090E00E94771C8110F5CF222009F442CEFF
:10388000B60180E290E00E94771C2A94F6CFF60100
:103890008681978102C08FEF9FEF2B96E2E10C9417
:1038A0009F19FC010590615070400110D8F7809578
:1038B00090958E0F9F1F0895FC01615070400190FC
:1038C0000110D8F7809590958E0F9F1F0895DC0109
:1038D000FC01672F71917723E1F7329704C07C9147
:1038E0006D9370836291AE17BF07C8F308950F936D
:1038F0001F93CF93DF93FB01238121FD03C08FEF43
:103900009FEF2CC022FF16C046815781248135814C
:103910004217530744F4A081B1819D012F5F3F4FAF
:10392000318320838C93268137812F5F3F4F3783EC
:10393000268314C08B01EC01FB010084F185E02D8E
:103940000995892BE1F6D80116968D919C911797D0
:10395000019617969C938E931697CE01DF91CF9187
:103960001F910F910895FA01AA27283051F12031B3
:1039700081F1E8946F936E7F6E5F7F4F8F4F9F4F03
:10398000AF4FB1E03ED0B4E03CD0670F781F891F45
:103990009A1FA11D680F791F8A1F911DA11D6A0F13
:1039A000711D811D911DA11D20D009F468943F91C6
:1039B0002AE0269F11243019305D3193DEF6CF01C5
:1039C0000895462F4770405D4193B3E00FD0C9F78B
:1039D000F6CF462F4F70405D4A3318F0495D31FDF8
:1039E0004052419302D0A9F7EACFB4E0A69597954B
:1039F000879577956795BA95C9F700976105710521
:103A000008959B01AC010A2E06945795479537956A
:103A10002795BA95C9F7620F731F841F951FA01DC4
:063A20000895F894FFCFA9
:103A2600010101FFFF010001010202030404050672
:103A3600060707080909010204084D6F00547500BE
:103A46005765005468004672005361005375005470
:103A560079706520276827206F7220274827206104
:103A66006E6420707265737320454E54455220660D
:103A76006F722068656C70203A290D0A000D0A578E
:103A8600656C636F6D6520746F2055736572204891
:103A9600656C702E20456E74657220746865206EA4
:103AA600756D626572732062656C6F7720746F2026
:103AB60061637469766174652066756E6374696F97
:103AC6006E7320616E6420707265737320456E7428
:103AD60065720D0A00273027202D204F4C454420C3
:103AE600646973706C6179204F4E0D0A0027312787
:103AF600202D204F4C454420646973706C617920F9
:103B06004F46460D0A00273227202D204C454420DB
:103B1600646973706C6179204F4E0D0A0027332754
:103B2600202D204C454420646973706C6179204FC8
:103B360046460D0A00273427202D204C4544206296
:103B46006C696E6B730D0A00273527202D204C45B6
:103B56004420646F65736E277420626C696E6B0D0A
:103B66000A00273627202D20444154412073656ED4
:103B7600640D0A00273727202D2044415441206434
:103B86006F6E27742073656E640D0A002738272030
:103B96002D204F4C454420646973706C6179204F29
:103BA6004E2C204C454420646973706C6179204F1B
:103BB6004E2C204C454420626C696E6B732C20445D
:103BC6004154412073656E640D0A00273927202D64
:103BD600204F4C454420646973706C6179204F46D0
:103BE600462C204C454420646973706C6179204FE3
:103BF60046462C204C454420646F65736E2774201E
:103C0600626C696E6B2C204441544120646F6E27B0
:103C1600742073656E640D0A005541525420636D1D
:103C260064203D2030202D3E200055415254206313
:103C36006D64203D2031202D3E20005541525420F8
:103C4600636D64203D2032202D3E200055415254A4
:103C560020636D64203D2033202D3E2000554152C7
:103C66005420636D64203D2034202D3E20005541B4
:103C7600525420636D64203D2035202D3E20005592
:103C860041525420636D64203D2036202D3E200095
:103C96005541525420636D64203D2037202D3E202F
:103CA600005541525420636D64203D2038202D3E3E
:103CB60020005541525420636D64203D2039202D4B
:103CC6003E200052433520636D64203D20003A00BB
:103CD6002F00323000202F20445331384232303A00
:103CE60020002D002E00B04300202F20424D4532EB
:103CF60038303A2000B043202F2000685061202F32
:0E3D06002000250D0A00256900256C690000CB
:00000001FF
